{"abi":[{"type":"constructor","inputs":[{"name":"_l1ChainId","type":"uint256","internalType":"uint256"},{"name":"_bridgeHub","type":"address","internalType":"address"},{"name":"_assetRouter","type":"address","internalType":"address"},{"name":"_nativeTokenVault","type":"address","internalType":"address"},{"name":"_messageRoot","type":"address","internalType":"address"}],"stateMutability":"nonpayable"},{"type":"function","name":"ASSET_ROUTER","inputs":[],"outputs":[{"name":"","type":"address","internalType":"contract IAssetRouterBase"}],"stateMutability":"view"},{"type":"function","name":"BRIDGE_HUB","inputs":[],"outputs":[{"name":"","type":"address","internalType":"contract IBridgehub"}],"stateMutability":"view"},{"type":"function","name":"L1_CHAIN_ID","inputs":[],"outputs":[{"name":"","type":"uint256","internalType":"uint256"}],"stateMutability":"view"},{"type":"function","name":"MESSAGE_ROOT","inputs":[],"outputs":[{"name":"","type":"address","internalType":"contract IMessageRoot"}],"stateMutability":"view"},{"type":"function","name":"NATIVE_TOKEN_VAULT","inputs":[],"outputs":[{"name":"","type":"address","internalType":"contract INativeTokenVault"}],"stateMutability":"view"},{"type":"function","name":"acceptOwnership","inputs":[],"outputs":[],"stateMutability":"nonpayable"},{"type":"function","name":"bridgeBurn","inputs":[{"name":"_settlementChainId","type":"uint256","internalType":"uint256"},{"name":"","type":"uint256","internalType":"uint256"},{"name":"_assetId","type":"bytes32","internalType":"bytes32"},{"name":"","type":"address","internalType":"address"},{"name":"_data","type":"bytes","internalType":"bytes"}],"outputs":[{"name":"_bridgeMintData","type":"bytes","internalType":"bytes"}],"stateMutability":"payable"},{"type":"function","name":"bridgeMint","inputs":[{"name":"_originSettlementChainId","type":"uint256","internalType":"uint256"},{"name":"_assetId","type":"bytes32","internalType":"bytes32"},{"name":"_data","type":"bytes","internalType":"bytes"}],"outputs":[],"stateMutability":"payable"},{"type":"function","name":"chainBalance","inputs":[{"name":"chainId","type":"uint256","internalType":"uint256"},{"name":"assetId","type":"bytes32","internalType":"bytes32"}],"outputs":[{"name":"balance","type":"uint256","internalType":"uint256"}],"stateMutability":"view"},{"type":"function","name":"getBalanceChange","inputs":[{"name":"_chainId","type":"uint256","internalType":"uint256"}],"outputs":[{"name":"assetId","type":"bytes32","internalType":"bytes32"},{"name":"amount","type":"uint256","internalType":"uint256"}],"stateMutability":"nonpayable"},{"type":"function","name":"handleChainBalanceDecrease","inputs":[{"name":"_chainId","type":"uint256","internalType":"uint256"},{"name":"_assetId","type":"bytes32","internalType":"bytes32"},{"name":"_amount","type":"uint256","internalType":"uint256"},{"name":"","type":"bool","internalType":"bool"}],"outputs":[],"stateMutability":"nonpayable"},{"type":"function","name":"handleChainBalanceIncrease","inputs":[{"name":"_chainId","type":"uint256","internalType":"uint256"},{"name":"_assetId","type":"bytes32","internalType":"bytes32"},{"name":"_amount","type":"uint256","internalType":"uint256"},{"name":"","type":"bool","internalType":"bool"}],"outputs":[],"stateMutability":"nonpayable"},{"type":"function","name":"initialize","inputs":[],"outputs":[],"stateMutability":"nonpayable"},{"type":"function","name":"isMinterChain","inputs":[{"name":"chainId","type":"uint256","internalType":"uint256"},{"name":"assetId","type":"bytes32","internalType":"bytes32"}],"outputs":[{"name":"isMinter","type":"bool","internalType":"bool"}],"stateMutability":"view"},{"type":"function","name":"numberOfSettlingMintingChains","inputs":[{"name":"assetId","type":"bytes32","internalType":"bytes32"}],"outputs":[{"name":"numberOfSettlingMintingChains","type":"uint256","internalType":"uint256"}],"stateMutability":"view"},{"type":"function","name":"originChainId","inputs":[{"name":"assetId","type":"bytes32","internalType":"bytes32"}],"outputs":[{"name":"originChainId","type":"uint256","internalType":"uint256"}],"stateMutability":"view"},{"type":"function","name":"owner","inputs":[],"outputs":[{"name":"","type":"address","internalType":"address"}],"stateMutability":"view"},{"type":"function","name":"parseInteropBundle","inputs":[{"name":"_bundleData","type":"bytes","internalType":"bytes"}],"outputs":[{"name":"interopBundle","type":"tuple","internalType":"struct InteropBundle","components":[{"name":"destinationChainId","type":"uint256","internalType":"uint256"},{"name":"calls","type":"tuple[]","internalType":"struct InteropCall[]","components":[{"name":"directCall","type":"bool","internalType":"bool"},{"name":"to","type":"address","internalType":"address"},{"name":"from","type":"address","internalType":"address"},{"name":"value","type":"uint256","internalType":"uint256"},{"name":"data","type":"bytes","internalType":"bytes"}]},{"name":"executionAddress","type":"address","internalType":"address"}]}],"stateMutability":"pure"},{"type":"function","name":"parseInteropCall","inputs":[{"name":"_callData","type":"bytes","internalType":"bytes"}],"outputs":[{"name":"fromChainId","type":"uint256","internalType":"uint256"},{"name":"assetId","type":"bytes32","internalType":"bytes32"},{"name":"transferData","type":"bytes","internalType":"bytes"}],"stateMutability":"pure"},{"type":"function","name":"parseTokenData","inputs":[{"name":"_tokenData","type":"bytes","internalType":"bytes"}],"outputs":[{"name":"originChainId","type":"uint256","internalType":"uint256"},{"name":"name","type":"bytes","internalType":"bytes"},{"name":"symbol","type":"bytes","internalType":"bytes"},{"name":"decimals","type":"bytes","internalType":"bytes"}],"stateMutability":"pure"},{"type":"function","name":"pendingOwner","inputs":[],"outputs":[{"name":"","type":"address","internalType":"address"}],"stateMutability":"view"},{"type":"function","name":"processLogsAndMessages","inputs":[{"name":"_processLogsInputs","type":"tuple","internalType":"struct ProcessLogsInput","components":[{"name":"logs","type":"tuple[]","internalType":"struct L2Log[]","components":[{"name":"l2ShardId","type":"uint8","internalType":"uint8"},{"name":"isService","type":"bool","internalType":"bool"},{"name":"txNumberInBatch","type":"uint16","internalType":"uint16"},{"name":"sender","type":"address","internalType":"address"},{"name":"key","type":"bytes32","internalType":"bytes32"},{"name":"value","type":"bytes32","internalType":"bytes32"}]},{"name":"messages","type":"bytes[]","internalType":"bytes[]"},{"name":"chainId","type":"uint256","internalType":"uint256"},{"name":"batchNumber","type":"uint256","internalType":"uint256"},{"name":"chainBatchRoot","type":"bytes32","internalType":"bytes32"},{"name":"messageRoot","type":"bytes32","internalType":"bytes32"}]}],"outputs":[],"stateMutability":"nonpayable"},{"type":"function","name":"renounceOwnership","inputs":[],"outputs":[],"stateMutability":"nonpayable"},{"type":"function","name":"transferOwnership","inputs":[{"name":"newOwner","type":"address","internalType":"address"}],"outputs":[],"stateMutability":"nonpayable"},{"type":"event","name":"BridgeBurn","inputs":[{"name":"chainId","type":"uint256","indexed":true,"internalType":"uint256"},{"name":"assetId","type":"bytes32","indexed":true,"internalType":"bytes32"},{"name":"sender","type":"address","indexed":true,"internalType":"address"},{"name":"receiver","type":"address","indexed":false,"internalType":"address"},{"name":"amount","type":"uint256","indexed":false,"internalType":"uint256"}],"anonymous":false},{"type":"event","name":"BridgeMint","inputs":[{"name":"chainId","type":"uint256","indexed":true,"internalType":"uint256"},{"name":"assetId","type":"bytes32","indexed":true,"internalType":"bytes32"},{"name":"receiver","type":"address","indexed":false,"internalType":"address"},{"name":"amount","type":"uint256","indexed":false,"internalType":"uint256"}],"anonymous":false},{"type":"event","name":"Initialized","inputs":[{"name":"version","type":"uint8","indexed":false,"internalType":"uint8"}],"anonymous":false},{"type":"event","name":"OwnershipTransferStarted","inputs":[{"name":"previousOwner","type":"address","indexed":true,"internalType":"address"},{"name":"newOwner","type":"address","indexed":true,"internalType":"address"}],"anonymous":false},{"type":"event","name":"OwnershipTransferred","inputs":[{"name":"previousOwner","type":"address","indexed":true,"internalType":"address"},{"name":"newOwner","type":"address","indexed":true,"internalType":"address"}],"anonymous":false},{"type":"error","name":"AlreadyMigrated","inputs":[]},{"type":"error","name":"InsufficientChainBalanceAssetTracker","inputs":[{"name":"chainId","type":"uint256","internalType":"uint256"},{"name":"assetId","type":"bytes32","internalType":"bytes32"},{"name":"amount","type":"uint256","internalType":"uint256"}]},{"type":"error","name":"InvalidInteropCalldata","inputs":[{"name":"","type":"bytes4","internalType":"bytes4"}]},{"type":"error","name":"InvalidMessage","inputs":[]},{"type":"error","name":"NonEmptyMsgValue","inputs":[]},{"type":"error","name":"NotCurrentSettlementLayer","inputs":[]},{"type":"error","name":"ReconstructionMismatch","inputs":[{"name":"","type":"bytes32","internalType":"bytes32"},{"name":"","type":"bytes32","internalType":"bytes32"}]},{"type":"error","name":"SLNotWhitelisted","inputs":[]},{"type":"error","name":"Unauthorized","inputs":[{"name":"caller","type":"address","internalType":"address"}]},{"type":"error","name":"UnsupportedEncodingVersion","inputs":[]}],"bytecode":{"object":"0x610120604052348015610010575f5ffd5b506040516134c33803806134c383398101604081905261002f91610073565b6080949094526001600160a01b0392831660a05290821660c052811660e05216610100526100cd565b80516001600160a01b038116811461006e575f5ffd5b919050565b5f5f5f5f5f60a08688031215610087575f5ffd5b8551945061009760208701610058565b93506100a560408701610058565b92506100b360608701610058565b91506100c160808701610058565b90509295509295909350565b60805160a05160c05160e0516101005161336561015e5f395f81816101f2015261218501525f61036801525f81816104d0015281816108d50152610b5501525f818161039b015281816105f30152818161077d01528181610bdd01528181610cea01528181610efc0152610fb901525f818161024a015281816109fc01528181610e7a01526110ee01526133655ff3fe608060405260043610610183575f3560e01c806365ed9912116100d15780639e90b3181161007c578063e7ca858911610057578063e7ca85891461051c578063e8eedb621461053b578063f2fde38b14610569575f5ffd5b80639e90b31814610494578063c6a70bbb146104bf578063e30c3978146104f2575f5ffd5b806379ba5097116100ac57806379ba50971461044b5780638129fc1c1461045f5780638da5cb5b1461046a575f5ffd5b806365ed9912146103e8578063699b0fb914610417578063715018a614610437575f5ffd5b806336ba0355116101315780635aa6fa1f1161010c5780635aa6fa1f146103575780635d4edca71461038a5780635f3455b5146103bd575f5ffd5b806336ba0355146102cf5780634f312ecf146102e257806351f89b161461032b575f5ffd5b80632f90b184116101615780632f90b18414610239578063307bf32c1461027a5780633345359b14610299575f5ffd5b80630f1360aa146101875780632576f9e7146101c057806326ce0686146101e1575b5f5ffd5b348015610192575f5ffd5b506101a66101a136600461226c565b610588565b604080519283526020830191909152015b60405180910390f35b3480156101cb575f5ffd5b506101df6101da366004612290565b6105c2565b005b3480156101ec575f5ffd5b506102147f000000000000000000000000000000000000000000000000000000000000000081565b60405173ffffffffffffffffffffffffffffffffffffffff90911681526020016101b7565b348015610244575f5ffd5b5061026c7f000000000000000000000000000000000000000000000000000000000000000081565b6040519081526020016101b7565b348015610285575f5ffd5b506101df610294366004612290565b61074c565b3480156102a4575f5ffd5b5061026c6102b33660046122ce565b609760209081525f928352604080842090915290825290205481565b6101df6102dd36600461232c565b610884565b3480156102ed575f5ffd5b5061031b6102fc3660046122ce565b609860209081525f928352604080842090915290825290205460ff1681565b60405190151581526020016101b7565b348015610336575f5ffd5b5061034a61034536600461237b565b610a89565b6040516101b79190612406565b348015610362575f5ffd5b506102147f000000000000000000000000000000000000000000000000000000000000000081565b348015610395575f5ffd5b506102147f000000000000000000000000000000000000000000000000000000000000000081565b3480156103c8575f5ffd5b5061026c6103d736600461226c565b609a6020525f908152604090205481565b3480156103f3575f5ffd5b5061040761040236600461237b565b610ae2565b6040516101b79493929190612520565b61042a61042536600461259a565b610b02565b6040516101b79190612608565b348015610442575f5ffd5b506101df6111a4565b348015610456575f5ffd5b506101df6111b7565b3480156101df575f5ffd5b348015610475575f5ffd5b5060335473ffffffffffffffffffffffffffffffffffffffff16610214565b34801561049f575f5ffd5b5061026c6104ae36600461226c565b60996020525f908152604090205481565b3480156104ca575f5ffd5b506102147f000000000000000000000000000000000000000000000000000000000000000081565b3480156104fd575f5ffd5b5060655473ffffffffffffffffffffffffffffffffffffffff16610214565b348015610527575f5ffd5b506101df61053636600461261a565b61126c565b348015610546575f5ffd5b5061055a61055536600461237b565b611a9f565b6040516101b793929190612651565b348015610574575f5ffd5b506101df610583366004612678565b611acb565b805c5f61059d6105998460016126c0565b5c90565b90506105a9835f611b7b565b6105bd6105b78460016126c0565b5f611b7b565b915091565b6040517f671a7131000000000000000000000000000000000000000000000000000000008152600481018590525f907f000000000000000000000000000000000000000000000000000000000000000073ffffffffffffffffffffffffffffffffffffffff169063671a713190602401602060405180830381865afa15801561064d573d5f5f3e3d5ffd5b505050506040513d601f19601f8201168201806040525081019061067191906126d3565b90505f4682146106815781610683565b855b5f81815260986020908152604080832089845290915290205490915060ff16156106ae575050610746565b5f818152609760209081526040808320888452909152902054841115610716576040517fddb749340000000000000000000000000000000000000000000000000000000081526004810182905260248101869052604481018590526064015b60405180910390fd5b5f8181526097602090815260408083208884529091528120805486929061073e9084906126ea565b909155505050505b50505050565b6040517f671a7131000000000000000000000000000000000000000000000000000000008152600481018590525f907f000000000000000000000000000000000000000000000000000000000000000073ffffffffffffffffffffffffffffffffffffffff169063671a713190602401602060405180830381865afa1580156107d7573d5f5f3e3d5ffd5b505050506040513d601f19601f820116820180604052508101906107fb91906126d3565b90505f46821461080b578161080d565b855b9050468214610834576108208686611b7b565b61083461082e8760016126c0565b85611b7b565b5f81815260986020908152604080832088845290915290205460ff1661087c575f8181526097602090815260408083208884529091528120805486929061073e9084906126c0565b505050505050565b3480156108bd576040517f536ec84b00000000000000000000000000000000000000000000000000000000815260040160405180910390fd5b3373ffffffffffffffffffffffffffffffffffffffff7f0000000000000000000000000000000000000000000000000000000000000000161461092e576040517f8e4a23d600000000000000000000000000000000000000000000000000000000815233600482015260240161070d565b5f5f5f5f5f5f61093e8989611b82565b5f86815260976020908152604080832088845290915281208054979d50959b509399509197509550935086926109759084906126c0565b90915550505f868152609860209081526040808320888452909152902080547fffffffffffffffffffffffffffffffffffffffffffffffffffffffffffffff0016841515179055826109c7575f6109ca565b60015b60ff1660995f8781526020019081526020015f205f8282546109ec91906126c0565b909155508390508015610a1e57507f000000000000000000000000000000000000000000000000000000000000000046145b15610a7c5781610a7c575f8b81526098602090815260408083208d8452825280832080547fffffffffffffffffffffffffffffffffffffffffffffffffffffffffffffff001690558d8352609782528083208d845290915290208190555b5050505050505050505050565b610ac160405180606001604052805f8152602001606081526020015f73ffffffffffffffffffffffffffffffffffffffff1681525090565b610ace82600181866126fd565b810190610adb91906128c9565b9392505050565b5f6060806060610af28686611ba9565b9299919850965090945092505050565b6060348015610b3d576040517f536ec84b00000000000000000000000000000000000000000000000000000000815260040160405180910390fd5b3373ffffffffffffffffffffffffffffffffffffffff7f00000000000000000000000000000000000000000000000000000000000000001614610bae576040517f8e4a23d600000000000000000000000000000000000000000000000000000000815233600482015260240161070d565b6040517fe9420f8c000000000000000000000000000000000000000000000000000000008152600481018990527f000000000000000000000000000000000000000000000000000000000000000073ffffffffffffffffffffffffffffffffffffffff169063e9420f8c90602401602060405180830381865afa158015610c37573d5f5f3e3d5ffd5b505050506040513d601f19601f82011682018060405250810190610c5b9190612a62565b610c91576040517f90c7cbf100000000000000000000000000000000000000000000000000000000815260040160405180910390fd5b5f80610c9f858701876122ce565b6040517f671a71310000000000000000000000000000000000000000000000000000000081526004810183905291935091508a9073ffffffffffffffffffffffffffffffffffffffff7f0000000000000000000000000000000000000000000000000000000000000000169063671a713190602401602060405180830381865afa158015610d2f573d5f5f3e3d5ffd5b505050506040513d601f19601f82011682018060405250810190610d5391906126d3565b14610d8a576040517f5e67e79300000000000000000000000000000000000000000000000000000000815260040160405180910390fd5b5f828152609860209081526040808320848452825280832054858452609783528184208585529092529091205460ff9091169080158015610dc9575081155b15610e00576040517fca1c3cbc00000000000000000000000000000000000000000000000000000000815260040160405180910390fd5b5f848152609760209081526040808320868452825280832083905586835260988252808320868452909152812080547fffffffffffffffffffffffffffffffffffffffffffffffffffffffffffffff0016905582156110c8575f8481526099602052604081208054909190610e7490612a7d565b909155507f00000000000000000000000000000000000000000000000000000000000000004603610ee5575f8d8152609860209081526040808320878452909152902080547fffffffffffffffffffffffffffffffffffffffffffffffffffffffffffffff00166001179055611143565b5f8481526099602052604081205490036110c3575f7f000000000000000000000000000000000000000000000000000000000000000073ffffffffffffffffffffffffffffffffffffffff166368b8d3316040518163ffffffff1660e01b81526004015f60405180830381865afa158015610f62573d5f5f3e3d5ffd5b505050506040513d5f823e601f3d9081017fffffffffffffffffffffffffffffffffffffffffffffffffffffffffffffffe0168201604052610fa79190810190612ab1565b80519091505f5b818110156110bf57467f000000000000000000000000000000000000000000000000000000000000000073ffffffffffffffffffffffffffffffffffffffff1663671a713185848151811061100557611005612b42565b60200260200101516040518263ffffffff1660e01b815260040161102b91815260200190565b602060405180830381865afa158015611046573d5f5f3e3d5ffd5b505050506040513d601f19601f8201168201806040525081019061106a91906126d3565b036110b75760975f84838151811061108457611084612b42565b602002602001015181526020019081526020015f205f8881526020019081526020015f2054846110b491906126c0565b93505b600101610fae565b5050505b611143565b5f8d815260986020908152604080832087845290915290205460ff1615801561111057507f000000000000000000000000000000000000000000000000000000000000000046145b15611143575f8d81526097602090815260408083208784529091528120805484929061113d9084906126c0565b90915550505b5f84815260996020908152604091829020548251918201889052818301879052606082018590528515156080830152151560a082015260c08082018490528251808303909101815260e09091019091529d9c50505050505050505050505050565b6111ac611c97565b6111b55f611d18565b565b606554339073ffffffffffffffffffffffffffffffffffffffff168114611260576040517f08c379a000000000000000000000000000000000000000000000000000000000815260206004820152602960248201527f4f776e61626c6532537465703a2063616c6c6572206973206e6f74207468652060448201527f6e6577206f776e65720000000000000000000000000000000000000000000000606482015260840161070d565b61126981611d18565b50565b6040805160a0810182525f8082528251600f808252610200820190945290928392916020808401929082016101e080368337505050815260408051600f808252610200820190925260209283019290919082016101e08036833750505081525f602082018190526040909101529050611305817f72abee45b59e344af8a6e520241c4744aff26ed411f4c4b00f8af09adada43ba611d49565b505f6113118480612b6f565b91505f90505b818110156119f3575f61132a8680612b6f565b8381811061133a5761133a612b42565b905060c002018036038101906113509190612bd2565b90505f815f015182602001518360400151846060015185608001518660a0015160405160200161141e9695949392919060f896871b7fff0000000000000000000000000000000000000000000000000000000000000016815294151590951b600185015260f09290921b7fffff00000000000000000000000000000000000000000000000000000000000016600284015260601b7fffffffffffffffffffffffffffffffffffffffff0000000000000000000000001660048301526018820152603881019190915260580190565b604080517fffffffffffffffffffffffffffffffffffffffffffffffffffffffffffffffe0818403018152919052805160209091012090506114608582611db0565b5061147090506180006008612c58565b73ffffffffffffffffffffffffffffffffffffffff16826060015173ffffffffffffffffffffffffffffffffffffffff16146114ad5750506119eb565b6114bb62010000600b612c58565b73ffffffffffffffffffffffffffffffffffffffff165f1b8260800151146114ef576114e686612c84565b955050506119eb565b5f6114fd6020890189612cbb565b8881811061150d5761150d612b42565b905060200281019061151f9190612d1f565b8080601f0160208091040260200160405190810160405280939291908181526020018383808284375f920191909152509293506115619250899150612c849050565b965080805190602001208360a00151146115a7576040517f6eca2e4b00000000000000000000000000000000000000000000000000000000815260040160405180910390fd5b80517f01000000000000000000000000000000000000000000000000000000000000009082905f906115db576115db612b42565b01602001517fff00000000000000000000000000000000000000000000000000000000000000161461160f575050506119eb565b6040517f51f89b160000000000000000000000000000000000000000000000000000000081525f9030906351f89b169061164d908590600401612608565b5f60405180830381865afa158015611667573d5f5f3e3d5ffd5b505050506040513d5f823e601f3d9081017fffffffffffffffffffffffffffffffffffffffffffffffffffffffffffffffe01682016040526116ac9190810190612dd8565b90505f81602001515f815181106116c5576116c5612b42565b602002602001015190505f82602001515190505f600190505b818110156119e357836020015181815181106116fc576116fc612b42565b602002602001015192506201000060036117169190612c58565b73ffffffffffffffffffffffffffffffffffffffff16836040015173ffffffffffffffffffffffffffffffffffffffff16036119db5760808301517f9c884fd1000000000000000000000000000000000000000000000000000000009061177c90612f64565b7fffffffff0000000000000000000000000000000000000000000000000000000016146118085782608001516117b190612f64565b6040517f075aaa800000000000000000000000000000000000000000000000000000000081527fffffffff00000000000000000000000000000000000000000000000000000000909116600482015260240161070d565b60808301516040517fe8eedb620000000000000000000000000000000000000000000000000000000081525f9182918291309163e8eedb629161184d91600401612608565b5f60405180830381865afa158015611867573d5f5f3e3d5ffd5b505050506040513d5f823e601f3d9081017fffffffffffffffffffffffffffffffffffffffffffffffffffffffffffffffe01682016040526118ac9190810190612fd0565b9250925092505f5f6118bd83611fbd565b6040517f65ed991200000000000000000000000000000000000000000000000000000000815291965094505f93503092506365ed99129150611903908590600401612608565b5f60405180830381865afa15801561191d573d5f5f3e3d5ffd5b505050506040513d5f823e601f3d9081017fffffffffffffffffffffffffffffffffffffffffffffffffffffffffffffffe0168201604052611962919081019061301d565b505050905085811461199c575f868152609760209081526040808320888452909152812080548592906119969084906126ea565b90915550505b895181146119d45789515f908152609760209081526040808320888452909152812080548592906119ce9084906126c0565b90915550505b5050505050505b6001016116de565b505050505050505b600101611317565b506119fd82611fe9565b5f611a0783612112565b90505f818660a00135604051602001611a2a929190918252602082015260400190565b60405160208183030381529060405280519060200120905085608001358114611a8c576040517f0a6c1a5c000000000000000000000000000000000000000000000000000000008152600481018290526080870135602482015260440161070d565b61087c8660400135876060013583612148565b5f806060611ab084600481886126fd565b810190611abd91906130b6565b919790965090945092505050565b611ad3611c97565b6065805473ffffffffffffffffffffffffffffffffffffffff83167fffffffffffffffffffffffff00000000000000000000000000000000000000009091168117909155611b3660335473ffffffffffffffffffffffffffffffffffffffff1690565b73ffffffffffffffffffffffffffffffffffffffff167f38d16b8cac22d99fc7c124b9cd0de2d3fa1faef420bfe791d8c362d765e2270060405160405180910390a350565b80825d5050565b5f8080808080611b94878901896130f8565b949d939c50919a509850965090945092505050565b5f60608060605f86865f818110611bc257611bc2612b42565b909101357fff00000000000000000000000000000000000000000000000000000000000000169150819050611c0957611bfd86880188613152565b91955093509150611c8c565b7fff0000000000000000000000000000000000000000000000000000000000000081811601611c5a57611c3f866001818a6126fd565b810190611c4c91906131ca565b945094509450945050611c8e565b6040517f084a144900000000000000000000000000000000000000000000000000000000815260040160405180910390fd5b505b92959194509250565b60335473ffffffffffffffffffffffffffffffffffffffff1633146111b5576040517f08c379a000000000000000000000000000000000000000000000000000000000815260206004820181905260248201527f4f776e61626c653a2063616c6c6572206973206e6f7420746865206f776e6572604482015260640161070d565b606580547fffffffffffffffffffffffff0000000000000000000000000000000000000000169055611269816121f6565b5f808352604083015180518391908390611d6557611d65612b42565b60200260200101818152505060018360800181815250505f5f1b83602001515f81518110611d9557611d95612b42565b602090810291909101015250600160608301525f5b92915050565b5f5f5f60018560800151611dc491906126ea565b855190915085611dd382612c84565b905292506001811b8303611e99575f85604001518281518110611df857611df8612b42565b602002602001015190505f611e1682835f9182526020526040902090565b9050808760400151886080015181518110611e3357611e33612b42565b602002602001018181525050866080018051611e4e90612c84565b90526020870151606088015181515f9291908110611e6e57611e6e612b42565b602002602001018181525050866060018051611e8990612c84565b9052611e9483612c84565b925050505b82845f805b848163ffffffff161015611f8d575f611eb8600286613256565b159050808015611ec6575082155b15611ef957838a602001518363ffffffff1681518110611ee857611ee8612b42565b602002602001018181525050600192505b611f7281611f2a578a602001518363ffffffff1681518110611f1d57611f1d612b42565b6020026020010151611f2c565b845b82611f4057855f9182526020526040902090565b8b604001518463ffffffff1681518110611f5c57611f5c612b42565b60200260200101515f9182526020526040902090565b9350600185901c94505080611f869061328e565b9050611e9e565b508188602001518581518110611fa557611fa5612b42565b602090810291909101015250925050505b9250929050565b5f5f5f5f606085806020019051810190611fd791906132b2565b939a9299509097509550909350915050565b5f81604001516001836080015161200091906126ea565b8151811061201057612010612b42565b60200260200101519050815f01515f03612048578082602001515f8151811061203b5761203b612b42565b6020026020010181815250505b5f82602001516001846060015161205f91906126ea565b8151811061206f5761206f612b42565b602002602001015190505f83602001515190505f846060015190505b818110156120f5575f928352602084905260408084208585529320935083856040015182815181106120bf576120bf612b42565b60200260200101818152505082856020015182815181106120e2576120e2612b42565b602090810291909101015260010161208b565b505050602082015151606083015250604081015151608090910152565b5f81602001516001836060015161212991906126ea565b8151811061213957612139612b42565b60200260200101519050919050565b6040517ffb644fc50000000000000000000000000000000000000000000000000000000081526004810184905260248101839052604481018290527f000000000000000000000000000000000000000000000000000000000000000073ffffffffffffffffffffffffffffffffffffffff169063fb644fc5906064015f604051808303815f87803b1580156121db575f5ffd5b505af11580156121ed573d5f5f3e3d5ffd5b50505050505050565b6033805473ffffffffffffffffffffffffffffffffffffffff8381167fffffffffffffffffffffffff0000000000000000000000000000000000000000831681179093556040519116919082907f8be0079c531659141344cd1fd0a4f28419497f9722a3daafe3b4186f6b6457e0905f90a35050565b5f6020828403121561227c575f5ffd5b5035919050565b8015158114611269575f5ffd5b5f5f5f5f608085870312156122a3575f5ffd5b84359350602085013592506040850135915060608501356122c381612283565b939692955090935050565b5f5f604083850312156122df575f5ffd5b50508035926020909101359150565b5f5f83601f8401126122fe575f5ffd5b50813567ffffffffffffffff811115612315575f5ffd5b602083019150836020828501011115611fb6575f5ffd5b5f5f5f5f6060858703121561233f575f5ffd5b8435935060208501359250604085013567ffffffffffffffff811115612363575f5ffd5b61236f878288016122ee565b95989497509550505050565b5f5f6020838503121561238c575f5ffd5b823567ffffffffffffffff8111156123a2575f5ffd5b6123ae858286016122ee565b90969095509350505050565b5f81518084528060208401602086015e5f6020828601015260207fffffffffffffffffffffffffffffffffffffffffffffffffffffffffffffffe0601f83011685010191505092915050565b602081525f608082018351602084015260208401516060604085015281815180845260a08601915060a08160051b87010193506020830192505f5b818110156124f3577fffffffffffffffffffffffffffffffffffffffffffffffffffffffffffffff60878603018352835180511515865273ffffffffffffffffffffffffffffffffffffffff602082015116602087015273ffffffffffffffffffffffffffffffffffffffff6040820151166040870152606081015160608701526080810151905060a060808701526124dd60a08701826123ba565b9550506020938401939290920191600101612441565b50505050604084015173ffffffffffffffffffffffffffffffffffffffff81166060850152509392505050565b848152608060208201525f61253860808301866123ba565b828103604084015261254a81866123ba565b9050828103606084015261255e81856123ba565b979650505050505050565b73ffffffffffffffffffffffffffffffffffffffff81168114611269575f5ffd5b803561259581612569565b919050565b5f5f5f5f5f5f60a087890312156125af575f5ffd5b86359550602087013594506040870135935060608701356125cf81612569565b9250608087013567ffffffffffffffff8111156125ea575f5ffd5b6125f689828a016122ee565b979a9699509497509295939492505050565b602081525f610adb60208301846123ba565b5f6020828403121561262a575f5ffd5b813567ffffffffffffffff811115612640575f5ffd5b820160c08185031215610adb575f5ffd5b838152826020820152606060408201525f61266f60608301846123ba565b95945050505050565b5f60208284031215612688575f5ffd5b8135610adb81612569565b7f4e487b71000000000000000000000000000000000000000000000000000000005f52601160045260245ffd5b80820180821115611daa57611daa612693565b5f602082840312156126e3575f5ffd5b5051919050565b81810381811115611daa57611daa612693565b5f5f8585111561270b575f5ffd5b83861115612717575f5ffd5b5050820193919092039150565b7f4e487b71000000000000000000000000000000000000000000000000000000005f52604160045260245ffd5b6040516060810167ffffffffffffffff8111828210171561277457612774612724565b60405290565b60405160a0810167ffffffffffffffff8111828210171561277457612774612724565b60405160c0810167ffffffffffffffff8111828210171561277457612774612724565b604051601f82017fffffffffffffffffffffffffffffffffffffffffffffffffffffffffffffffe016810167ffffffffffffffff8111828210171561280757612807612724565b604052919050565b5f67ffffffffffffffff82111561282857612828612724565b5060051b60200190565b5f67ffffffffffffffff82111561284b5761284b612724565b50601f017fffffffffffffffffffffffffffffffffffffffffffffffffffffffffffffffe01660200190565b5f82601f830112612886575f5ffd5b813561289961289482612832565b6127c0565b8181528460208386010111156128ad575f5ffd5b816020850160208301375f918101602001919091529392505050565b5f602082840312156128d9575f5ffd5b813567ffffffffffffffff8111156128ef575f5ffd5b820160608185031215612900575f5ffd5b612908612751565b81358152602082013567ffffffffffffffff811115612925575f5ffd5b8201601f81018613612935575f5ffd5b80356129436128948261280f565b8082825260208201915060208360051b850101925088831115612964575f5ffd5b602084015b83811015612a3f57803567ffffffffffffffff811115612987575f5ffd5b850160a0818c037fffffffffffffffffffffffffffffffffffffffffffffffffffffffffffffffe00112156129ba575f5ffd5b6129c261277a565b60208201356129d081612283565b815260408201356129e081612569565b602082015260608201356129f381612569565b60408201526080820135606082015260a082013567ffffffffffffffff811115612a1b575f5ffd5b612a2a8d602083860101612877565b60808301525084525060209283019201612969565b50602085015250612a559150506040830161258a565b6040820152949350505050565b5f60208284031215612a72575f5ffd5b8151610adb81612283565b5f81612a8b57612a8b612693565b507fffffffffffffffffffffffffffffffffffffffffffffffffffffffffffffffff0190565b5f60208284031215612ac1575f5ffd5b815167ffffffffffffffff811115612ad7575f5ffd5b8201601f81018413612ae7575f5ffd5b8051612af56128948261280f565b8082825260208201915060208360051b850101925086831115612b16575f5ffd5b6020840193505b82841015612b38578351825260209384019390910190612b1d565b9695505050505050565b7f4e487b71000000000000000000000000000000000000000000000000000000005f52603260045260245ffd5b5f5f83357fffffffffffffffffffffffffffffffffffffffffffffffffffffffffffffffe1843603018112612ba2575f5ffd5b83018035915067ffffffffffffffff821115612bbc575f5ffd5b602001915060c081023603821315611fb6575f5ffd5b5f60c0828403128015612be3575f5ffd5b50612bec61279d565b823560ff81168114612bfc575f5ffd5b81526020830135612c0c81612283565b6020820152604083013561ffff81168114612c25575f5ffd5b6040820152612c366060840161258a565b60608201526080838101359082015260a0928301359281019290925250919050565b73ffffffffffffffffffffffffffffffffffffffff8181168382160190811115611daa57611daa612693565b5f7fffffffffffffffffffffffffffffffffffffffffffffffffffffffffffffffff8203612cb457612cb4612693565b5060010190565b5f5f83357fffffffffffffffffffffffffffffffffffffffffffffffffffffffffffffffe1843603018112612cee575f5ffd5b83018035915067ffffffffffffffff821115612d08575f5ffd5b6020019150600581901b3603821315611fb6575f5ffd5b5f5f83357fffffffffffffffffffffffffffffffffffffffffffffffffffffffffffffffe1843603018112612d52575f5ffd5b83018035915067ffffffffffffffff821115612d6c575f5ffd5b602001915036819003821315611fb6575f5ffd5b805161259581612569565b5f82601f830112612d9a575f5ffd5b8151612da861289482612832565b818152846020838601011115612dbc575f5ffd5b8160208501602083015e5f918101602001919091529392505050565b5f60208284031215612de8575f5ffd5b815167ffffffffffffffff811115612dfe575f5ffd5b820160608185031215612e0f575f5ffd5b612e17612751565b81518152602082015167ffffffffffffffff811115612e34575f5ffd5b8201601f81018613612e44575f5ffd5b8051612e526128948261280f565b8082825260208201915060208360051b850101925088831115612e73575f5ffd5b602084015b83811015612f4e57805167ffffffffffffffff811115612e96575f5ffd5b850160a0818c037fffffffffffffffffffffffffffffffffffffffffffffffffffffffffffffffe0011215612ec9575f5ffd5b612ed161277a565b6020820151612edf81612283565b81526040820151612eef81612569565b60208201526060820151612f0281612569565b60408201526080820151606082015260a082015167ffffffffffffffff811115612f2a575f5ffd5b612f398d602083860101612d8b565b60808301525084525060209283019201612e78565b50602085015250612a5591505060408301612d80565b805160208201517fffffffff00000000000000000000000000000000000000000000000000000000811691906004821015612fc9577fffffffff00000000000000000000000000000000000000000000000000000000808360040360031b1b82161692505b5050919050565b5f5f5f60608486031215612fe2575f5ffd5b835160208501516040860151919450925067ffffffffffffffff811115613007575f5ffd5b61301386828701612d8b565b9150509250925092565b5f5f5f5f60808587031215613030575f5ffd5b8451602086015190945067ffffffffffffffff81111561304e575f5ffd5b61305a87828801612d8b565b935050604085015167ffffffffffffffff811115613076575f5ffd5b61308287828801612d8b565b925050606085015167ffffffffffffffff81111561309e575f5ffd5b6130aa87828801612d8b565b91505092959194509250565b5f5f5f606084860312156130c8575f5ffd5b8335925060208401359150604084013567ffffffffffffffff8111156130ec575f5ffd5b61301386828701612877565b5f5f5f5f5f5f60c0878903121561310d575f5ffd5b863595506020870135945060408701359350606087013561312d81612283565b9250608087013561313d81612283565b9598949750929591949360a090920135925050565b5f5f5f60608486031215613164575f5ffd5b833567ffffffffffffffff81111561317a575f5ffd5b61318686828701612877565b935050602084013567ffffffffffffffff8111156131a2575f5ffd5b6131ae86828701612877565b925050604084013567ffffffffffffffff8111156130ec575f5ffd5b5f5f5f5f608085870312156131dd575f5ffd5b84359350602085013567ffffffffffffffff8111156131fa575f5ffd5b61320687828801612877565b935050604085013567ffffffffffffffff811115613222575f5ffd5b61322e87828801612877565b925050606085013567ffffffffffffffff81111561324a575f5ffd5b6130aa87828801612877565b5f82613289577f4e487b71000000000000000000000000000000000000000000000000000000005f52601260045260245ffd5b500690565b5f63ffffffff821663ffffffff81036132a9576132a9612693565b60010192915050565b5f5f5f5f5f60a086880312156132c6575f5ffd5b85516132d181612569565b60208701519095506132e281612569565b60408701519094506132f381612569565b60608701516080880151919450925067ffffffffffffffff811115613316575f5ffd5b61332288828901612d8b565b915050929550929590935056fea2646970667358221220da2ca4cad68402807e61619a93f0fcc18037271bcb1f9833bee5e51e0622e0ff64736f6c634300081c0033","linkReferences":{}},"methodIdentifiers":{"ASSET_ROUTER()":"c6a70bbb","BRIDGE_HUB()":"5d4edca7","L1_CHAIN_ID()":"2f90b184","MESSAGE_ROOT()":"26ce0686","NATIVE_TOKEN_VAULT()":"5aa6fa1f","acceptOwnership()":"79ba5097","bridgeBurn(uint256,uint256,bytes32,address,bytes)":"699b0fb9","bridgeMint(uint256,bytes32,bytes)":"36ba0355","chainBalance(uint256,bytes32)":"3345359b","getBalanceChange(uint256)":"0f1360aa","handleChainBalanceDecrease(uint256,bytes32,uint256,bool)":"2576f9e7","handleChainBalanceIncrease(uint256,bytes32,uint256,bool)":"307bf32c","initialize()":"8129fc1c","isMinterChain(uint256,bytes32)":"4f312ecf","numberOfSettlingMintingChains(bytes32)":"9e90b318","originChainId(bytes32)":"5f3455b5","owner()":"8da5cb5b","parseInteropBundle(bytes)":"51f89b16","parseInteropCall(bytes)":"e8eedb62","parseTokenData(bytes)":"65ed9912","pendingOwner()":"e30c3978","processLogsAndMessages(((uint8,bool,uint16,address,bytes32,bytes32)[],bytes[],uint256,uint256,bytes32,bytes32))":"e7ca8589","renounceOwnership()":"715018a6","transferOwnership(address)":"f2fde38b"},"id":14}