{"abi":[{"type":"constructor","inputs":[{"name":"_l1ChainId","type":"uint256","internalType":"uint256"},{"name":"_owner","type":"address","internalType":"address"},{"name":"_maxNumberOfZKChains","type":"uint256","internalType":"uint256"}],"stateMutability":"nonpayable"},{"type":"function","name":"L1_CHAIN_ID","inputs":[],"outputs":[{"name":"","type":"uint256","internalType":"uint256"}],"stateMutability":"view"},{"type":"function","name":"MAX_NUMBER_OF_ZK_CHAINS","inputs":[],"outputs":[{"name":"","type":"uint256","internalType":"uint256"}],"stateMutability":"view"},{"type":"function","name":"acceptAdmin","inputs":[],"outputs":[],"stateMutability":"nonpayable"},{"type":"function","name":"acceptOwnership","inputs":[],"outputs":[],"stateMutability":"nonpayable"},{"type":"function","name":"addChainTypeManager","inputs":[{"name":"_chainTypeManager","type":"address","internalType":"address"}],"outputs":[],"stateMutability":"nonpayable"},{"type":"function","name":"addTokenAssetId","inputs":[{"name":"_baseTokenAssetId","type":"bytes32","internalType":"bytes32"}],"outputs":[],"stateMutability":"nonpayable"},{"type":"function","name":"admin","inputs":[],"outputs":[{"name":"","type":"address","internalType":"address"}],"stateMutability":"view"},{"type":"function","name":"assetIdIsRegistered","inputs":[{"name":"baseTokenAssetId","type":"bytes32","internalType":"bytes32"}],"outputs":[{"name":"","type":"bool","internalType":"bool"}],"stateMutability":"view"},{"type":"function","name":"assetRouter","inputs":[],"outputs":[{"name":"","type":"address","internalType":"address"}],"stateMutability":"view"},{"type":"function","name":"baseToken","inputs":[{"name":"_chainId","type":"uint256","internalType":"uint256"}],"outputs":[{"name":"","type":"address","internalType":"address"}],"stateMutability":"view"},{"type":"function","name":"baseTokenAssetId","inputs":[{"name":"chainId","type":"uint256","internalType":"uint256"}],"outputs":[{"name":"","type":"bytes32","internalType":"bytes32"}],"stateMutability":"view"},{"type":"function","name":"chainAssetHandler","inputs":[],"outputs":[{"name":"","type":"address","internalType":"address"}],"stateMutability":"view"},{"type":"function","name":"chainTypeManager","inputs":[{"name":"chainId","type":"uint256","internalType":"uint256"}],"outputs":[{"name":"","type":"address","internalType":"address"}],"stateMutability":"view"},{"type":"function","name":"chainTypeManagerIsRegistered","inputs":[{"name":"chainTypeManager","type":"address","internalType":"address"}],"outputs":[{"name":"","type":"bool","internalType":"bool"}],"stateMutability":"view"},{"type":"function","name":"createNewChain","inputs":[{"name":"_chainId","type":"uint256","internalType":"uint256"},{"name":"_chainTypeManager","type":"address","internalType":"address"},{"name":"_baseTokenAssetId","type":"bytes32","internalType":"bytes32"},{"name":"_salt","type":"uint256","internalType":"uint256"},{"name":"_admin","type":"address","internalType":"address"},{"name":"_initData","type":"bytes","internalType":"bytes"},{"name":"_factoryDeps","type":"bytes[]","internalType":"bytes[]"}],"outputs":[{"name":"","type":"uint256","internalType":"uint256"}],"stateMutability":"nonpayable"},{"type":"function","name":"ctmAssetIdFromAddress","inputs":[{"name":"ctmAddress","type":"address","internalType":"address"}],"outputs":[{"name":"ctmAssetId","type":"bytes32","internalType":"bytes32"}],"stateMutability":"view"},{"type":"function","name":"ctmAssetIdFromChainId","inputs":[{"name":"_chainId","type":"uint256","internalType":"uint256"}],"outputs":[{"name":"","type":"bytes32","internalType":"bytes32"}],"stateMutability":"view"},{"type":"function","name":"ctmAssetIdToAddress","inputs":[{"name":"ctmAssetId","type":"bytes32","internalType":"bytes32"}],"outputs":[{"name":"ctmAddress","type":"address","internalType":"address"}],"stateMutability":"view"},{"type":"function","name":"forwardTransactionOnGateway","inputs":[{"name":"_chainId","type":"uint256","internalType":"uint256"},{"name":"_canonicalTxHash","type":"bytes32","internalType":"bytes32"},{"name":"_expirationTimestamp","type":"uint64","internalType":"uint64"}],"outputs":[],"stateMutability":"nonpayable"},{"type":"function","name":"forwardedBridgeBurnSetSettlementLayer","inputs":[{"name":"_chainId","type":"uint256","internalType":"uint256"},{"name":"_newSettlementLayerChainId","type":"uint256","internalType":"uint256"}],"outputs":[{"name":"zkChain","type":"address","internalType":"address"},{"name":"ctm","type":"address","internalType":"address"}],"stateMutability":"nonpayable"},{"type":"function","name":"forwardedBridgeMint","inputs":[{"name":"_assetId","type":"bytes32","internalType":"bytes32"},{"name":"_chainId","type":"uint256","internalType":"uint256"},{"name":"_baseTokenAssetId","type":"bytes32","internalType":"bytes32"}],"outputs":[{"name":"zkChain","type":"address","internalType":"address"},{"name":"ctm","type":"address","internalType":"address"}],"stateMutability":"nonpayable"},{"type":"function","name":"forwardedBridgeRecoverFailedTransfer","inputs":[{"name":"_chainId","type":"uint256","internalType":"uint256"}],"outputs":[{"name":"zkChain","type":"address","internalType":"address"},{"name":"ctm","type":"address","internalType":"address"}],"stateMutability":"nonpayable"},{"type":"function","name":"getAllZKChainChainIDs","inputs":[],"outputs":[{"name":"","type":"uint256[]","internalType":"uint256[]"}],"stateMutability":"view"},{"type":"function","name":"getAllZKChains","inputs":[],"outputs":[{"name":"chainAddresses","type":"address[]","internalType":"address[]"}],"stateMutability":"view"},{"type":"function","name":"getHyperchain","inputs":[{"name":"_chainId","type":"uint256","internalType":"uint256"}],"outputs":[{"name":"","type":"address","internalType":"address"}],"stateMutability":"view"},{"type":"function","name":"getZKChain","inputs":[{"name":"_chainId","type":"uint256","internalType":"uint256"}],"outputs":[{"name":"chainAddress","type":"address","internalType":"address"}],"stateMutability":"view"},{"type":"function","name":"initialize","inputs":[{"name":"_owner","type":"address","internalType":"address"}],"outputs":[],"stateMutability":"nonpayable"},{"type":"function","name":"initializeV2","inputs":[],"outputs":[],"stateMutability":"nonpayable"},{"type":"function","name":"interopCenter","inputs":[],"outputs":[{"name":"","type":"address","internalType":"contract IInteropCenter"}],"stateMutability":"view"},{"type":"function","name":"l1CtmDeployer","inputs":[],"outputs":[{"name":"","type":"address","internalType":"contract ICTMDeploymentTracker"}],"stateMutability":"view"},{"type":"function","name":"l2TransactionBaseCost","inputs":[{"name":"_chainId","type":"uint256","internalType":"uint256"},{"name":"_gasPrice","type":"uint256","internalType":"uint256"},{"name":"_l2GasLimit","type":"uint256","internalType":"uint256"},{"name":"_l2GasPerPubdataByteLimit","type":"uint256","internalType":"uint256"}],"outputs":[{"name":"","type":"uint256","internalType":"uint256"}],"stateMutability":"view"},{"type":"function","name":"messageRoot","inputs":[],"outputs":[{"name":"","type":"address","internalType":"contract IMessageRoot"}],"stateMutability":"view"},{"type":"function","name":"migrationPaused","inputs":[],"outputs":[{"name":"","type":"bool","internalType":"bool"}],"stateMutability":"view"},{"type":"function","name":"owner","inputs":[],"outputs":[{"name":"","type":"address","internalType":"address"}],"stateMutability":"view"},{"type":"function","name":"pause","inputs":[],"outputs":[],"stateMutability":"nonpayable"},{"type":"function","name":"pauseMigration","inputs":[],"outputs":[],"stateMutability":"nonpayable"},{"type":"function","name":"paused","inputs":[],"outputs":[{"name":"","type":"bool","internalType":"bool"}],"stateMutability":"view"},{"type":"function","name":"pendingOwner","inputs":[],"outputs":[{"name":"","type":"address","internalType":"address"}],"stateMutability":"view"},{"type":"function","name":"proveL1ToL2TransactionStatus","inputs":[{"name":"_chainId","type":"uint256","internalType":"uint256"},{"name":"_l2TxHash","type":"bytes32","internalType":"bytes32"},{"name":"_l2BatchNumber","type":"uint256","internalType":"uint256"},{"name":"_l2MessageIndex","type":"uint256","internalType":"uint256"},{"name":"_l2TxNumberInBatch","type":"uint16","internalType":"uint16"},{"name":"_merkleProof","type":"bytes32[]","internalType":"bytes32[]"},{"name":"_status","type":"uint8","internalType":"enum TxStatus"}],"outputs":[{"name":"","type":"bool","internalType":"bool"}],"stateMutability":"view"},{"type":"function","name":"proveL2LogInclusion","inputs":[{"name":"_chainId","type":"uint256","internalType":"uint256"},{"name":"_batchNumber","type":"uint256","internalType":"uint256"},{"name":"_index","type":"uint256","internalType":"uint256"},{"name":"_log","type":"tuple","internalType":"struct L2Log","components":[{"name":"l2ShardId","type":"uint8","internalType":"uint8"},{"name":"isService","type":"bool","internalType":"bool"},{"name":"txNumberInBatch","type":"uint16","internalType":"uint16"},{"name":"sender","type":"address","internalType":"address"},{"name":"key","type":"bytes32","internalType":"bytes32"},{"name":"value","type":"bytes32","internalType":"bytes32"}]},{"name":"_proof","type":"bytes32[]","internalType":"bytes32[]"}],"outputs":[{"name":"","type":"bool","internalType":"bool"}],"stateMutability":"view"},{"type":"function","name":"proveL2MessageInclusion","inputs":[{"name":"_chainId","type":"uint256","internalType":"uint256"},{"name":"_batchNumber","type":"uint256","internalType":"uint256"},{"name":"_index","type":"uint256","internalType":"uint256"},{"name":"_message","type":"tuple","internalType":"struct L2Message","components":[{"name":"txNumberInBatch","type":"uint16","internalType":"uint16"},{"name":"sender","type":"address","internalType":"address"},{"name":"data","type":"bytes","internalType":"bytes"}]},{"name":"_proof","type":"bytes32[]","internalType":"bytes32[]"}],"outputs":[{"name":"","type":"bool","internalType":"bool"}],"stateMutability":"view"},{"type":"function","name":"registerAlreadyDeployedZKChain","inputs":[{"name":"_chainId","type":"uint256","internalType":"uint256"},{"name":"_zkChain","type":"address","internalType":"address"}],"outputs":[],"stateMutability":"nonpayable"},{"type":"function","name":"registerLegacyChain","inputs":[{"name":"_chainId","type":"uint256","internalType":"uint256"}],"outputs":[],"stateMutability":"nonpayable"},{"type":"function","name":"registerNewZKChain","inputs":[{"name":"_chainId","type":"uint256","internalType":"uint256"},{"name":"_zkChain","type":"address","internalType":"address"},{"name":"_checkMaxNumberOfZKChains","type":"bool","internalType":"bool"}],"outputs":[],"stateMutability":"nonpayable"},{"type":"function","name":"registerSettlementLayer","inputs":[{"name":"_newSettlementLayerChainId","type":"uint256","internalType":"uint256"},{"name":"_isWhitelisted","type":"bool","internalType":"bool"}],"outputs":[],"stateMutability":"nonpayable"},{"type":"function","name":"removeChainTypeManager","inputs":[{"name":"_chainTypeManager","type":"address","internalType":"address"}],"outputs":[],"stateMutability":"nonpayable"},{"type":"function","name":"renounceOwnership","inputs":[],"outputs":[],"stateMutability":"nonpayable"},{"type":"function","name":"requestL2TransactionDirect","inputs":[{"name":"_request","type":"tuple","internalType":"struct L2TransactionRequestDirect","components":[{"name":"chainId","type":"uint256","internalType":"uint256"},{"name":"mintValue","type":"uint256","internalType":"uint256"},{"name":"l2Contract","type":"address","internalType":"address"},{"name":"l2Value","type":"uint256","internalType":"uint256"},{"name":"l2Calldata","type":"bytes","internalType":"bytes"},{"name":"l2GasLimit","type":"uint256","internalType":"uint256"},{"name":"l2GasPerPubdataByteLimit","type":"uint256","internalType":"uint256"},{"name":"factoryDeps","type":"bytes[]","internalType":"bytes[]"},{"name":"refundRecipient","type":"address","internalType":"address"}]}],"outputs":[{"name":"canonicalTxHash","type":"bytes32","internalType":"bytes32"}],"stateMutability":"payable"},{"type":"function","name":"requestL2TransactionTwoBridges","inputs":[{"name":"_request","type":"tuple","internalType":"struct L2TransactionRequestTwoBridgesOuter","components":[{"name":"chainId","type":"uint256","internalType":"uint256"},{"name":"mintValue","type":"uint256","internalType":"uint256"},{"name":"l2Value","type":"uint256","internalType":"uint256"},{"name":"l2GasLimit","type":"uint256","internalType":"uint256"},{"name":"l2GasPerPubdataByteLimit","type":"uint256","internalType":"uint256"},{"name":"refundRecipient","type":"address","internalType":"address"},{"name":"secondBridgeAddress","type":"address","internalType":"address"},{"name":"secondBridgeValue","type":"uint256","internalType":"uint256"},{"name":"secondBridgeCalldata","type":"bytes","internalType":"bytes"}]}],"outputs":[{"name":"canonicalTxHash","type":"bytes32","internalType":"bytes32"}],"stateMutability":"payable"},{"type":"function","name":"routeBridgehubConfirmL2Transaction","inputs":[{"name":"_secondBridgeAddress","type":"address","internalType":"address"},{"name":"_chainId","type":"uint256","internalType":"uint256"},{"name":"_txDataHash","type":"bytes32","internalType":"bytes32"},{"name":"_canonicalTxHash","type":"bytes32","internalType":"bytes32"}],"outputs":[],"stateMutability":"nonpayable"},{"type":"function","name":"routeBridgehubDeposit","inputs":[{"name":"_request","type":"tuple","internalType":"struct RouteBridgehubDepositStruct","components":[{"name":"secondBridgeAddress","type":"address","internalType":"address"},{"name":"chainId","type":"uint256","internalType":"uint256"},{"name":"sender","type":"address","internalType":"address"},{"name":"l2Value","type":"uint256","internalType":"uint256"},{"name":"secondBridgeCalldata","type":"bytes","internalType":"bytes"}]}],"outputs":[{"name":"outputRequest","type":"tuple","internalType":"struct L2TransactionRequestTwoBridgesInner","components":[{"name":"magicValue","type":"bytes32","internalType":"bytes32"},{"name":"l2Contract","type":"address","internalType":"address"},{"name":"l2Calldata","type":"bytes","internalType":"bytes"},{"name":"factoryDeps","type":"bytes[]","internalType":"bytes[]"},{"name":"txDataHash","type":"bytes32","internalType":"bytes32"}]}],"stateMutability":"payable"},{"type":"function","name":"setAddresses","inputs":[{"name":"_assetRouter","type":"address","internalType":"address"},{"name":"_l1CtmDeployer","type":"address","internalType":"contract ICTMDeploymentTracker"},{"name":"_messageRoot","type":"address","internalType":"contract IMessageRoot"},{"name":"_chainAssetHandler","type":"address","internalType":"address"},{"name":"_interopCenter","type":"address","internalType":"address"}],"outputs":[],"stateMutability":"nonpayable"},{"type":"function","name":"setCTMAssetAddress","inputs":[{"name":"_additionalData","type":"bytes32","internalType":"bytes32"},{"name":"_assetAddress","type":"address","internalType":"address"}],"outputs":[],"stateMutability":"nonpayable"},{"type":"function","name":"setPendingAdmin","inputs":[{"name":"_newPendingAdmin","type":"address","internalType":"address"}],"outputs":[],"stateMutability":"nonpayable"},{"type":"function","name":"settlementLayer","inputs":[{"name":"chainId","type":"uint256","internalType":"uint256"}],"outputs":[{"name":"activeSettlementLayerChainId","type":"uint256","internalType":"uint256"}],"stateMutability":"view"},{"type":"function","name":"sharedBridge","inputs":[],"outputs":[{"name":"","type":"address","internalType":"address"}],"stateMutability":"view"},{"type":"function","name":"transferOwnership","inputs":[{"name":"newOwner","type":"address","internalType":"address"}],"outputs":[],"stateMutability":"nonpayable"},{"type":"function","name":"unpause","inputs":[],"outputs":[],"stateMutability":"nonpayable"},{"type":"function","name":"unpauseMigration","inputs":[],"outputs":[],"stateMutability":"nonpayable"},{"type":"function","name":"whitelistedSettlementLayers","inputs":[{"name":"chainId","type":"uint256","internalType":"uint256"}],"outputs":[{"name":"isWhitelistedSettlementLayer","type":"bool","internalType":"bool"}],"stateMutability":"view"},{"type":"event","name":"AssetRegistered","inputs":[{"name":"assetInfo","type":"bytes32","indexed":true,"internalType":"bytes32"},{"name":"_assetAddress","type":"address","indexed":true,"internalType":"address"},{"name":"additionalData","type":"bytes32","indexed":true,"internalType":"bytes32"},{"name":"sender","type":"address","indexed":false,"internalType":"address"}],"anonymous":false},{"type":"event","name":"BaseTokenAssetIdRegistered","inputs":[{"name":"assetId","type":"bytes32","indexed":true,"internalType":"bytes32"}],"anonymous":false},{"type":"event","name":"ChainTypeManagerAdded","inputs":[{"name":"chainTypeManager","type":"address","indexed":true,"internalType":"address"}],"anonymous":false},{"type":"event","name":"ChainTypeManagerRemoved","inputs":[{"name":"chainTypeManager","type":"address","indexed":true,"internalType":"address"}],"anonymous":false},{"type":"event","name":"Initialized","inputs":[{"name":"version","type":"uint8","indexed":false,"internalType":"uint8"}],"anonymous":false},{"type":"event","name":"NewAdmin","inputs":[{"name":"oldAdmin","type":"address","indexed":true,"internalType":"address"},{"name":"newAdmin","type":"address","indexed":true,"internalType":"address"}],"anonymous":false},{"type":"event","name":"NewChain","inputs":[{"name":"chainId","type":"uint256","indexed":true,"internalType":"uint256"},{"name":"chainTypeManager","type":"address","indexed":false,"internalType":"address"},{"name":"chainGovernance","type":"address","indexed":true,"internalType":"address"}],"anonymous":false},{"type":"event","name":"NewPendingAdmin","inputs":[{"name":"oldPendingAdmin","type":"address","indexed":true,"internalType":"address"},{"name":"newPendingAdmin","type":"address","indexed":true,"internalType":"address"}],"anonymous":false},{"type":"event","name":"OwnershipTransferStarted","inputs":[{"name":"previousOwner","type":"address","indexed":true,"internalType":"address"},{"name":"newOwner","type":"address","indexed":true,"internalType":"address"}],"anonymous":false},{"type":"event","name":"OwnershipTransferred","inputs":[{"name":"previousOwner","type":"address","indexed":true,"internalType":"address"},{"name":"newOwner","type":"address","indexed":true,"internalType":"address"}],"anonymous":false},{"type":"event","name":"Paused","inputs":[{"name":"account","type":"address","indexed":false,"internalType":"address"}],"anonymous":false},{"type":"event","name":"SettlementLayerRegistered","inputs":[{"name":"chainId","type":"uint256","indexed":true,"internalType":"uint256"},{"name":"isWhitelisted","type":"bool","indexed":true,"internalType":"bool"}],"anonymous":false},{"type":"event","name":"Unpaused","inputs":[{"name":"account","type":"address","indexed":false,"internalType":"address"}],"anonymous":false},{"type":"error","name":"AlreadyCurrentSL","inputs":[{"name":"blockChainId","type":"uint256","internalType":"uint256"}]},{"type":"error","name":"AssetHandlerNotRegistered","inputs":[{"name":"assetId","type":"bytes32","internalType":"bytes32"}]},{"type":"error","name":"AssetIdAlreadyRegistered","inputs":[]},{"type":"error","name":"AssetIdNotSupported","inputs":[{"name":"assetId","type":"bytes32","internalType":"bytes32"}]},{"type":"error","name":"BridgeHubAlreadyRegistered","inputs":[]},{"type":"error","name":"CTMAlreadyRegistered","inputs":[]},{"type":"error","name":"CTMNotRegistered","inputs":[]},{"type":"error","name":"ChainIdAlreadyExists","inputs":[]},{"type":"error","name":"ChainIdAlreadyPresent","inputs":[]},{"type":"error","name":"ChainIdCantBeCurrentChain","inputs":[]},{"type":"error","name":"ChainIdMismatch","inputs":[]},{"type":"error","name":"ChainIdNotRegistered","inputs":[{"name":"chainId","type":"uint256","internalType":"uint256"}]},{"type":"error","name":"ChainIdTooBig","inputs":[]},{"type":"error","name":"ChainNotLegacy","inputs":[]},{"type":"error","name":"ChainNotPresentInCTM","inputs":[]},{"type":"error","name":"EmptyAssetId","inputs":[]},{"type":"error","name":"IncorrectBridgeHubAddress","inputs":[{"name":"bridgehub","type":"address","internalType":"address"}]},{"type":"error","name":"NoCTMForAssetId","inputs":[{"name":"assetId","type":"bytes32","internalType":"bytes32"}]},{"type":"error","name":"NotChainAssetHandler","inputs":[{"name":"sender","type":"address","internalType":"address"},{"name":"chainAssetHandler","type":"address","internalType":"address"}]},{"type":"error","name":"NotCurrentSettlementLayer","inputs":[]},{"type":"error","name":"NotInGatewayMode","inputs":[]},{"type":"error","name":"NotInitializedReentrancyGuard","inputs":[]},{"type":"error","name":"NotL1","inputs":[{"name":"l1ChainId","type":"uint256","internalType":"uint256"},{"name":"blockChainId","type":"uint256","internalType":"uint256"}]},{"type":"error","name":"NotRelayedSender","inputs":[{"name":"msgSender","type":"address","internalType":"address"},{"name":"settlementLayerRelaySender","type":"address","internalType":"address"}]},{"type":"error","name":"Reentrancy","inputs":[]},{"type":"error","name":"SLNotWhitelisted","inputs":[]},{"type":"error","name":"SettlementLayersMustSettleOnL1","inputs":[]},{"type":"error","name":"SharedBridgeNotSet","inputs":[]},{"type":"error","name":"SlotOccupied","inputs":[]},{"type":"error","name":"Unauthorized","inputs":[{"name":"caller","type":"address","internalType":"address"}]},{"type":"error","name":"ZKChainLimitReached","inputs":[]},{"type":"error","name":"ZeroAddress","inputs":[]},{"type":"error","name":"ZeroChainId","inputs":[]}],"bytecode":{"object":"0x60e060405234801561000f575f5ffd5b5060405161561a38038061561a83398101604081905261002e91610263565b6100366100a4565b61003e6100ee565b60a083905260c08190526100538360016101aa565b60805261005f826101fe565b61009c6080515f90815260da602090815260408083208054600160ff19918216811790925560a051855260d9909352922080549091169091179055565b5050506102d1565b7f8e94fed44239eb2314ab7a406345e6c5a8f0ccedf3b600de3d004e672c33abf48054600190915580156100eb5760405163df3a8fdd60e01b815260040160405180910390fd5b50565b5f54610100900460ff16156101595760405162461bcd60e51b815260206004820152602760248201527f496e697469616c697a61626c653a20636f6e747261637420697320696e697469604482015266616c697a696e6760c81b606482015260840160405180910390fd5b5f5460ff908116146101a8575f805460ff191660ff9081179091556040519081527f7f26b83ff96e1f2b6a682f133852f6798a09c465da95921460cefb38474024989060200160405180910390a15b565b5f826101ba6201000060046102a6565b6040805160208101939093526001600160a01b0391821690830152831660608201526080016040516020818303038152906040528051906020012090505b92915050565b606580546001600160a01b03191690556100eb81603380546001600160a01b038381166001600160a01b0319831681179093556040519116919082907f8be0079c531659141344cd1fd0a4f28419497f9722a3daafe3b4186f6b6457e0905f90a35050565b5f5f5f60608486031215610275575f5ffd5b835160208501519093506001600160a01b0381168114610293575f5ffd5b6040949094015192959394509192915050565b6001600160a01b0381811683821601908111156101f857634e487b7160e01b5f52601160045260245ffd5b60805160a05160c05161529a6103805f395f818161081e01526139f101525f818161052f015281816113d4015281816114f50152818161171d0152818161176901528181611cf201528181612095015281816120e10152818161217301528181612759015281816127a501528181612dfb01528181612e4701528181612ee20152818161303f0152818161308b015281816133e7015261343301525f81816121150152612e84015261529a5ff3fe608060405260043610610387575f3560e01c80638456cb59116101d3578063d52471c1116100fd578063e680c4c11161009d578063f2fde38b1161006d578063f2fde38b14610b80578063f7c7eb9214610b9f578063f851a44014610bb3578063ff5a62a114610bdf575f5ffd5b8063e680c4c114610af5578063e6d9923b14610b14578063e9420f8c14610b33578063f113c88b14610b61575f5ffd5b8063e0ab6368116100d8578063e0ab636814610a53578063e0e4585d14610a81578063e30c397814610aa0578063e52db4ca14610aca575f5ffd5b8063d52471c114610a02578063dc8e4b2614610a15578063dead6f7f14610a34575f5ffd5b8063b292f5f111610173578063be93671111610143578063be9367111461096b578063c4d66de81461098b578063cbe83612146109aa578063d4b9f4fa146109d6575f5ffd5b8063b292f5f1146108d3578063b5662c5d146108f2578063b93c936614610911578063bc0aac101461093f575f5ffd5b806399c16d1a116101ae57806399c16d1a146108405780639d5bd3da1461085f5780639f115e38146108a0578063ac700e63146108bf575f5ffd5b80638456cb59146107cf5780638da5cb5b146107e35780638f8d37a81461080d575f5ffd5b80634dd18bf5116102b4578063671a71311161025457806370fccb521161022457806370fccb521461075d578063715018a614610788578063716232741461079c57806379ba5097146107bb575f5ffd5b8063671a7131146106c157806368b8d331146106ec5780637011be851461070d57806370d8af871461072c575f5ffd5b806359ec65a21161028f57806359ec65a2146106585780635c975abb146106775780635cd8a76b1461068e5780635dd68acd146106a2575f5ffd5b80634dd18bf5146105ee5780634f68113a1461060d578063524c0cfa14610639575f5ffd5b80632a6411141161032a57806338720778116102fa57806338720778146105705780633885a7501461059a5780633f4ba83a146105b957806349707f31146105cd575f5ffd5b80632a641114146104d65780632dbcf55f146104ff5780632f90b1841461051e578063332b96dc14610551575f5ffd5b806317fa37511161036557806317fa3751146104585780631c50cfea1461047757806324358c611461049657806324fd57fb146104c3575f5ffd5b80630641e4f71461038b57806307621f84146103dc5780630e18b68114610442575b5f5ffd5b348015610396575f5ffd5b506103aa6103a5366004614154565b610bfe565b6040805173ffffffffffffffffffffffffffffffffffffffff9384168152929091166020830152015b60405180910390f35b3480156103e7575f5ffd5b5061041d6103f6366004614174565b60d66020525f908152604090205473ffffffffffffffffffffffffffffffffffffffff1681565b60405173ffffffffffffffffffffffffffffffffffffffff90911681526020016103d3565b34801561044d575f5ffd5b50610456610da0565b005b348015610463575f5ffd5b506103aa61047236600461418b565b610ece565b348015610482575f5ffd5b50610456610491366004614174565b61109e565b3480156104a1575f5ffd5b506104b56104b0366004614174565b6111bf565b6040519081526020016103d3565b6104b56104d13660046141cb565b611247565b3480156104e1575f5ffd5b5060db546104ef9060ff1681565b60405190151581526020016103d3565b34801561050a575f5ffd5b5061045661051936600461422e565b6113d0565b348015610529575f5ffd5b506104b57f000000000000000000000000000000000000000000000000000000000000000081565b34801561055c575f5ffd5b5061045661056b36600461425c565b6115f4565b34801561057b575f5ffd5b5060c95473ffffffffffffffffffffffffffffffffffffffff1661041d565b3480156105a5575f5ffd5b506104566105b4366004614174565b61171a565b3480156105c4575f5ffd5b50610456611a64565b3480156105d8575f5ffd5b506105e1611a76565b6040516103d39190614277565b3480156105f9575f5ffd5b5061045661060836600461425c565b611b4a565b348015610618575f5ffd5b5060dc5461041d9073ffffffffffffffffffffffffffffffffffffffff1681565b348015610644575f5ffd5b506104566106533660046142cf565b611c86565b348015610663575f5ffd5b5061041d610672366004614174565b611de9565b348015610682575f5ffd5b5060975460ff166104ef565b348015610699575f5ffd5b50610456611f73565b3480156106ad575f5ffd5b506104566106bc366004614311565b61220a565b3480156106cc575f5ffd5b506104b56106db366004614174565b60d86020525f908152604090205481565b3480156106f7575f5ffd5b506107006122bc565b6040516103d3919061437e565b348015610718575f5ffd5b506104566107273660046143c2565b6122cd565b348015610737575f5ffd5b5060db5461041d90610100900473ffffffffffffffffffffffffffffffffffffffff1681565b348015610768575f5ffd5b506104b561077736600461425c565b60d76020525f908152604090205481565b348015610793575f5ffd5b50610456612359565b3480156107a7575f5ffd5b506104b56107b63660046143f6565b61236a565b3480156107c6575f5ffd5b5061045661241f565b3480156107da575f5ffd5b506104566124d1565b3480156107ee575f5ffd5b5060335473ffffffffffffffffffffffffffffffffffffffff1661041d565b348015610818575f5ffd5b506104b57f000000000000000000000000000000000000000000000000000000000000000081565b34801561084b575f5ffd5b506104ef61085a366004614466565b6124e1565b34801561086a575f5ffd5b5061041d610879366004614174565b60cc6020525f908152604090205473ffffffffffffffffffffffffffffffffffffffff1681565b3480156108ab575f5ffd5b506103aa6108ba366004614174565b612596565b3480156108ca575f5ffd5b5061045661265e565b3480156108de575f5ffd5b506104ef6108ed366004614501565b612693565b3480156108fd575f5ffd5b5061045661090c36600461422e565b61274e565b34801561091c575f5ffd5b506104ef61092b36600461425c565b60ca6020525f908152604090205460ff1681565b34801561094a575f5ffd5b5060c95461041d9073ffffffffffffffffffffffffffffffffffffffff1681565b61097e61097936600461458c565b612c81565b6040516103d3919061460f565b348015610996575f5ffd5b506104566109a536600461425c565b612df0565b3480156109b5575f5ffd5b5060d55461041d9073ffffffffffffffffffffffffffffffffffffffff1681565b3480156109e1575f5ffd5b5060d35461041d9073ffffffffffffffffffffffffffffffffffffffff1681565b6104b5610a103660046141cb565b612f17565b348015610a20575f5ffd5b50610456610a2f366004614707565b613034565b348015610a3f575f5ffd5b5061041d610a4e366004614174565b61316c565b348015610a5e575f5ffd5b506104ef610a6d366004614174565b60da6020525f908152604090205460ff1681565b348015610a8c575f5ffd5b50610456610a9b36600461472a565b613176565b348015610aab575f5ffd5b5060655473ffffffffffffffffffffffffffffffffffffffff1661041d565b348015610ad5575f5ffd5b506104b5610ae4366004614174565b60d46020525f908152604090205481565b348015610b00575f5ffd5b5061041d610b0f366004614174565b61322a565b348015610b1f575f5ffd5b506104ef610b2e366004614762565b61323d565b348015610b3e575f5ffd5b506104ef610b4d366004614174565b60d96020525f908152604090205460ff1681565b348015610b6c575f5ffd5b506104b5610b7b3660046147db565b6132a7565b348015610b8b575f5ffd5b50610456610b9a36600461425c565b61366a565b348015610baa575f5ffd5b5061045661371a565b348015610bbe575f5ffd5b5060ce5461041d9073ffffffffffffffffffffffffffffffffffffffff1681565b348015610bea575f5ffd5b50610456610bf936600461425c565b61374c565b60db545f908190610100900473ffffffffffffffffffffffffffffffffffffffff163314610c835760db546040517f8beee3a300000000000000000000000000000000000000000000000000000000815233600482015261010090910473ffffffffffffffffffffffffffffffffffffffff1660248201526044015b60405180910390fd5b5f83815260d9602052604090205460ff16610cca576040517f90c7cbf100000000000000000000000000000000000000000000000000000000815260040160405180910390fd5b5f84815260d860205260409020544614610d10576040517f5e67e79300000000000000000000000000000000000000000000000000000000815260040160405180910390fd5b5f84815260d86020908152604080832086905560d990915290205460ff1615610d65576040517f02181a1300000000000000000000000000000000000000000000000000000000815260040160405180910390fd5b610d7060d085613876565b5f94855260cc602052604090942054939473ffffffffffffffffffffffffffffffffffffffff9094169392505050565b60cf5473ffffffffffffffffffffffffffffffffffffffff16338114610df4576040517f8e4a23d6000000000000000000000000000000000000000000000000000000008152336004820152602401610c7a565b60ce805473ffffffffffffffffffffffffffffffffffffffff8381167fffffffffffffffffffffffff0000000000000000000000000000000000000000808416821790945560cf80549094169093556040519116915f917fca4f2f25d0898edd99413412fb94012f9e54ec8142f9b093e7720646a95b16a9908390a38173ffffffffffffffffffffffffffffffffffffffff168173ffffffffffffffffffffffffffffffffffffffff167ff9ffabca9c8276e99321725bcb43fb076a6c66a54b7f21c4e8146d8519b417dc60405160405180910390a35050565b60db545f908190610100900473ffffffffffffffffffffffffffffffffffffffff163314610f4e5760db546040517f8beee3a300000000000000000000000000000000000000000000000000000000815233600482015261010090910473ffffffffffffffffffffffffffffffffffffffff166024820152604401610c7a565b505f84815260d6602052604090205473ffffffffffffffffffffffffffffffffffffffff1680610fad576040517fce63ce1700000000000000000000000000000000000000000000000000000000815260048101869052602401610c7a565b5f84815260d86020526040902054469003610ff6576040517f587df426000000000000000000000000000000000000000000000000000000008152466004820152602401610c7a565b5f84815260d86020908152604080832046905560cc825280832080547fffffffffffffffffffffffff00000000000000000000000000000000000000001673ffffffffffffffffffffffffffffffffffffffff861617905560d4825280832086905585835260da909152902080547fffffffffffffffffffffffffffffffffffffffffffffffffffffffffffffff001660011790556110948461322a565b9150935093915050565b60ce5473ffffffffffffffffffffffffffffffffffffffff1633148015906110de575060335473ffffffffffffffffffffffffffffffffffffffff163314155b15611117576040517f8e4a23d6000000000000000000000000000000000000000000000000000000008152336004820152602401610c7a565b5f81815260da602052604090205460ff161561115f576040517ffe919e2800000000000000000000000000000000000000000000000000000000815260040160405180910390fd5b5f81815260da602052604080822080547fffffffffffffffffffffffffffffffffffffffffffffffffffffffffffffff001660011790555182917f3df150949161462acf3be30521d7da9e533b247327a254e55dd01875897a6df391a250565b5f81815260cc602052604081205473ffffffffffffffffffffffffffffffffffffffff168061121d576040517f23f3c35700000000000000000000000000000000000000000000000000000000815260048101849052602401610c7a565b73ffffffffffffffffffffffffffffffffffffffff165f90815260d7602052604090205492915050565b7f8e94fed44239eb2314ab7a406345e6c5a8f0ccedf3b600de3d004e672c33abf4545f908082036112a4576040517fdd7e362100000000000000000000000000000000000000000000000000000000815260040160405180910390fd5b600181146112de576040517fab143c0600000000000000000000000000000000000000000000000000000000815260040160405180910390fd5b60027f8e94fed44239eb2314ab7a406345e6c5a8f0ccedf3b600de3d004e672c33abf45561130a613881565b60dc546040517f9da3858a00000000000000000000000000000000000000000000000000000000815273ffffffffffffffffffffffffffffffffffffffff90911690639da3858a9034906113649033908890600401614962565b60206040518083038185885af1158015611380573d5f5f3e3d5ffd5b50505050506040513d601f19601f820116820180604052508101906113a59190614a3d565b60017f8e94fed44239eb2314ab7a406345e6c5a8f0ccedf3b600de3d004e672c33abf4559392505050565b5f467f000000000000000000000000000000000000000000000000000000000000000014611420577fffffffffffffffffffffffffeeeeffffffffffffffffffffffffffffffffeeef3301611422565b335b60d55490915073ffffffffffffffffffffffffffffffffffffffff808316911614611491576040517f8e4a23d600000000000000000000000000000000000000000000000000000000815273ffffffffffffffffffffffffffffffffffffffff82166004820152602401610c7a565b73ffffffffffffffffffffffffffffffffffffffff82165f90815260ca602052604090205460ff166114ef576040517fc630ef3c00000000000000000000000000000000000000000000000000000000815260040160405180910390fd5b604080517f000000000000000000000000000000000000000000000000000000000000000060208083019190915273ffffffffffffffffffffffffffffffffffffffff841682840152606080830187905283518084039091018152608090920190925280519101205f905f81815260d66020908152604080832080547fffffffffffffffffffffffff00000000000000000000000000000000000000001673ffffffffffffffffffffffffffffffffffffffff891690811790915580845260d783529281902084905551338152929350869284917f8f09d7694a9ae17acec5cf132d594d7eee23572f7fe132396ce72b1afbf7ef20910160405180910390a450505050565b6115fc6138ee565b73ffffffffffffffffffffffffffffffffffffffff8116611649576040517fd92e233d00000000000000000000000000000000000000000000000000000000815260040160405180910390fd5b73ffffffffffffffffffffffffffffffffffffffff81165f90815260ca602052604090205460ff166116a7576040517fc630ef3c00000000000000000000000000000000000000000000000000000000815260040160405180910390fd5b73ffffffffffffffffffffffffffffffffffffffff81165f81815260ca602052604080822080547fffffffffffffffffffffffffffffffffffffffffffffffffffffffffffffff00169055517f4e04a497739580efe78a7ee09cdabe6f6fe90965c683292a519102ce5193b68a9190a250565b467f00000000000000000000000000000000000000000000000000000000000000001461179b576040517fecb344490000000000000000000000000000000000000000000000000000000081527f00000000000000000000000000000000000000000000000000000000000000006004820152466024820152604401610c7a565b5f81815260cc602052604090205473ffffffffffffffffffffffffffffffffffffffff16806117f6576040517f5de7210700000000000000000000000000000000000000000000000000000000815260040160405180910390fd5b61180160d08361396f565b15611838576040517fff514c1000000000000000000000000000000000000000000000000000000000815260040160405180910390fd5b5f82815260cd602052604090205473ffffffffffffffffffffffffffffffffffffffff1680611893576040517f5de7210700000000000000000000000000000000000000000000000000000000815260040160405180910390fd5b5f61189e468361397a565b5f85815260d46020908152604080832084905583835260da90915280822080547fffffffffffffffffffffffffffffffffffffffffffffffffffffffffffffff00166001179055517f4caa740f000000000000000000000000000000000000000000000000000000008152600481018790529192509073ffffffffffffffffffffffffffffffffffffffff851690634caa740f90602401602060405180830381865afa158015611950573d5f5f3e3d5ffd5b505050506040513d601f19601f820116820180604052508101906119749190614a54565b905073ffffffffffffffffffffffffffffffffffffffff81166119c3576040517f4bd4ae0700000000000000000000000000000000000000000000000000000000815260040160405180910390fd5b6119ce85825f6139da565b60d3546040517fd4ce08c20000000000000000000000000000000000000000000000000000000081526004810187905273ffffffffffffffffffffffffffffffffffffffff9091169063d4ce08c2906024015f604051808303815f87803b158015611a37575f5ffd5b505af1158015611a49573d5f5f3e3d5ffd5b5050505f958652505060d86020525050604090912046905550565b611a6c6138ee565b611a74613a53565b565b60605f611a8360d0613ad0565b9050805167ffffffffffffffff811115611a9f57611a9f614a6f565b604051908082528060200260200182016040528015611ac8578160200160208202803683370190505b5081519092505f5b81811015611b4457611b05838281518110611aed57611aed614a9c565b602002602001015160d061387690919063ffffffff16565b848281518110611b1757611b17614a9c565b73ffffffffffffffffffffffffffffffffffffffff90921660209283029190910190910152600101611ad0565b50505090565b60ce5473ffffffffffffffffffffffffffffffffffffffff163314801590611b8a575060335473ffffffffffffffffffffffffffffffffffffffff163314155b15611bc3576040517f8e4a23d6000000000000000000000000000000000000000000000000000000008152336004820152602401610c7a565b73ffffffffffffffffffffffffffffffffffffffff8116611c10576040517fd92e233d00000000000000000000000000000000000000000000000000000000815260040160405180910390fd5b60cf805473ffffffffffffffffffffffffffffffffffffffff8381167fffffffffffffffffffffffff0000000000000000000000000000000000000000831681179093556040519116919082907fca4f2f25d0898edd99413412fb94012f9e54ec8142f9b093e7720646a95b16a9905f90a35050565b3373111111111111111111111111111111111111111114611cef576040517fa2ac02a00000000000000000000000000000000000000000000000000000000081523360048201527311111111111111111111111111111111111111116024820152604401610c7a565b467f000000000000000000000000000000000000000000000000000000000000000003611d48576040517f472477e200000000000000000000000000000000000000000000000000000000815260040160405180910390fd5b5f611d5460d085613876565b6040517fddcc9eec0000000000000000000000000000000000000000000000000000000081526004810185905267ffffffffffffffff8416602482015290915073ffffffffffffffffffffffffffffffffffffffff82169063ddcc9eec906044015b5f604051808303815f87803b158015611dcd575f5ffd5b505af1158015611ddf573d5f5f3e3d5ffd5b5050505050505050565b5f81815260d460205260408082205460c95491517f53b9e632000000000000000000000000000000000000000000000000000000008152600481018290529091839173ffffffffffffffffffffffffffffffffffffffff909116906353b9e63290602401602060405180830381865afa158015611e68573d5f5f3e3d5ffd5b505050506040513d601f19601f82011682018060405250810190611e8c9190614a54565b905073ffffffffffffffffffffffffffffffffffffffff8116611ede576040517f6410796800000000000000000000000000000000000000000000000000000000815260048101839052602401610c7a565b6040517f97bb3ce90000000000000000000000000000000000000000000000000000000081526004810183905273ffffffffffffffffffffffffffffffffffffffff8216906397bb3ce990602401602060405180830381865afa158015611f47573d5f5f3e3d5ffd5b505050506040513d601f19601f82011682018060405250810190611f6b9190614a54565b949350505050565b5f54610100900460ff1615808015611f9157505f54600160ff909116105b80611faa5750303b158015611faa57505f5460ff166001145b612036576040517f08c379a000000000000000000000000000000000000000000000000000000000815260206004820152602e60248201527f496e697469616c697a61626c653a20636f6e747261637420697320616c72656160448201527f647920696e697469616c697a65640000000000000000000000000000000000006064820152608401610c7a565b5f80547fffffffffffffffffffffffffffffffffffffffffffffffffffffffffffffff001660011790558015612092575f80547fffffffffffffffffffffffffffffffffffffffffffffffffffffffffffff00ff166101001790555b467f000000000000000000000000000000000000000000000000000000000000000014612113576040517fecb344490000000000000000000000000000000000000000000000000000000081527f00000000000000000000000000000000000000000000000000000000000000006004820152466024820152604401610c7a565b7f00000000000000000000000000000000000000000000000000000000000000005f90815260da60209081526040808320805460017fffffffffffffffffffffffffffffffffffffffffffffffffffffffffffffff0091821681179092557f0000000000000000000000000000000000000000000000000000000000000000855260d99093529220805490911690911790558015612207575f80547fffffffffffffffffffffffffffffffffffffffffffffffffffffffffffff00ff169055604051600181527f7f26b83ff96e1f2b6a682f133852f6798a09c465da95921460cefb38474024989060200160405180910390a15b50565b6122126138ee565b60c9805473ffffffffffffffffffffffffffffffffffffffff9687167fffffffffffffffffffffffff00000000000000000000000000000000000000009182161790915560d580549587169582169590951790945560d380549386169385169390931790925560db8054918516610100027fffffffffffffffffffffff0000000000000000000000000000000000000000ff90921691909117905560dc8054919093169116179055565b60606122c860d0613ad0565b905090565b60db54610100900473ffffffffffffffffffffffffffffffffffffffff1633146123495760db546040517f8beee3a300000000000000000000000000000000000000000000000000000000815233600482015261010090910473ffffffffffffffffffffffffffffffffffffffff166024820152604401610c7a565b6123548383836139da565b505050565b6123616138ee565b611a745f613adc565b5f8061237760d087613876565b6040517fb473318e00000000000000000000000000000000000000000000000000000000815260048101879052602481018690526044810185905290915073ffffffffffffffffffffffffffffffffffffffff82169063b473318e90606401602060405180830381865afa1580156123f1573d5f5f3e3d5ffd5b505050506040513d601f19601f820116820180604052508101906124159190614a3d565b9695505050505050565b606554339073ffffffffffffffffffffffffffffffffffffffff1681146124c8576040517f08c379a000000000000000000000000000000000000000000000000000000000815260206004820152602960248201527f4f776e61626c6532537465703a2063616c6c6572206973206e6f74207468652060448201527f6e6577206f776e657200000000000000000000000000000000000000000000006064820152608401610c7a565b61220781613adc565b6124d96138ee565b611a74613b0d565b5f806124ee60d089613876565b6040517fe4948f4300000000000000000000000000000000000000000000000000000000815290915073ffffffffffffffffffffffffffffffffffffffff82169063e4948f439061254b908a908a908a908a908a90600401614b12565b602060405180830381865afa158015612566573d5f5f3e3d5ffd5b505050506040513d601f19601f8201168201806040525081019061258a9190614b96565b98975050505050505050565b60db545f908190610100900473ffffffffffffffffffffffffffffffffffffffff1633146126165760db546040517f8beee3a300000000000000000000000000000000000000000000000000000000815233600482015261010090910473ffffffffffffffffffffffffffffffffffffffff166024820152604401610c7a565b5f83815260d86020526040902046905561262f8361322a565b5f93845260cc602052604090932054929373ffffffffffffffffffffffffffffffffffffffff90931692915050565b6126666138ee565b60db80547fffffffffffffffffffffffffffffffffffffffffffffffffffffffffffffff00166001179055565b5f806126a060d08b613876565b6040517f042901c700000000000000000000000000000000000000000000000000000000815290915073ffffffffffffffffffffffffffffffffffffffff82169063042901c790612701908c908c908c908c908c908c908c90600401614bb1565b602060405180830381865afa15801561271c573d5f5f3e3d5ffd5b505050506040513d601f19601f820116820180604052508101906127409190614b96565b9a9950505050505050505050565b6127566138ee565b467f0000000000000000000000000000000000000000000000000000000000000000146127d7576040517fecb344490000000000000000000000000000000000000000000000000000000081527f00000000000000000000000000000000000000000000000000000000000000006004820152466024820152604401610c7a565b73ffffffffffffffffffffffffffffffffffffffff8116612824576040517fd92e233d00000000000000000000000000000000000000000000000000000000815260040160405180910390fd5b61282f60d08361396f565b15612866576040517f24591d8900000000000000000000000000000000000000000000000000000000815260040160405180910390fd5b818173ffffffffffffffffffffffffffffffffffffffff16633408e4706040518163ffffffff1660e01b8152600401602060405180830381865afa1580156128b0573d5f5f3e3d5ffd5b505050506040513d601f19601f820116820180604052508101906128d49190614a3d565b1461290b576040517fa179f8c900000000000000000000000000000000000000000000000000000000815260040160405180910390fd5b5f8173ffffffffffffffffffffffffffffffffffffffff1663946ebad16040518163ffffffff1660e01b8152600401602060405180830381865afa158015612955573d5f5f3e3d5ffd5b505050506040513d601f19601f820116820180604052508101906129799190614a54565b90505f8273ffffffffffffffffffffffffffffffffffffffff16636e9960c36040518163ffffffff1660e01b8152600401602060405180830381865afa1580156129c5573d5f5f3e3d5ffd5b505050506040513d601f19601f820116820180604052508101906129e99190614a54565b90505f8373ffffffffffffffffffffffffffffffffffffffff1663960dcf246040518163ffffffff1660e01b8152600401602060405180830381865afa158015612a35573d5f5f3e3d5ffd5b505050506040513d601f19601f82011682018060405250810190612a599190614a3d565b90505f8473ffffffffffffffffffffffffffffffffffffffff16633591c1a06040518163ffffffff1660e01b8152600401602060405180830381865afa158015612aa5573d5f5f3e3d5ffd5b505050506040513d601f19601f82011682018060405250810190612ac99190614a54565b905073ffffffffffffffffffffffffffffffffffffffff81163014612b32576040517fdd381a4c00000000000000000000000000000000000000000000000000000000815273ffffffffffffffffffffffffffffffffffffffff82166004820152602401610c7a565b612b3d868386613b68565b5f86815260cc6020908152604080832080547fffffffffffffffffffffffff00000000000000000000000000000000000000001673ffffffffffffffffffffffffffffffffffffffff891617905560d4825280832085905560d89091529020469055612bab868660016139da565b60d3546040517fd4ce08c20000000000000000000000000000000000000000000000000000000081526004810188905273ffffffffffffffffffffffffffffffffffffffff9091169063d4ce08c2906024015f604051808303815f87803b158015612c14575f5ffd5b505af1158015612c26573d5f5f3e3d5ffd5b505060405173ffffffffffffffffffffffffffffffffffffffff8781168252861692508891507f1e9125bc72db22c58abff6821d7333551967e26454b419ffa958e4cb8ef476009060200160405180910390a3505050505050565b612cc66040518060a001604052805f81526020015f73ffffffffffffffffffffffffffffffffffffffff16815260200160608152602001606081526020015f81525090565b60dc5473ffffffffffffffffffffffffffffffffffffffff163314612d19576040517f8e4a23d6000000000000000000000000000000000000000000000000000000008152336004820152602401610c7a565b612d26602083018361425c565b73ffffffffffffffffffffffffffffffffffffffff1663ca408c23346020850135612d57606087016040880161425c565b6060870135612d696080890189614c29565b6040518763ffffffff1660e01b8152600401612d89959493929190614c8a565b5f6040518083038185885af1158015612da4573d5f5f3e3d5ffd5b50505050506040513d5f823e601f3d9081017fffffffffffffffffffffffffffffffffffffffffffffffffffffffffffffffe0168201604052612dea9190810190614dd2565b92915050565b612df8613df0565b467f000000000000000000000000000000000000000000000000000000000000000014612e79576040517fecb344490000000000000000000000000000000000000000000000000000000081527f00000000000000000000000000000000000000000000000000000000000000006004820152466024820152604401610c7a565b612e8281613adc565b7f00000000000000000000000000000000000000000000000000000000000000005f90815260da60209081526040808320805460017fffffffffffffffffffffffffffffffffffffffffffffffffffffffffffffff0091821681179092557f0000000000000000000000000000000000000000000000000000000000000000855260d990935292208054909116909117905550565b7f8e94fed44239eb2314ab7a406345e6c5a8f0ccedf3b600de3d004e672c33abf4545f90808203612f74576040517fdd7e362100000000000000000000000000000000000000000000000000000000815260040160405180910390fd5b60018114612fae576040517fab143c0600000000000000000000000000000000000000000000000000000000815260040160405180910390fd5b60027f8e94fed44239eb2314ab7a406345e6c5a8f0ccedf3b600de3d004e672c33abf455612fda613881565b60dc546040517f6d66bf2600000000000000000000000000000000000000000000000000000000815273ffffffffffffffffffffffffffffffffffffffff90911690636d66bf269034906113649033908890600401615006565b61303c6138ee565b467f0000000000000000000000000000000000000000000000000000000000000000146130bd576040517fecb344490000000000000000000000000000000000000000000000000000000081527f00000000000000000000000000000000000000000000000000000000000000006004820152466024820152604401610c7a565b5f82815260d860205260409020544614613103576040517f02181a1300000000000000000000000000000000000000000000000000000000815260040160405180910390fd5b5f82815260d9602052604080822080547fffffffffffffffffffffffffffffffffffffffffffffffffffffffffffffff00168415159081179091559051909184917f02629feb109d94b16a367231d248ba81c462f51ce5b984835f150f1c9f49ed259190a35050565b5f612dea8261322a565b60dc5473ffffffffffffffffffffffffffffffffffffffff1633146131c9576040517f8e4a23d6000000000000000000000000000000000000000000000000000000008152336004820152602401610c7a565b6040517f8eb7db5700000000000000000000000000000000000000000000000000000000815260048101849052602481018390526044810182905273ffffffffffffffffffffffffffffffffffffffff851690638eb7db5790606401611db6565b5f61323660d083613e50565b9392505050565b5f8061324a60d089613876565b6040517f263b7f8e00000000000000000000000000000000000000000000000000000000815290915073ffffffffffffffffffffffffffffffffffffffff82169063263b7f8e9061254b908a908a908a908a908a90600401615125565b60ce545f9073ffffffffffffffffffffffffffffffffffffffff1633148015906132e9575060335473ffffffffffffffffffffffffffffffffffffffff163314155b15613322576040517f8e4a23d6000000000000000000000000000000000000000000000000000000008152336004820152602401610c7a565b7f8e94fed44239eb2314ab7a406345e6c5a8f0ccedf3b600de3d004e672c33abf4545f81900361337e576040517fdd7e362100000000000000000000000000000000000000000000000000000000815260040160405180910390fd5b600181146133b8576040517fab143c0600000000000000000000000000000000000000000000000000000000815260040160405180910390fd5b60027f8e94fed44239eb2314ab7a406345e6c5a8f0ccedf3b600de3d004e672c33abf4556133e4613881565b467f000000000000000000000000000000000000000000000000000000000000000014613465576040517fecb344490000000000000000000000000000000000000000000000000000000081527f00000000000000000000000000000000000000000000000000000000000000006004820152466024820152604401610c7a565b6134708b8a8c613b68565b5f8b815260cc6020908152604080832080547fffffffffffffffffffffffff00000000000000000000000000000000000000001673ffffffffffffffffffffffffffffffffffffffff8f1690811790915560d483528184208d905560d8909252808320469055517f88c7c5d20000000000000000000000000000000000000000000000000000000081526388c7c5d29061351a908f908e908d908d908d908d908d906004016151c5565b6020604051808303815f875af1158015613536573d5f5f3e3d5ffd5b505050506040513d601f19601f8201168201806040525081019061355a9190614a54565b90506135688c8260016139da565b60d3546040517fd4ce08c2000000000000000000000000000000000000000000000000000000008152600481018e905273ffffffffffffffffffffffffffffffffffffffff9091169063d4ce08c2906024015f604051808303815f87803b1580156135d1575f5ffd5b505af11580156135e3573d5f5f3e3d5ffd5b505060405173ffffffffffffffffffffffffffffffffffffffff8e811682528b1692508e91507f1e9125bc72db22c58abff6821d7333551967e26454b419ffa958e4cb8ef476009060200160405180910390a3505060017f8e94fed44239eb2314ab7a406345e6c5a8f0ccedf3b600de3d004e672c33abf455509798975050505050505050565b6136726138ee565b6065805473ffffffffffffffffffffffffffffffffffffffff83167fffffffffffffffffffffffff000000000000000000000000000000000000000090911681179091556136d560335473ffffffffffffffffffffffffffffffffffffffff1690565b73ffffffffffffffffffffffffffffffffffffffff167f38d16b8cac22d99fc7c124b9cd0de2d3fa1faef420bfe791d8c362d765e2270060405160405180910390a350565b6137226138ee565b60db80547fffffffffffffffffffffffffffffffffffffffffffffffffffffffffffffff00169055565b6137546138ee565b73ffffffffffffffffffffffffffffffffffffffff81166137a1576040517fd92e233d00000000000000000000000000000000000000000000000000000000815260040160405180910390fd5b73ffffffffffffffffffffffffffffffffffffffff81165f90815260ca602052604090205460ff1615613800576040517fec27343900000000000000000000000000000000000000000000000000000000815260040160405180910390fd5b73ffffffffffffffffffffffffffffffffffffffff81165f81815260ca602052604080822080547fffffffffffffffffffffffffffffffffffffffffffffffffffffffffffffff00166001179055517f2eae91be1021e05cc8076387b0182458ae474ae44ee44cc59aefda6ca53c1f429190a250565b5f6132368383613e6d565b60975460ff1615611a74576040517f08c379a000000000000000000000000000000000000000000000000000000000815260206004820152601060248201527f5061757361626c653a20706175736564000000000000000000000000000000006044820152606401610c7a565b60335473ffffffffffffffffffffffffffffffffffffffff163314611a74576040517f08c379a000000000000000000000000000000000000000000000000000000000815260206004820181905260248201527f4f776e61626c653a2063616c6c6572206973206e6f7420746865206f776e65726044820152606401610c7a565b5f6132368383613ef6565b5f8261398a620100006004615213565b60408051602081019390935273ffffffffffffffffffffffffffffffffffffffff918216908301528316606082015260800160405160208183030381529060405280519060200120905092915050565b6139e660d08484613f01565b50808015613a1c57507f0000000000000000000000000000000000000000000000000000000000000000613a1a60d0613f23565b115b15612354576040517f601b688200000000000000000000000000000000000000000000000000000000815260040160405180910390fd5b613a5b613f2d565b609780547fffffffffffffffffffffffffffffffffffffffffffffffffffffffffffffff001690557f5db9ee0a495bf2e6ff9c91a7834c1ba4fdd244a5e8aa4e537bd38aeae4b073aa335b60405173ffffffffffffffffffffffffffffffffffffffff909116815260200160405180910390a1565b60605f61323683613f99565b606580547fffffffffffffffffffffffff000000000000000000000000000000000000000016905561220781613fa4565b613b15613881565b609780547fffffffffffffffffffffffffffffffffffffffffffffffffffffffffffffff001660011790557f62e78cea01bee320cd4e420270b5ea74000d11b0c9f74754ebdbfc544b05a258613aa63390565b825f03613ba1576040517fc84885d400000000000000000000000000000000000000000000000000000000815260040160405180910390fd5b65ffffffffffff831115613be1576040517f8f620a0600000000000000000000000000000000000000000000000000000000815260040160405180910390fd5b468303613c1a576040517f717a165600000000000000000000000000000000000000000000000000000000815260040160405180910390fd5b73ffffffffffffffffffffffffffffffffffffffff8116613c67576040517fd92e233d00000000000000000000000000000000000000000000000000000000815260040160405180910390fd5b81613c9e576040517f2d4d012f00000000000000000000000000000000000000000000000000000000815260040160405180910390fd5b73ffffffffffffffffffffffffffffffffffffffff81165f90815260ca602052604090205460ff16613cfc576040517fc630ef3c00000000000000000000000000000000000000000000000000000000815260040160405180910390fd5b5f82815260da602052604090205460ff16613d46576040517f04a0b7e900000000000000000000000000000000000000000000000000000000815260048101839052602401610c7a565b60c95473ffffffffffffffffffffffffffffffffffffffff16613d95576040517f856d5b7700000000000000000000000000000000000000000000000000000000815260040160405180910390fd5b5f83815260cc602052604090205473ffffffffffffffffffffffffffffffffffffffff1615612354576040517f6cf1231200000000000000000000000000000000000000000000000000000000815260040160405180910390fd5b7f8e94fed44239eb2314ab7a406345e6c5a8f0ccedf3b600de3d004e672c33abf4805460019091558015612207576040517fdf3a8fdd00000000000000000000000000000000000000000000000000000000815260040160405180910390fd5b5f808080613e5e868661401a565b909450925050505b9250929050565b5f81815260028301602052604081205480151580613e905750613e908484613ef6565b613236576040517f08c379a000000000000000000000000000000000000000000000000000000000815260206004820152601e60248201527f456e756d657261626c654d61703a206e6f6e6578697374656e74206b657900006044820152606401610c7a565b5f6132368383614052565b5f611f6b848473ffffffffffffffffffffffffffffffffffffffff8516614069565b5f612dea82614085565b60975460ff16611a74576040517f08c379a000000000000000000000000000000000000000000000000000000000815260206004820152601460248201527f5061757361626c653a206e6f74207061757365640000000000000000000000006044820152606401610c7a565b6060612dea8261408f565b6033805473ffffffffffffffffffffffffffffffffffffffff8381167fffffffffffffffffffffffff0000000000000000000000000000000000000000831681179093556040519116919082907f8be0079c531659141344cd1fd0a4f28419497f9722a3daafe3b4186f6b6457e0905f90a35050565b5f8181526002830160205260408120548190806140475761403b8585613ef6565b92505f9150613e669050565b600192509050613e66565b5f8181526001830160205260408120541515613236565b5f8281526002840160205260408120829055611f6b848461409b565b5f612dea826140a6565b60605f613236836140af565b5f6132368383614108565b5f612dea825490565b6060815f018054806020026020016040519081016040528092919081815260200182805480156140fc57602002820191905f5260205f20905b8154815260200190600101908083116140e8575b50505050509050919050565b5f81815260018301602052604081205461414d57508154600181810184555f848152602080822090930184905584548482528286019093526040902091909155612dea565b505f612dea565b5f5f60408385031215614165575f5ffd5b50508035926020909101359150565b5f60208284031215614184575f5ffd5b5035919050565b5f5f5f6060848603121561419d575f5ffd5b505081359360208301359350604090920135919050565b5f61012082840312156141c5575f5ffd5b50919050565b5f602082840312156141db575f5ffd5b813567ffffffffffffffff8111156141f1575f5ffd5b611f6b848285016141b4565b73ffffffffffffffffffffffffffffffffffffffff81168114612207575f5ffd5b8035614229816141fd565b919050565b5f5f6040838503121561423f575f5ffd5b823591506020830135614251816141fd565b809150509250929050565b5f6020828403121561426c575f5ffd5b8135613236816141fd565b602080825282518282018190525f918401906040840190835b818110156142c457835173ffffffffffffffffffffffffffffffffffffffff16835260209384019390920191600101614290565b509095945050505050565b5f5f5f606084860312156142e1575f5ffd5b8335925060208401359150604084013567ffffffffffffffff81168114614306575f5ffd5b809150509250925092565b5f5f5f5f5f60a08688031215614325575f5ffd5b8535614330816141fd565b94506020860135614340816141fd565b93506040860135614350816141fd565b92506060860135614360816141fd565b91506080860135614370816141fd565b809150509295509295909350565b602080825282518282018190525f918401906040840190835b818110156142c4578351835260209384019390920191600101614397565b8015158114612207575f5ffd5b5f5f5f606084860312156143d4575f5ffd5b8335925060208401356143e6816141fd565b91506040840135614306816143b5565b5f5f5f5f60808587031215614409575f5ffd5b5050823594602084013594506040840135936060013592509050565b5f5f83601f840112614435575f5ffd5b50813567ffffffffffffffff81111561444c575f5ffd5b6020830191508360208260051b8501011115613e66575f5ffd5b5f5f5f5f5f5f60a0878903121561447b575f5ffd5b863595506020870135945060408701359350606087013567ffffffffffffffff8111156144a6575f5ffd5b87016060818a0312156144b7575f5ffd5b9250608087013567ffffffffffffffff8111156144d2575f5ffd5b6144de89828a01614425565b979a9699509497509295939492505050565b803561ffff81168114614229575f5ffd5b5f5f5f5f5f5f5f5f60e0898b031215614518575f5ffd5b8835975060208901359650604089013595506060890135945061453d60808a016144f0565b935060a089013567ffffffffffffffff811115614558575f5ffd5b6145648b828c01614425565b90945092505060c08901356002811061457b575f5ffd5b809150509295985092959890939650565b5f6020828403121561459c575f5ffd5b813567ffffffffffffffff8111156145b2575f5ffd5b820160a08185031215613236575f5ffd5b5f81518084528060208401602086015e5f6020828601015260207fffffffffffffffffffffffffffffffffffffffffffffffffffffffffffffffe0601f83011685010191505092915050565b602081528151602082015273ffffffffffffffffffffffffffffffffffffffff60208301511660408201525f604083015160a0606084015261465460c08401826145c3565b60608501518482037fffffffffffffffffffffffffffffffffffffffffffffffffffffffffffffffe0016080860152805180835291925060209081019181840191600582901b8501015f5b828110156146ee577fffffffffffffffffffffffffffffffffffffffffffffffffffffffffffffffe08683030184526146d98286516145c3565b6020958601959490940193915060010161469f565b50608088015160a0880152809550505050505092915050565b5f5f60408385031215614718575f5ffd5b823591506020830135614251816143b5565b5f5f5f5f6080858703121561473d575f5ffd5b8435614748816141fd565b966020860135965060408601359560600135945092505050565b5f5f5f5f5f5f868803610140811215614779575f5ffd5b87359650602088013595506040880135945060c07fffffffffffffffffffffffffffffffffffffffffffffffffffffffffffffffa0820112156147ba575f5ffd5b5060608701925061012087013567ffffffffffffffff8111156144d2575f5ffd5b5f5f5f5f5f5f5f5f5f60e08a8c0312156147f3575f5ffd5b8935985060208a0135614805816141fd565b975060408a0135965060608a0135955060808a0135614823816141fd565b945060a08a013567ffffffffffffffff81111561483e575f5ffd5b8a01601f81018c1361484e575f5ffd5b803567ffffffffffffffff811115614864575f5ffd5b8c6020828401011115614875575f5ffd5b6020919091019450925060c08a013567ffffffffffffffff811115614898575f5ffd5b6148a48c828d01614425565b915080935050809150509295985092959850929598565b5f5f83357fffffffffffffffffffffffffffffffffffffffffffffffffffffffffffffffe18436030181126148ee575f5ffd5b830160208101925035905067ffffffffffffffff81111561490d575f5ffd5b803603821315613e66575f5ffd5b81835281816020850137505f602082840101525f60207fffffffffffffffffffffffffffffffffffffffffffffffffffffffffffffffe0601f840116840101905092915050565b73ffffffffffffffffffffffffffffffffffffffff8316815260406020808301829052833582840152830135606080840191909152908301356080808401919091529083013560a0808401919091529083013560c08301525f906149c790840161421e565b73ffffffffffffffffffffffffffffffffffffffff1660e08301526149ee60c0840161421e565b73ffffffffffffffffffffffffffffffffffffffff81166101008401525060e0830135610120830152614a256101008401846148bb565b6101206101408501526124156101608501828461491b565b5f60208284031215614a4d575f5ffd5b5051919050565b5f60208284031215614a64575f5ffd5b8151613236816141fd565b7f4e487b71000000000000000000000000000000000000000000000000000000005f52604160045260245ffd5b7f4e487b71000000000000000000000000000000000000000000000000000000005f52603260045260245ffd5b8183525f7f07ffffffffffffffffffffffffffffffffffffffffffffffffffffffffffffff831115614af9575f5ffd5b8260051b80836020870137939093016020019392505050565b8581528460208201526080604082015261ffff614b2e856144f0565b1660808201525f6020850135614b43816141fd565b73ffffffffffffffffffffffffffffffffffffffff1660a0830152614b6b60408601866148bb565b606060c0850152614b8060e08501828461491b565b915050828103606084015261258a818587614ac9565b5f60208284031215614ba6575f5ffd5b8151613236816143b5565b87815286602082015285604082015261ffff8516606082015260c060808201525f614be060c083018587614ac9565b905060028310614c17577f4e487b71000000000000000000000000000000000000000000000000000000005f52602160045260245ffd5b8260a083015298975050505050505050565b5f5f83357fffffffffffffffffffffffffffffffffffffffffffffffffffffffffffffffe1843603018112614c5c575f5ffd5b83018035915067ffffffffffffffff821115614c76575f5ffd5b602001915036819003821315613e66575f5ffd5b85815273ffffffffffffffffffffffffffffffffffffffff85166020820152836040820152608060608201525f614cc560808301848661491b565b979650505050505050565b60405160a0810167ffffffffffffffff81118282101715614cf357614cf3614a6f565b60405290565b604051601f82017fffffffffffffffffffffffffffffffffffffffffffffffffffffffffffffffe016810167ffffffffffffffff81118282101715614d4057614d40614a6f565b604052919050565b5f82601f830112614d57575f5ffd5b815167ffffffffffffffff811115614d7157614d71614a6f565b614da260207fffffffffffffffffffffffffffffffffffffffffffffffffffffffffffffffe0601f84011601614cf9565b818152846020838601011115614db6575f5ffd5b8160208501602083015e5f918101602001919091529392505050565b5f60208284031215614de2575f5ffd5b815167ffffffffffffffff811115614df8575f5ffd5b820160a08185031215614e09575f5ffd5b614e11614cd0565b815181526020820151614e23816141fd565b6020820152604082015167ffffffffffffffff811115614e41575f5ffd5b614e4d86828501614d48565b604083015250606082015167ffffffffffffffff811115614e6c575f5ffd5b8201601f81018613614e7c575f5ffd5b805167ffffffffffffffff811115614e9657614e96614a6f565b8060051b614ea660208201614cf9565b91825260208184018101929081019089841115614ec1575f5ffd5b6020850192505b83831015614f0757825167ffffffffffffffff811115614ee6575f5ffd5b614ef58b602083890101614d48565b83525060209283019290910190614ec8565b606086015250505050608091820151918101919091529392505050565b5f5f83357fffffffffffffffffffffffffffffffffffffffffffffffffffffffffffffffe1843603018112614f57575f5ffd5b830160208101925035905067ffffffffffffffff811115614f76575f5ffd5b8060051b3603821315613e66575f5ffd5b5f8383855260208501945060208460051b820101835f5b86811015614ffa577fffffffffffffffffffffffffffffffffffffffffffffffffffffffffffffffe0848403018852614fd782876148bb565b614fe285828461491b565b60209a8b019a90955093909301925050600101614f9e565b50909695505050505050565b73ffffffffffffffffffffffffffffffffffffffff831681526040602080830182905283358284015283013560608301525f9061504490840161421e565b73ffffffffffffffffffffffffffffffffffffffff8116608084015250606083013560a083015261507860808401846148bb565b61012060c085015261508f6101608501828461491b565b60a086013560e08681019190915260c08701356101008701529092506150b89150850185614f24565b7fffffffffffffffffffffffffffffffffffffffffffffffffffffffffffffffc0858403016101208601526150ee838284614f87565b925050506150ff610100850161421e565b73ffffffffffffffffffffffffffffffffffffffff811661014085015250949350505050565b8581528460208201525f843560ff8116808214615140575f5ffd5b6040840152506020850135615154816143b5565b1515606083015261ffff61516a604087016144f0565b16608083015261517c6060860161421e565b73ffffffffffffffffffffffffffffffffffffffff811660a084015250608085013560c083015260a085013560e08301526101206101008301819052614cc59083018486614ac9565b87815286602082015273ffffffffffffffffffffffffffffffffffffffff8616604082015260a060608201525f61520060a08301868861491b565b8281036080840152612740818587614f87565b73ffffffffffffffffffffffffffffffffffffffff8181168382160190811115612dea577f4e487b71000000000000000000000000000000000000000000000000000000005f52601160045260245ffdfea2646970667358221220a0cc4b11f833effd83dc698f9ef30c5baa069e2af65ebccbc84913a1f0d6a1c764736f6c634300081c0033","linkReferences":{}},"methodIdentifiers":{"L1_CHAIN_ID()":"2f90b184","MAX_NUMBER_OF_ZK_CHAINS()":"8f8d37a8","acceptAdmin()":"0e18b681","acceptOwnership()":"79ba5097","addChainTypeManager(address)":"ff5a62a1","addTokenAssetId(bytes32)":"1c50cfea","admin()":"f851a440","assetIdIsRegistered(bytes32)":"e0ab6368","assetRouter()":"bc0aac10","baseToken(uint256)":"59ec65a2","baseTokenAssetId(uint256)":"e52db4ca","chainAssetHandler()":"70d8af87","chainTypeManager(uint256)":"9d5bd3da","chainTypeManagerIsRegistered(address)":"b93c9366","createNewChain(uint256,address,bytes32,uint256,address,bytes,bytes[])":"f113c88b","ctmAssetIdFromAddress(address)":"70fccb52","ctmAssetIdFromChainId(uint256)":"24358c61","ctmAssetIdToAddress(bytes32)":"07621f84","forwardTransactionOnGateway(uint256,bytes32,uint64)":"524c0cfa","forwardedBridgeBurnSetSettlementLayer(uint256,uint256)":"0641e4f7","forwardedBridgeMint(bytes32,uint256,bytes32)":"17fa3751","forwardedBridgeRecoverFailedTransfer(uint256)":"9f115e38","getAllZKChainChainIDs()":"68b8d331","getAllZKChains()":"49707f31","getHyperchain(uint256)":"dead6f7f","getZKChain(uint256)":"e680c4c1","initialize(address)":"c4d66de8","initializeV2()":"5cd8a76b","interopCenter()":"4f68113a","l1CtmDeployer()":"cbe83612","l2TransactionBaseCost(uint256,uint256,uint256,uint256)":"71623274","messageRoot()":"d4b9f4fa","migrationPaused()":"2a641114","owner()":"8da5cb5b","pause()":"8456cb59","pauseMigration()":"ac700e63","paused()":"5c975abb","pendingOwner()":"e30c3978","proveL1ToL2TransactionStatus(uint256,bytes32,uint256,uint256,uint16,bytes32[],uint8)":"b292f5f1","proveL2LogInclusion(uint256,uint256,uint256,(uint8,bool,uint16,address,bytes32,bytes32),bytes32[])":"e6d9923b","proveL2MessageInclusion(uint256,uint256,uint256,(uint16,address,bytes),bytes32[])":"99c16d1a","registerAlreadyDeployedZKChain(uint256,address)":"b5662c5d","registerLegacyChain(uint256)":"3885a750","registerNewZKChain(uint256,address,bool)":"7011be85","registerSettlementLayer(uint256,bool)":"dc8e4b26","removeChainTypeManager(address)":"332b96dc","renounceOwnership()":"715018a6","requestL2TransactionDirect((uint256,uint256,address,uint256,bytes,uint256,uint256,bytes[],address))":"d52471c1","requestL2TransactionTwoBridges((uint256,uint256,uint256,uint256,uint256,address,address,uint256,bytes))":"24fd57fb","routeBridgehubConfirmL2Transaction(address,uint256,bytes32,bytes32)":"e0e4585d","routeBridgehubDeposit((address,uint256,address,uint256,bytes))":"be936711","setAddresses(address,address,address,address,address)":"5dd68acd","setCTMAssetAddress(bytes32,address)":"2dbcf55f","setPendingAdmin(address)":"4dd18bf5","settlementLayer(uint256)":"671a7131","sharedBridge()":"38720778","transferOwnership(address)":"f2fde38b","unpause()":"3f4ba83a","unpauseMigration()":"f7c7eb92","whitelistedSettlementLayers(uint256)":"e9420f8c"},"id":35}