{"abi":[{"type":"function","name":"bundleExecuted","inputs":[{"name":"bundleHash","type":"bytes32","internalType":"bytes32"}],"outputs":[{"name":"bundleExecuted","type":"bool","internalType":"bool"}],"stateMutability":"view"},{"type":"function","name":"bytecodeHash","inputs":[],"outputs":[{"name":"","type":"bytes32","internalType":"bytes32"}],"stateMutability":"view"},{"type":"function","name":"deployInteropAccount","inputs":[{"name":"_sender","type":"address","internalType":"address"},{"name":"_chainId","type":"uint256","internalType":"uint256"}],"outputs":[{"name":"","type":"address","internalType":"address"}],"stateMutability":"nonpayable"},{"type":"function","name":"executeBundle","inputs":[{"name":"_bundle","type":"bytes","internalType":"bytes"},{"name":"_proof","type":"tuple","internalType":"struct MessageInclusionProof","components":[{"name":"chainId","type":"uint256","internalType":"uint256"},{"name":"l1BatchNumber","type":"uint256","internalType":"uint256"},{"name":"l2MessageIndex","type":"uint256","internalType":"uint256"},{"name":"message","type":"tuple","internalType":"struct L2Message","components":[{"name":"txNumberInBatch","type":"uint16","internalType":"uint16"},{"name":"sender","type":"address","internalType":"address"},{"name":"data","type":"bytes","internalType":"bytes"}]},{"name":"proof","type":"bytes32[]","internalType":"bytes32[]"}]},{"name":"_skipEmptyCalldata","type":"bool","internalType":"bool"}],"outputs":[],"stateMutability":"nonpayable"},{"type":"function","name":"getAliasedAccount","inputs":[{"name":"_sender","type":"address","internalType":"address"},{"name":"_chainId","type":"uint256","internalType":"uint256"}],"outputs":[{"name":"","type":"address","internalType":"address"}],"stateMutability":"view"},{"type":"function","name":"setInteropAccountBytecode","inputs":[],"outputs":[],"stateMutability":"nonpayable"},{"type":"error","name":"BundleAlreadyExecuted","inputs":[{"name":"bundleHash","type":"bytes32","internalType":"bytes32"}]},{"type":"error","name":"MessageNotIncluded","inputs":[]}],"bytecode":{"object":"0x6080604052348015600e575f5ffd5b506111ac8061001c5f395ff3fe608060405234801561000f575f5ffd5b506004361061006f575f3560e01c8063517ca2dd1161004d578063517ca2dd146100d5578063aca319a01461010d578063dcb6cae214610120575f5ffd5b806309487ba91461007357806323af48bc14610088578063420c6a2c146100bf575b5f5ffd5b610086610081366004610af2565b610128565b005b6100aa610096366004610c40565b60016020525f908152604090205460ff1681565b60405190151581526020015b60405180910390f35b6100c75f5481565b6040519081526020016100b6565b6100e86100e3366004610c57565b61064e565b60405173ffffffffffffffffffffffffffffffffffffffff90911681526020016100b6565b6100e861011b366004610c57565b61073e565b610086610805565b60405161015b907f0100000000000000000000000000000000000000000000000000000000000000908590602001610c81565b604080517fffffffffffffffffffffffffffffffffffffffffffffffffffffffffffffffe0818403018152918152606084015101525f61019f620100006009610cc3565b73ffffffffffffffffffffffffffffffffffffffff166318b7fc22845f015185602001518660400151876060015188608001516040518663ffffffff1660e01b81526004016101f2959493929190610d60565b602060405180830381865afa15801561020d573d5f5f3e3d5ffd5b505050506040513d601f19601f820116820180604052508101906102319190610e03565b90508061026a576040517f32c2e15600000000000000000000000000000000000000000000000000000000815260040160405180910390fd5b5f835f0151846020015185604001518760405160200161028d9493929190610e25565b604080517fffffffffffffffffffffffffffffffffffffffffffffffffffffffffffffffe081840301815291815281516020928301205f818152600190935291205490915060ff1615610314576040517fd88d77a1000000000000000000000000000000000000000000000000000000008152600481018290526024015b60405180910390fd5b5f818152600160208181526040832080547fffffffffffffffffffffffffffffffffffffffffffffffffffffffffffffff00169092179091558651610360919088018101908801610e5e565b90505f5b816020015151811015610645575f826020015182815181106103885761038861103c565b602002602001015190508580156103a25750608081015151155b15610448576103b4618000600a610cc3565b602082015160608301516040517f40c10f1900000000000000000000000000000000000000000000000000000000815273ffffffffffffffffffffffffffffffffffffffff928316600482015260248101919091529116906340c10f19906044015f604051808303815f87803b15801561042c575f5ffd5b505af115801561043e573d5f5f3e3d5ffd5b505050505061063d565b5f61045a8260400151895f015161064e565b905080803b5f819003610512575f61047985604001518c5f015161073e565b90508073ffffffffffffffffffffffffffffffffffffffff168373ffffffffffffffffffffffffffffffffffffffff1614610510576040517f08c379a000000000000000000000000000000000000000000000000000000000815260206004820152601c60248201527f63616c63756c61746564206164647265737320696e636f727265637400000000604482015260640161030b565b505b61051f618000600a610cc3565b60608501516040517f40c10f1900000000000000000000000000000000000000000000000000000000815273ffffffffffffffffffffffffffffffffffffffff858116600483015260248201929092529116906340c10f19906044015f604051808303815f87803b158015610592575f5ffd5b505af11580156105a4573d5f5f3e3d5ffd5b5050506020850151606086015160808701516040517fbf7615c200000000000000000000000000000000000000000000000000000000815273ffffffffffffffffffffffffffffffffffffffff8716945063bf7615c29361060b9390929091600401611069565b5f604051808303815f87803b158015610622575f5ffd5b505af1158015610634573d5f5f3e3d5ffd5b50505050505050505b600101610364565b50505050505050565b5f61065c6180006006610cc3565b5f546040805173ffffffffffffffffffffffffffffffffffffffff878116602080840182905283850189905284518085038601815260608501865280519101206080808501929092528451808503909201825260a08401948590527f84da1fb4000000000000000000000000000000000000000000000000000000009094529416936384da1fb4936106f69330939192909160a4016110a6565b602060405180830381865afa158015610711573d5f5f3e3d5ffd5b505050506040513d601f19601f8201168201806040525081019061073591906110e0565b90505b92915050565b5f61074c6180006006610cc3565b6040805173ffffffffffffffffffffffffffffffffffffffff868116602080840182905283850188905284518085038601815260608501865280519101205f546080808601939093528551808603909301835260a08501958690527f5d382700000000000000000000000000000000000000000000000000000000009095529490911693635d382700936107e9939192909160019060a4016110fb565b6020604051808303815f875af1158015610711573d5f5f3e3d5ffd5b6108126180006002610cc3565b73ffffffffffffffffffffffffffffffffffffffff16634de2e46861083b62010000600e610cc3565b6040517fffffffff0000000000000000000000000000000000000000000000000000000060e084901b16815273ffffffffffffffffffffffffffffffffffffffff9091166004820152602401602060405180830381865afa1580156108a2573d5f5f3e3d5ffd5b505050506040513d601f19601f820116820180604052508101906108c6919061115f565b5f55565b7f4e487b71000000000000000000000000000000000000000000000000000000005f52604160045260245ffd5b60405160a0810167ffffffffffffffff8111828210171561091a5761091a6108ca565b60405290565b6040516060810167ffffffffffffffff8111828210171561091a5761091a6108ca565b604051601f82017fffffffffffffffffffffffffffffffffffffffffffffffffffffffffffffffe016810167ffffffffffffffff8111828210171561098a5761098a6108ca565b604052919050565b5f67ffffffffffffffff8211156109ab576109ab6108ca565b50601f017fffffffffffffffffffffffffffffffffffffffffffffffffffffffffffffffe01660200190565b5f82601f8301126109e6575f5ffd5b81356109f96109f482610992565b610943565b818152846020838601011115610a0d575f5ffd5b816020850160208301375f918101602001919091529392505050565b73ffffffffffffffffffffffffffffffffffffffff81168114610a4a575f5ffd5b50565b5f67ffffffffffffffff821115610a6657610a666108ca565b5060051b60200190565b5f82601f830112610a7f575f5ffd5b8135610a8d6109f482610a4d565b8082825260208201915060208360051b860101925085831115610aae575f5ffd5b602085015b83811015610acb578035835260209283019201610ab3565b5095945050505050565b8015158114610a4a575f5ffd5b8035610aed81610ad5565b919050565b5f5f5f60608486031215610b04575f5ffd5b833567ffffffffffffffff811115610b1a575f5ffd5b610b26868287016109d7565b935050602084013567ffffffffffffffff811115610b42575f5ffd5b840160a08187031215610b53575f5ffd5b610b5b6108f7565b813581526020808301359082015260408083013590820152606082013567ffffffffffffffff811115610b8c575f5ffd5b820160608189031215610b9d575f5ffd5b610ba5610920565b813561ffff81168114610bb6575f5ffd5b81526020820135610bc681610a29565b6020820152604082013567ffffffffffffffff811115610be4575f5ffd5b610bf08a8285016109d7565b604083015250606083015250608082013567ffffffffffffffff811115610c15575f5ffd5b610c2188828501610a70565b6080830152509250610c37905060408501610ae2565b90509250925092565b5f60208284031215610c50575f5ffd5b5035919050565b5f5f60408385031215610c68575f5ffd5b8235610c7381610a29565b946020939093013593505050565b7fff00000000000000000000000000000000000000000000000000000000000000831681525f82518060208501600185015e5f92016001019182525092915050565b73ffffffffffffffffffffffffffffffffffffffff8181168382160190811115610738577f4e487b71000000000000000000000000000000000000000000000000000000005f52601160045260245ffd5b5f81518084528060208401602086015e5f6020828601015260207fffffffffffffffffffffffffffffffffffffffffffffffffffffffffffffffe0601f83011685010191505092915050565b85815284602082015283604082015260a0606082015261ffff83511660a082015273ffffffffffffffffffffffffffffffffffffffff60208401511660c08201525f6040840151606060e0840152610dbc610100840182610d14565b8381036080850152845180825260208087019350909101905f5b81811015610df4578351835260209384019390920191600101610dd6565b50909998505050505050505050565b5f60208284031215610e13575f5ffd5b8151610e1e81610ad5565b9392505050565b848152836020820152826040820152608060608201525f610e496080830184610d14565b9695505050505050565b8051610aed81610a29565b5f60208284031215610e6e575f5ffd5b815167ffffffffffffffff811115610e84575f5ffd5b820160608185031215610e95575f5ffd5b610e9d610920565b81518152602082015167ffffffffffffffff811115610eba575f5ffd5b8201601f81018613610eca575f5ffd5b8051610ed86109f482610a4d565b8082825260208201915060208360051b850101925088831115610ef9575f5ffd5b602084015b8381101561101957805167ffffffffffffffff811115610f1c575f5ffd5b850160a0818c037fffffffffffffffffffffffffffffffffffffffffffffffffffffffffffffffe0011215610f4f575f5ffd5b610f576108f7565b6020820151610f6581610ad5565b81526040820151610f7581610a29565b60208201526060820151610f8881610a29565b60408201526080820151606082015260a082015167ffffffffffffffff811115610fb0575f5ffd5b6020818401019250508b601f830112610fc7575f5ffd5b8151610fd56109f482610992565b8181528d6020838601011115610fe9575f5ffd5b8160208501602083015e5f6020838301015280608084015250508085525050602083019250602081019050610efe565b5060208501525061102f91505060408301610e53565b6040820152949350505050565b7f4e487b71000000000000000000000000000000000000000000000000000000005f52603260045260245ffd5b73ffffffffffffffffffffffffffffffffffffffff84168152826020820152606060408201525f61109d6060830184610d14565b95945050505050565b73ffffffffffffffffffffffffffffffffffffffff85168152836020820152826040820152608060608201525f610e496080830184610d14565b5f602082840312156110f0575f5ffd5b8151610e1e81610a29565b848152836020820152608060408201525f6111196080830185610d14565b905060028310611150577f4e487b71000000000000000000000000000000000000000000000000000000005f52602160045260245ffd5b82606083015295945050505050565b5f6020828403121561116f575f5ffd5b505191905056fea264697066735822122044b1122991893e3a345cefbf218c783117157b8858780d22d6a67ec77f04bea464736f6c634300081c0033","linkReferences":{}},"methodIdentifiers":{"bundleExecuted(bytes32)":"23af48bc","bytecodeHash()":"420c6a2c","deployInteropAccount(address,uint256)":"aca319a0","executeBundle(bytes,(uint256,uint256,uint256,(uint16,address,bytes),bytes32[]),bool)":"09487ba9","getAliasedAccount(address,uint256)":"517ca2dd","setInteropAccountBytecode()":"dcb6cae2"},"id":46}