{"abi":[{"type":"constructor","inputs":[{"name":"_bridgehub","type":"address","internalType":"contract IBridgehub"},{"name":"_l1ChainId","type":"uint256","internalType":"uint256"},{"name":"_owner","type":"address","internalType":"address"}],"stateMutability":"nonpayable"},{"type":"function","name":"BRIDGE_HUB","inputs":[],"outputs":[{"name":"","type":"address","internalType":"contract IBridgehub"}],"stateMutability":"view"},{"type":"function","name":"L1_CHAIN_ID","inputs":[],"outputs":[{"name":"","type":"uint256","internalType":"uint256"}],"stateMutability":"view"},{"type":"function","name":"_startBundle","inputs":[{"name":"_destinationChainId","type":"uint256","internalType":"uint256"},{"name":"_sender","type":"address","internalType":"address"}],"outputs":[{"name":"bundleId","type":"bytes32","internalType":"bytes32"}],"stateMutability":"nonpayable"},{"type":"function","name":"acceptOwnership","inputs":[],"outputs":[],"stateMutability":"nonpayable"},{"type":"function","name":"addCallToBundle","inputs":[{"name":"_bundleId","type":"bytes32","internalType":"bytes32"},{"name":"_interopCallRequest","type":"tuple","internalType":"struct InteropCallRequest","components":[{"name":"to","type":"address","internalType":"address"},{"name":"value","type":"uint256","internalType":"uint256"},{"name":"data","type":"bytes","internalType":"bytes"}]}],"outputs":[],"stateMutability":"nonpayable"},{"type":"function","name":"addCallToBundleFromRequest","inputs":[{"name":"_bundleId","type":"bytes32","internalType":"bytes32"},{"name":"_value","type":"uint256","internalType":"uint256"},{"name":"_request","type":"tuple","internalType":"struct L2TransactionRequestTwoBridgesInner","components":[{"name":"magicValue","type":"bytes32","internalType":"bytes32"},{"name":"l2Contract","type":"address","internalType":"address"},{"name":"l2Calldata","type":"bytes","internalType":"bytes"},{"name":"factoryDeps","type":"bytes[]","internalType":"bytes[]"},{"name":"txDataHash","type":"bytes32","internalType":"bytes32"}]}],"outputs":[],"stateMutability":"nonpayable"},{"type":"function","name":"assetRouter","inputs":[],"outputs":[{"name":"","type":"address","internalType":"address"}],"stateMutability":"view"},{"type":"function","name":"assetTracker","inputs":[],"outputs":[{"name":"","type":"address","internalType":"contract IAssetTracker"}],"stateMutability":"view"},{"type":"function","name":"bundleCount","inputs":[],"outputs":[{"name":"","type":"uint256","internalType":"uint256"}],"stateMutability":"view"},{"type":"function","name":"finishAndSendBundle","inputs":[{"name":"_bundleId","type":"bytes32","internalType":"bytes32"},{"name":"_executionAddress","type":"address","internalType":"address"}],"outputs":[{"name":"interopBundleHash","type":"bytes32","internalType":"bytes32"}],"stateMutability":"payable"},{"type":"function","name":"forwardTransactionOnGatewayWithBalanceChange","inputs":[{"name":"_chainId","type":"uint256","internalType":"uint256"},{"name":"_canonicalTxHash","type":"bytes32","internalType":"bytes32"},{"name":"_expirationTimestamp","type":"uint64","internalType":"uint64"},{"name":"_baseTokenAmount","type":"uint256","internalType":"uint256"},{"name":"_assetId","type":"bytes32","internalType":"bytes32"},{"name":"_amount","type":"uint256","internalType":"uint256"}],"outputs":[],"stateMutability":"nonpayable"},{"type":"function","name":"initialize","inputs":[{"name":"_owner","type":"address","internalType":"address"}],"outputs":[],"stateMutability":"nonpayable"},{"type":"function","name":"l2TransactionBaseCost","inputs":[{"name":"_chainId","type":"uint256","internalType":"uint256"},{"name":"_gasPrice","type":"uint256","internalType":"uint256"},{"name":"_l2GasLimit","type":"uint256","internalType":"uint256"},{"name":"_l2GasPerPubdataByteLimit","type":"uint256","internalType":"uint256"}],"outputs":[{"name":"","type":"uint256","internalType":"uint256"}],"stateMutability":"view"},{"type":"function","name":"owner","inputs":[],"outputs":[{"name":"","type":"address","internalType":"address"}],"stateMutability":"view"},{"type":"function","name":"pause","inputs":[],"outputs":[],"stateMutability":"nonpayable"},{"type":"function","name":"paused","inputs":[],"outputs":[{"name":"","type":"bool","internalType":"bool"}],"stateMutability":"view"},{"type":"function","name":"pendingOwner","inputs":[],"outputs":[{"name":"","type":"address","internalType":"address"}],"stateMutability":"view"},{"type":"function","name":"proveL1ToL2TransactionStatus","inputs":[{"name":"_chainId","type":"uint256","internalType":"uint256"},{"name":"_l2TxHash","type":"bytes32","internalType":"bytes32"},{"name":"_l2BatchNumber","type":"uint256","internalType":"uint256"},{"name":"_l2MessageIndex","type":"uint256","internalType":"uint256"},{"name":"_l2TxNumberInBatch","type":"uint16","internalType":"uint16"},{"name":"_merkleProof","type":"bytes32[]","internalType":"bytes32[]"},{"name":"_status","type":"uint8","internalType":"enum TxStatus"}],"outputs":[{"name":"","type":"bool","internalType":"bool"}],"stateMutability":"view"},{"type":"function","name":"proveL2LogInclusion","inputs":[{"name":"_chainId","type":"uint256","internalType":"uint256"},{"name":"_batchNumber","type":"uint256","internalType":"uint256"},{"name":"_index","type":"uint256","internalType":"uint256"},{"name":"_log","type":"tuple","internalType":"struct L2Log","components":[{"name":"l2ShardId","type":"uint8","internalType":"uint8"},{"name":"isService","type":"bool","internalType":"bool"},{"name":"txNumberInBatch","type":"uint16","internalType":"uint16"},{"name":"sender","type":"address","internalType":"address"},{"name":"key","type":"bytes32","internalType":"bytes32"},{"name":"value","type":"bytes32","internalType":"bytes32"}]},{"name":"_proof","type":"bytes32[]","internalType":"bytes32[]"}],"outputs":[{"name":"","type":"bool","internalType":"bool"}],"stateMutability":"view"},{"type":"function","name":"proveL2MessageInclusion","inputs":[{"name":"_chainId","type":"uint256","internalType":"uint256"},{"name":"_batchNumber","type":"uint256","internalType":"uint256"},{"name":"_index","type":"uint256","internalType":"uint256"},{"name":"_message","type":"tuple","internalType":"struct L2Message","components":[{"name":"txNumberInBatch","type":"uint16","internalType":"uint16"},{"name":"sender","type":"address","internalType":"address"},{"name":"data","type":"bytes","internalType":"bytes"}]},{"name":"_proof","type":"bytes32[]","internalType":"bytes32[]"}],"outputs":[{"name":"","type":"bool","internalType":"bool"}],"stateMutability":"view"},{"type":"function","name":"renounceOwnership","inputs":[],"outputs":[],"stateMutability":"nonpayable"},{"type":"function","name":"requestInterop","inputs":[{"name":"_destinationChainId","type":"uint256","internalType":"uint256"},{"name":"_executionAddress","type":"address","internalType":"address"},{"name":"_feePaymentCallStarters","type":"tuple[]","internalType":"struct InteropCallStarter[]","components":[{"name":"directCall","type":"bool","internalType":"bool"},{"name":"nextContract","type":"address","internalType":"address"},{"name":"data","type":"bytes","internalType":"bytes"},{"name":"value","type":"uint256","internalType":"uint256"},{"name":"requestedInteropCallValue","type":"uint256","internalType":"uint256"}]},{"name":"_executionCallStarters","type":"tuple[]","internalType":"struct InteropCallStarter[]","components":[{"name":"directCall","type":"bool","internalType":"bool"},{"name":"nextContract","type":"address","internalType":"address"},{"name":"data","type":"bytes","internalType":"bytes"},{"name":"value","type":"uint256","internalType":"uint256"},{"name":"requestedInteropCallValue","type":"uint256","internalType":"uint256"}]},{"name":"_gasFields","type":"tuple","internalType":"struct GasFields","components":[{"name":"gasLimit","type":"uint256","internalType":"uint256"},{"name":"gasPerPubdataByteLimit","type":"uint256","internalType":"uint256"},{"name":"refundRecipient","type":"address","internalType":"address"},{"name":"paymaster","type":"address","internalType":"address"},{"name":"paymasterInput","type":"bytes","internalType":"bytes"}]}],"outputs":[{"name":"canonicalTxHash","type":"bytes32","internalType":"bytes32"}],"stateMutability":"payable"},{"type":"function","name":"requestInteropSingleCall","inputs":[{"name":"_request","type":"tuple","internalType":"struct L2TransactionRequestTwoBridgesOuter","components":[{"name":"chainId","type":"uint256","internalType":"uint256"},{"name":"mintValue","type":"uint256","internalType":"uint256"},{"name":"l2Value","type":"uint256","internalType":"uint256"},{"name":"l2GasLimit","type":"uint256","internalType":"uint256"},{"name":"l2GasPerPubdataByteLimit","type":"uint256","internalType":"uint256"},{"name":"refundRecipient","type":"address","internalType":"address"},{"name":"secondBridgeAddress","type":"address","internalType":"address"},{"name":"secondBridgeValue","type":"uint256","internalType":"uint256"},{"name":"secondBridgeCalldata","type":"bytes","internalType":"bytes"}]}],"outputs":[{"name":"canonicalTxHash","type":"bytes32","internalType":"bytes32"}],"stateMutability":"payable"},{"type":"function","name":"requestInteropSingleDirectCall","inputs":[{"name":"_request","type":"tuple","internalType":"struct L2TransactionRequestDirect","components":[{"name":"chainId","type":"uint256","internalType":"uint256"},{"name":"mintValue","type":"uint256","internalType":"uint256"},{"name":"l2Contract","type":"address","internalType":"address"},{"name":"l2Value","type":"uint256","internalType":"uint256"},{"name":"l2Calldata","type":"bytes","internalType":"bytes"},{"name":"l2GasLimit","type":"uint256","internalType":"uint256"},{"name":"l2GasPerPubdataByteLimit","type":"uint256","internalType":"uint256"},{"name":"factoryDeps","type":"bytes[]","internalType":"bytes[]"},{"name":"refundRecipient","type":"address","internalType":"address"}]}],"outputs":[{"name":"canonicalTxHash","type":"bytes32","internalType":"bytes32"}],"stateMutability":"payable"},{"type":"function","name":"requestL2TransactionDirect","inputs":[{"name":"_request","type":"tuple","internalType":"struct L2TransactionRequestDirect","components":[{"name":"chainId","type":"uint256","internalType":"uint256"},{"name":"mintValue","type":"uint256","internalType":"uint256"},{"name":"l2Contract","type":"address","internalType":"address"},{"name":"l2Value","type":"uint256","internalType":"uint256"},{"name":"l2Calldata","type":"bytes","internalType":"bytes"},{"name":"l2GasLimit","type":"uint256","internalType":"uint256"},{"name":"l2GasPerPubdataByteLimit","type":"uint256","internalType":"uint256"},{"name":"factoryDeps","type":"bytes[]","internalType":"bytes[]"},{"name":"refundRecipient","type":"address","internalType":"address"}]}],"outputs":[{"name":"canonicalTxHash","type":"bytes32","internalType":"bytes32"}],"stateMutability":"payable"},{"type":"function","name":"requestL2TransactionDirectSender","inputs":[{"name":"_sender","type":"address","internalType":"address"},{"name":"_request","type":"tuple","internalType":"struct L2TransactionRequestDirect","components":[{"name":"chainId","type":"uint256","internalType":"uint256"},{"name":"mintValue","type":"uint256","internalType":"uint256"},{"name":"l2Contract","type":"address","internalType":"address"},{"name":"l2Value","type":"uint256","internalType":"uint256"},{"name":"l2Calldata","type":"bytes","internalType":"bytes"},{"name":"l2GasLimit","type":"uint256","internalType":"uint256"},{"name":"l2GasPerPubdataByteLimit","type":"uint256","internalType":"uint256"},{"name":"factoryDeps","type":"bytes[]","internalType":"bytes[]"},{"name":"refundRecipient","type":"address","internalType":"address"}]}],"outputs":[{"name":"canonicalTxHash","type":"bytes32","internalType":"bytes32"}],"stateMutability":"payable"},{"type":"function","name":"requestL2TransactionTwoBridges","inputs":[{"name":"_request","type":"tuple","internalType":"struct L2TransactionRequestTwoBridgesOuter","components":[{"name":"chainId","type":"uint256","internalType":"uint256"},{"name":"mintValue","type":"uint256","internalType":"uint256"},{"name":"l2Value","type":"uint256","internalType":"uint256"},{"name":"l2GasLimit","type":"uint256","internalType":"uint256"},{"name":"l2GasPerPubdataByteLimit","type":"uint256","internalType":"uint256"},{"name":"refundRecipient","type":"address","internalType":"address"},{"name":"secondBridgeAddress","type":"address","internalType":"address"},{"name":"secondBridgeValue","type":"uint256","internalType":"uint256"},{"name":"secondBridgeCalldata","type":"bytes","internalType":"bytes"}]}],"outputs":[{"name":"canonicalTxHash","type":"bytes32","internalType":"bytes32"}],"stateMutability":"payable"},{"type":"function","name":"requestL2TransactionTwoBridgesSender","inputs":[{"name":"_sender","type":"address","internalType":"address"},{"name":"_request","type":"tuple","internalType":"struct L2TransactionRequestTwoBridgesOuter","components":[{"name":"chainId","type":"uint256","internalType":"uint256"},{"name":"mintValue","type":"uint256","internalType":"uint256"},{"name":"l2Value","type":"uint256","internalType":"uint256"},{"name":"l2GasLimit","type":"uint256","internalType":"uint256"},{"name":"l2GasPerPubdataByteLimit","type":"uint256","internalType":"uint256"},{"name":"refundRecipient","type":"address","internalType":"address"},{"name":"secondBridgeAddress","type":"address","internalType":"address"},{"name":"secondBridgeValue","type":"uint256","internalType":"uint256"},{"name":"secondBridgeCalldata","type":"bytes","internalType":"bytes"}]}],"outputs":[{"name":"canonicalTxHash","type":"bytes32","internalType":"bytes32"}],"stateMutability":"payable"},{"type":"function","name":"sendCall","inputs":[{"name":"_destinationChainId","type":"uint256","internalType":"uint256"},{"name":"_destinationAddress","type":"address","internalType":"address"},{"name":"_data","type":"bytes","internalType":"bytes"},{"name":"_value","type":"uint256","internalType":"uint256"}],"outputs":[{"name":"","type":"bytes32","internalType":"bytes32"}],"stateMutability":"payable"},{"type":"function","name":"sendInteropTrigger","inputs":[{"name":"_interopTrigger","type":"tuple","internalType":"struct InteropTrigger","components":[{"name":"destinationChainId","type":"uint256","internalType":"uint256"},{"name":"sender","type":"address","internalType":"address"},{"name":"recipient","type":"address","internalType":"address"},{"name":"feeBundleHash","type":"bytes32","internalType":"bytes32"},{"name":"executionBundleHash","type":"bytes32","internalType":"bytes32"},{"name":"gasFields","type":"tuple","internalType":"struct GasFields","components":[{"name":"gasLimit","type":"uint256","internalType":"uint256"},{"name":"gasPerPubdataByteLimit","type":"uint256","internalType":"uint256"},{"name":"refundRecipient","type":"address","internalType":"address"},{"name":"paymaster","type":"address","internalType":"address"},{"name":"paymasterInput","type":"bytes","internalType":"bytes"}]}]}],"outputs":[{"name":"canonicalTxHash","type":"bytes32","internalType":"bytes32"}],"stateMutability":"nonpayable"},{"type":"function","name":"sendMessage","inputs":[{"name":"_msg","type":"bytes","internalType":"bytes"}],"outputs":[{"name":"canonicalTxHash","type":"bytes32","internalType":"bytes32"}],"stateMutability":"nonpayable"},{"type":"function","name":"setAddresses","inputs":[{"name":"_assetRouter","type":"address","internalType":"address"},{"name":"_assetTracker","type":"address","internalType":"address"}],"outputs":[],"stateMutability":"nonpayable"},{"type":"function","name":"startBundle","inputs":[{"name":"_destinationChainId","type":"uint256","internalType":"uint256"}],"outputs":[{"name":"bundleId","type":"bytes32","internalType":"bytes32"}],"stateMutability":"nonpayable"},{"type":"function","name":"transferOwnership","inputs":[{"name":"newOwner","type":"address","internalType":"address"}],"outputs":[],"stateMutability":"nonpayable"},{"type":"function","name":"unpause","inputs":[],"outputs":[],"stateMutability":"nonpayable"},{"type":"event","name":"Initialized","inputs":[{"name":"version","type":"uint8","indexed":false,"internalType":"uint8"}],"anonymous":false},{"type":"event","name":"InteropBundleSent","inputs":[{"name":"l2l1TxHash","type":"bytes32","indexed":false,"internalType":"bytes32"},{"name":"interopBundleHash","type":"bytes32","indexed":false,"internalType":"bytes32"},{"name":"interopBundle","type":"tuple","indexed":false,"internalType":"struct InteropBundle","components":[{"name":"destinationChainId","type":"uint256","internalType":"uint256"},{"name":"calls","type":"tuple[]","internalType":"struct InteropCall[]","components":[{"name":"directCall","type":"bool","internalType":"bool"},{"name":"to","type":"address","internalType":"address"},{"name":"from","type":"address","internalType":"address"},{"name":"value","type":"uint256","internalType":"uint256"},{"name":"data","type":"bytes","internalType":"bytes"}]},{"name":"executionAddress","type":"address","internalType":"address"}]}],"anonymous":false},{"type":"event","name":"InteropTriggerSent","inputs":[{"name":"l2l11TxHash","type":"bytes32","indexed":false,"internalType":"bytes32"},{"name":"_interopTrigger","type":"tuple","indexed":false,"internalType":"struct InteropTrigger","components":[{"name":"destinationChainId","type":"uint256","internalType":"uint256"},{"name":"sender","type":"address","internalType":"address"},{"name":"recipient","type":"address","internalType":"address"},{"name":"feeBundleHash","type":"bytes32","internalType":"bytes32"},{"name":"executionBundleHash","type":"bytes32","internalType":"bytes32"},{"name":"gasFields","type":"tuple","internalType":"struct GasFields","components":[{"name":"gasLimit","type":"uint256","internalType":"uint256"},{"name":"gasPerPubdataByteLimit","type":"uint256","internalType":"uint256"},{"name":"refundRecipient","type":"address","internalType":"address"},{"name":"paymaster","type":"address","internalType":"address"},{"name":"paymasterInput","type":"bytes","internalType":"bytes"}]}]}],"anonymous":false},{"type":"event","name":"OwnershipTransferStarted","inputs":[{"name":"previousOwner","type":"address","indexed":true,"internalType":"address"},{"name":"newOwner","type":"address","indexed":true,"internalType":"address"}],"anonymous":false},{"type":"event","name":"OwnershipTransferred","inputs":[{"name":"previousOwner","type":"address","indexed":true,"internalType":"address"},{"name":"newOwner","type":"address","indexed":true,"internalType":"address"}],"anonymous":false},{"type":"event","name":"Paused","inputs":[{"name":"account","type":"address","indexed":false,"internalType":"address"}],"anonymous":false},{"type":"event","name":"Unpaused","inputs":[{"name":"account","type":"address","indexed":false,"internalType":"address"}],"anonymous":false},{"type":"error","name":"ChainIdNotRegistered","inputs":[{"name":"chainId","type":"uint256","internalType":"uint256"}]},{"type":"error","name":"DirectCallNonEmptyValue","inputs":[{"name":"nextContract","type":"address","internalType":"address"}]},{"type":"error","name":"MsgValueMismatch","inputs":[{"name":"expectedMsgValue","type":"uint256","internalType":"uint256"},{"name":"providedMsgValue","type":"uint256","internalType":"uint256"}]},{"type":"error","name":"NotInGatewayMode","inputs":[]},{"type":"error","name":"NotInitializedReentrancyGuard","inputs":[]},{"type":"error","name":"Reentrancy","inputs":[]},{"type":"error","name":"SecondBridgeAddressTooLow","inputs":[{"name":"secondBridgeAddress","type":"address","internalType":"address"},{"name":"minSecondBridgeAddress","type":"address","internalType":"address"}]},{"type":"error","name":"SlotOccupied","inputs":[]},{"type":"error","name":"Unauthorized","inputs":[{"name":"caller","type":"address","internalType":"address"}]},{"type":"error","name":"WrongMagicValue","inputs":[{"name":"expectedMagicValue","type":"uint256","internalType":"uint256"},{"name":"providedMagicValue","type":"uint256","internalType":"uint256"}]}],"bytecode":{"object":"0x60e060405234801561000f575f5ffd5b5060405161619038038061619083398101604081905261002e91610242565b61003661006f565b61003e6100b9565b6001600160a01b03831660805260a082905261005b826001610175565b60c052610067816101c9565b5050506102ad565b7f8e94fed44239eb2314ab7a406345e6c5a8f0ccedf3b600de3d004e672c33abf48054600190915580156100b65760405163df3a8fdd60e01b815260040160405180910390fd5b50565b5f54610100900460ff16156101245760405162461bcd60e51b815260206004820152602760248201527f496e697469616c697a61626c653a20636f6e747261637420697320696e697469604482015266616c697a696e6760c81b606482015260840160405180910390fd5b5f5460ff90811614610173575f805460ff191660ff9081179091556040519081527f7f26b83ff96e1f2b6a682f133852f6798a09c465da95921460cefb38474024989060200160405180910390a15b565b5f82610185620100006004610282565b6040805160208101939093526001600160a01b0391821690830152831660608201526080016040516020818303038152906040528051906020012090505b92915050565b606580546001600160a01b03191690556100b681603380546001600160a01b038381166001600160a01b0319831681179093556040519116919082907f8be0079c531659141344cd1fd0a4f28419497f9722a3daafe3b4186f6b6457e0905f90a35050565b6001600160a01b03811681146100b6575f5ffd5b5f5f5f60608486031215610254575f5ffd5b835161025f8161022e565b6020850151604086015191945092506102778161022e565b809150509250925092565b6001600160a01b0381811683821601908111156101c357634e487b7160e01b5f52601160045260245ffd5b60805160a05160c051615dcb6103c55f395f8181611bc10152818161324001528181613757015261421001525f8181610296015281816106740152818161078e015281816108920152818161094601528181610ccc015281816110140152818161107b015281816113aa0152818161157b015281816115d70152818161170601528181611a2401528181612ac7015281816131350152818161355601526142cf01525f8181610347015281816109ce01528181610bb401528181610d8501528181610e48015281816112180152818161134201528181611459015281816117e801528181611b3e01528181611ead01528181612288015281816131be015281816136d501528181613c51015261418d0152615dcb5ff3fe608060405260043610610229575f3560e01c80638456cb5911610131578063bfa47de1116100ac578063d5c191511161007c578063e30c397811610062578063e30c3978146105f6578063e6d9923b14610620578063f2fde38b1461063f575f5ffd5b8063d5c19151146105c2578063e2355bea146105d7575f5ffd5b8063bfa47de114610551578063c4d66de81461057d578063d15c23731461059c578063d52471c1146105af575f5ffd5b806399c16d1a11610101578063b1cb70ea116100e7578063b1cb70ea146104e7578063b292f5f114610506578063bc0aac1014610525575f5ffd5b806399c16d1a146104b55780639da3858a146104d4575f5ffd5b80638456cb591461044557806389f91e77146104595780638da5cb5b1461046c57806390107afe14610496575f5ffd5b80635c975abb116101c1578063715018a61161019157806379ba50971161017757806379ba5097146103f35780637cc516a51461040757806382646a5814610426575f5ffd5b8063715018a6146103c057806371623274146103d4575f5ffd5b80635c975abb146103135780635d4edca71461033657806368bac3c21461038e5780636d66bf26146103ad575f5ffd5b80633a8d8a48116101fc5780633a8d8a48146102b85780633f4ba83a146102cb5780634fb64d53146102e15780635c381d9a146102f4575f5ffd5b806324fd57fb1461022d57806325a1e93e146102535780632cdead61146102665780632f90b18414610285575b5f5ffd5b61024061023b36600461471e565b61065e565b6040519081526020015b60405180910390f35b61024061026136600461471e565b610670565b348015610271575f5ffd5b5061024061028036600461477c565b6106e0565b348015610290575f5ffd5b506102407f000000000000000000000000000000000000000000000000000000000000000081565b6102406102c63660046147ef565b61078a565b3480156102d6575f5ffd5b506102df61087c565b005b6102406102ef36600461471e565b61088e565b3480156102ff575f5ffd5b506102df61030e36600461484e565b6108f4565b34801561031e575f5ffd5b5060975460ff165b604051901515815260200161024a565b348015610341575f5ffd5b506103697f000000000000000000000000000000000000000000000000000000000000000081565b60405173ffffffffffffffffffffffffffffffffffffffff909116815260200161024a565b348015610399575f5ffd5b506102df6103a8366004614a99565b610cc9565b6102406103bb366004614b81565b610d6c565b3480156103cb575f5ffd5b506102df610def565b3480156103df575f5ffd5b506102406103ee366004614bce565b610e00565b3480156103fe575f5ffd5b506102df610f5b565b348015610412575f5ffd5b50610240610421366004614bfd565b611010565b348015610431575f5ffd5b50610240610440366004614c14565b611077565b348015610450575f5ffd5b506102df61115a565b61024061046736600461477c565b61116a565b348015610477575f5ffd5b5060335473ffffffffffffffffffffffffffffffffffffffff16610369565b3480156104a1575f5ffd5b506102df6104b0366004614c53565b611175565b3480156104c0575f5ffd5b506103266104cf366004614cc0565b6111d0565b6102406104e2366004614b81565b611329565b3480156104f2575f5ffd5b506102df610501366004614d4a565b6113a7565b348015610511575f5ffd5b50610326610520366004614e0e565b611411565b348015610530575f5ffd5b5060c9546103699073ffffffffffffffffffffffffffffffffffffffff1681565b34801561055c575f5ffd5b5060ca546103699073ffffffffffffffffffffffffffffffffffffffff1681565b348015610588575f5ffd5b506102df610597366004614e99565b611570565b6102406105aa366004615051565b6115d3565b6102406105bd36600461471e565b6116f5565b3480156105cd575f5ffd5b5061024060cb5481565b3480156105e2575f5ffd5b506102406105f13660046150fb565b611700565b348015610601575f5ffd5b5060655473ffffffffffffffffffffffffffffffffffffffff16610369565b34801561062b575f5ffd5b5061032661063a3660046151ab565b6117a0565b34801561064a575f5ffd5b506102df610659366004614e99565b6118ae565b5f61066a335f8461195e565b92915050565b5f467f0000000000000000000000000000000000000000000000000000000000000000036106d1576040517f8e4a23d60000000000000000000000000000000000000000000000000000000081523360048201526024015b60405180910390fd5b61066a823361237c565b919050565b60cb8054604080516020808201849052606086901b7fffffffffffffffffffffffffffffffffffffffff000000000000000000000000168284015260548083018890528351808403909101815260749092019092528051910120915f61074583615251565b919050555061066a8160405180608001604052808681526020018573ffffffffffffffffffffffffffffffffffffffff1681526020015f81526020015f815250612742565b5f857f000000000000000000000000000000000000000000000000000000000000000081036107e7576040517f8e4a23d60000000000000000000000000000000000000000000000000000000081523360048201526024016106c8565b5f6107f288336106e0565b90506108628160405180606001604052808a73ffffffffffffffffffffffffffffffffffffffff16815260200187815260200189898080601f0160208091040260200160405190810160405280939291908181526020018383808284375f92019190915250505091525033612807565b5f61086f825f34336128b1565b9998505050505050505050565b610884612beb565b61088c612c6c565b565b5f467f0000000000000000000000000000000000000000000000000000000000000000036108ea576040517f8e4a23d60000000000000000000000000000000000000000000000000000000081523360048201526024016106c8565b61066a8233612ce9565b3373111111111111111111111111111111111111111114610943576040517f8e4a23d60000000000000000000000000000000000000000000000000000000081523360048201526024016106c8565b467f00000000000000000000000000000000000000000000000000000000000000000361099c576040517f472477e200000000000000000000000000000000000000000000000000000000815260040160405180910390fd5b8215610add576109b062010000600d615288565b73ffffffffffffffffffffffffffffffffffffffff1663307bf32c877f000000000000000000000000000000000000000000000000000000000000000073ffffffffffffffffffffffffffffffffffffffff1663e52db4ca8a6040518263ffffffff1660e01b8152600401610a2791815260200190565b602060405180830381865afa158015610a42573d5f5f3e3d5ffd5b505050506040513d601f19601f82011682018060405250810190610a6691906152b4565b6040517fffffffff0000000000000000000000000000000000000000000000000000000060e085901b16815260048101929092526024820152604481018690525f60648201526084015f604051808303815f87803b158015610ac6575f5ffd5b505af1158015610ad8573d5f5f3e3d5ffd5b505050505b8015610b8357610af162010000600d615288565b6040517f307bf32c0000000000000000000000000000000000000000000000000000000081526004810188905260248101849052604481018390525f606482015273ffffffffffffffffffffffffffffffffffffffff919091169063307bf32c906084015f604051808303815f87803b158015610b6c575f5ffd5b505af1158015610b7e573d5f5f3e3d5ffd5b505050505b6040517fe680c4c1000000000000000000000000000000000000000000000000000000008152600481018790525f907f000000000000000000000000000000000000000000000000000000000000000073ffffffffffffffffffffffffffffffffffffffff169063e680c4c190602401602060405180830381865afa158015610c0e573d5f5f3e3d5ffd5b505050506040513d601f19601f82011682018060405250810190610c3291906152cb565b6040517fddcc9eec0000000000000000000000000000000000000000000000000000000081526004810188905267ffffffffffffffff8716602482015290915073ffffffffffffffffffffffffffffffffffffffff82169063ddcc9eec906044015f604051808303815f87803b158015610caa575f5ffd5b505af1158015610cbc573d5f5f3e3d5ffd5b5050505050505050505050565b467f000000000000000000000000000000000000000000000000000000000000000003610d24576040517f8e4a23d60000000000000000000000000000000000000000000000000000000081523360048201526024016106c8565b610d67836040518060600160405280846020015173ffffffffffffffffffffffffffffffffffffffff168152602001858152602001846040015181525033612807565b505050565b5f3373ffffffffffffffffffffffffffffffffffffffff7f00000000000000000000000000000000000000000000000000000000000000001614610dde576040517f8e4a23d60000000000000000000000000000000000000000000000000000000081523360048201526024016106c8565b610de8838361306f565b9392505050565b610df7612beb565b61088c5f6134c7565b6040517fe680c4c1000000000000000000000000000000000000000000000000000000008152600481018590525f90819073ffffffffffffffffffffffffffffffffffffffff7f0000000000000000000000000000000000000000000000000000000000000000169063e680c4c190602401602060405180830381865afa158015610e8d573d5f5f3e3d5ffd5b505050506040513d601f19601f82011682018060405250810190610eb191906152cb565b6040517fb473318e00000000000000000000000000000000000000000000000000000000815260048101879052602481018690526044810185905290915073ffffffffffffffffffffffffffffffffffffffff82169063b473318e90606401602060405180830381865afa158015610f2b573d5f5f3e3d5ffd5b505050506040513d601f19601f82011682018060405250810190610f4f91906152b4565b9150505b949350505050565b606554339073ffffffffffffffffffffffffffffffffffffffff168114611004576040517f08c379a000000000000000000000000000000000000000000000000000000000815260206004820152602960248201527f4f776e61626c6532537465703a2063616c6c6572206973206e6f74207468652060448201527f6e6577206f776e6572000000000000000000000000000000000000000000000060648201526084016106c8565b61100d816134c7565b50565b5f817f0000000000000000000000000000000000000000000000000000000000000000810361106d576040517f8e4a23d60000000000000000000000000000000000000000000000000000000081523360048201526024016106c8565b610de883336106e0565b5f467f0000000000000000000000000000000000000000000000000000000000000000036110d3576040517f8e4a23d60000000000000000000000000000000000000000000000000000000081523360048201526024016106c8565b6110e06180006008615288565b73ffffffffffffffffffffffffffffffffffffffff166362f84b2484846040518363ffffffff1660e01b815260040161111a92919061532d565b6020604051808303815f875af1158015611136573d5f5f3e3d5ffd5b505050506040513d601f19601f82011682018060405250810190610de891906152b4565b611162612beb565b61088c6134f8565b5f610de88383613553565b61117d612beb565b60c9805473ffffffffffffffffffffffffffffffffffffffff9384167fffffffffffffffffffffffff00000000000000000000000000000000000000009182161790915560ca8054929093169116179055565b6040517fe680c4c1000000000000000000000000000000000000000000000000000000008152600481018790525f90819073ffffffffffffffffffffffffffffffffffffffff7f0000000000000000000000000000000000000000000000000000000000000000169063e680c4c190602401602060405180830381865afa15801561125d573d5f5f3e3d5ffd5b505050506040513d601f19601f8201168201806040525081019061128191906152cb565b6040517fe4948f4300000000000000000000000000000000000000000000000000000000815290915073ffffffffffffffffffffffffffffffffffffffff82169063e4948f43906112de908a908a908a908a908a90600401615389565b602060405180830381865afa1580156112f9573d5f5f3e3d5ffd5b505050506040513d601f19601f8201168201806040525081019061131d919061545f565b98975050505050505050565b5f3373ffffffffffffffffffffffffffffffffffffffff7f0000000000000000000000000000000000000000000000000000000000000000161461139b576040517f8e4a23d60000000000000000000000000000000000000000000000000000000081523360048201526024016106c8565b610de88360018461195e565b467f000000000000000000000000000000000000000000000000000000000000000003611402576040517f8e4a23d60000000000000000000000000000000000000000000000000000000081523360048201526024016106c8565b61140d828233612807565b5050565b6040517fe680c4c1000000000000000000000000000000000000000000000000000000008152600481018990525f90819073ffffffffffffffffffffffffffffffffffffffff7f0000000000000000000000000000000000000000000000000000000000000000169063e680c4c190602401602060405180830381865afa15801561149e573d5f5f3e3d5ffd5b505050506040513d601f19601f820116820180604052508101906114c291906152cb565b6040517f042901c700000000000000000000000000000000000000000000000000000000815290915073ffffffffffffffffffffffffffffffffffffffff82169063042901c790611523908c908c908c908c908c908c908c9060040161547a565b602060405180830381865afa15801561153e573d5f5f3e3d5ffd5b505050506040513d601f19601f82011682018060405250810190611562919061545f565b9a9950505050505050505050565b61157861360f565b467f000000000000000000000000000000000000000000000000000000000000000014611004576040517f8e4a23d60000000000000000000000000000000000000000000000000000000081523360048201526024016106c8565b5f857f00000000000000000000000000000000000000000000000000000000000000008103611630576040517f8e4a23d60000000000000000000000000000000000000000000000000000000081523360048201526024016106c8565b6116ea8786868660405180608001604052803373ffffffffffffffffffffffffffffffffffffffff1681526020018c73ffffffffffffffffffffffffffffffffffffffff1681526020015f73ffffffffffffffffffffffffffffffffffffffff1681526020015f67ffffffffffffffff8111156116af576116af6148a9565b6040519080825280602002602001820160405280156116e257816020015b60608152602001906001900390816116cd5790505b50905261366f565b979650505050505050565b5f61066a338361306f565b80515f907f0000000000000000000000000000000000000000000000000000000000000000810361175f576040517f8e4a23d60000000000000000000000000000000000000000000000000000000081523360048201526024016106c8565b604080515f80825260208201909252611799918591819081611791565b606081526020019060019003908161177c5790505b505f5f613a5b565b5050919050565b6040517fe680c4c1000000000000000000000000000000000000000000000000000000008152600481018790525f90819073ffffffffffffffffffffffffffffffffffffffff7f0000000000000000000000000000000000000000000000000000000000000000169063e680c4c190602401602060405180830381865afa15801561182d573d5f5f3e3d5ffd5b505050506040513d601f19601f8201168201806040525081019061185191906152cb565b6040517f263b7f8e00000000000000000000000000000000000000000000000000000000815290915073ffffffffffffffffffffffffffffffffffffffff82169063263b7f8e906112de908a908a908a908a908a906004016154f2565b6118b6612beb565b6065805473ffffffffffffffffffffffffffffffffffffffff83167fffffffffffffffffffffffff0000000000000000000000000000000000000000909116811790915561191960335473ffffffffffffffffffffffffffffffffffffffff1690565b73ffffffffffffffffffffffffffffffffffffffff167f38d16b8cac22d99fc7c124b9cd0de2d3fa1faef420bfe791d8c362d765e2270060405160405180910390a350565b7f8e94fed44239eb2314ab7a406345e6c5a8f0ccedf3b600de3d004e672c33abf4545f908082036119bb576040517fdd7e362100000000000000000000000000000000000000000000000000000000815260040160405180910390fd5b600181146119f5576040517fab143c0600000000000000000000000000000000000000000000000000000000815260040160405180910390fd5b60027f8e94fed44239eb2314ab7a406345e6c5a8f0ccedf3b600de3d004e672c33abf455611a21613b86565b467f000000000000000000000000000000000000000000000000000000000000000014611a7c576040517f8e4a23d60000000000000000000000000000000000000000000000000000000081523360048201526024016106c8565b61ffff611a8f60e0850160c08601614e99565b73ffffffffffffffffffffffffffffffffffffffff1611611b0d57611aba60e0840160c08501614e99565b6040517fb78dbaa700000000000000000000000000000000000000000000000000000000815273ffffffffffffffffffffffffffffffffffffffff909116600482015261ffff60248201526044016106c8565b6040517fe52db4ca000000000000000000000000000000000000000000000000000000008152833560048201525f907f000000000000000000000000000000000000000000000000000000000000000073ffffffffffffffffffffffffffffffffffffffff169063e52db4ca90602401602060405180830381865afa158015611b98573d5f5f3e3d5ffd5b505050506040513d601f19601f82011682018060405250810190611bbc91906152b4565b90505f7f0000000000000000000000000000000000000000000000000000000000000000821480611beb575081155b15611c6157611c0260e08601356020870135615592565b3414611c5657611c1a60e08601356020870135615592565b6040517f4a09443100000000000000000000000000000000000000000000000000000000815260048101919091523460248201526044016106c8565b506020840135611cad565b8460e001353414611caa576040517f4a09443100000000000000000000000000000000000000000000000000000000815260e086013560048201523460248201526044016106c8565b505f5b60c9546040517fc4879440000000000000000000000000000000000000000000000000000000008152863560048201526024810184905273ffffffffffffffffffffffffffffffffffffffff8981166044830152602088013560648301529091169063c48794409083906084015f604051808303818588803b158015611d31575f5ffd5b505af1158015611d43573d5f5f3e3d5ffd5b50505050505050611d8f6040518060a001604052805f81526020015f73ffffffffffffffffffffffffffffffffffffffff16815260200160608152602001606081526020015f81525090565b60c95473ffffffffffffffffffffffffffffffffffffffff16611db860e0860160c08701614e99565b73ffffffffffffffffffffffffffffffffffffffff161480611dd8575084155b15611eab57611ded60e0850160c08601614e99565b73ffffffffffffffffffffffffffffffffffffffff1663ca408c2360e08601358635896040890135611e236101008b018b6155a5565b6040518763ffffffff1660e01b8152600401611e43959493929190615606565b5f6040518083038185885af1158015611e5e573d5f5f3e3d5ffd5b50505050506040513d5f823e601f3d9081017fffffffffffffffffffffffffffffffffffffffffffffffffffffffffffffffe0168201604052611ea4919081019061568e565b9050612021565b7f000000000000000000000000000000000000000000000000000000000000000073ffffffffffffffffffffffffffffffffffffffff1663be9367118560e001356040518060a001604052808860c0016020810190611f0a9190614e99565b73ffffffffffffffffffffffffffffffffffffffff9081168252893560208301528b166040808301919091528901356060820152608001611f4f6101008a018a6155a5565b8080601f0160208091040260200160405190810160405280939291908181526020018383808284375f9201919091525050509152506040517fffffffff0000000000000000000000000000000000000000000000000000000060e085901b168152611fbd9190600401615811565b5f6040518083038185885af1158015611fd8573d5f5f3e3d5ffd5b50505050506040513d5f823e601f3d9081017fffffffffffffffffffffffffffffffffffffffffffffffffffffffffffffffe016820160405261201e919081019061568e565b90505b61204c60017fa175e001c0e5684bc26302c2f9a55aec9f3936fe2aef558034003ef4da7fc77e61587f565b8151146120bb5761207e60017fa175e001c0e5684bc26302c2f9a55aec9f3936fe2aef558034003ef4da7fc77e61587f565b81516040517f15e8e429000000000000000000000000000000000000000000000000000000008152600481019290925260248201526044016106c8565b61218484356120d060c0870160a08801614e99565b604080516101208101909152806120ed60e08a0160c08b01614e99565b73ffffffffffffffffffffffffffffffffffffffff168152602001856020015173ffffffffffffffffffffffffffffffffffffffff1681526020018860200135815260200188604001358152602001856040015181526020018860600135815260200188608001358152602001856060015181526020015f73ffffffffffffffffffffffffffffffffffffffff1681525089613bf3565b60c95490935073ffffffffffffffffffffffffffffffffffffffff166121b060e0860160c08701614e99565b73ffffffffffffffffffffffffffffffffffffffff1603612271576121db60e0850160c08601614e99565b60808201516040517f8eb7db570000000000000000000000000000000000000000000000000000000081528635600482015260248101919091526044810185905273ffffffffffffffffffffffffffffffffffffffff9190911690638eb7db57906064015f604051808303815f87803b158015612256575f5ffd5b505af1158015612268573d5f5f3e3d5ffd5b5050505061234f565b73ffffffffffffffffffffffffffffffffffffffff7f00000000000000000000000000000000000000000000000000000000000000001663e0e4585d6122bd60e0870160c08801614e99565b608084015160405160e084901b7fffffffff0000000000000000000000000000000000000000000000000000000016815273ffffffffffffffffffffffffffffffffffffffff9092166004830152873560248301526044820152606481018690526084015f604051808303815f87803b158015612338575f5ffd5b505af115801561234a573d5f5f3e3d5ffd5b505050505b5060017f8e94fed44239eb2314ab7a406345e6c5a8f0ccedf3b600de3d004e672c33abf455509392505050565b6040805160018082528183019092525f91829190816020015b6123db6040518060a001604052805f151581526020015f73ffffffffffffffffffffffffffffffffffffffff168152602001606081526020015f81526020015f81525090565b8152602001906001900390816123955790505090508360600135846020013511612441576040517f4a09443100000000000000000000000000000000000000000000000000000000815260208501356004820152606085013560248201526044016106c8565b5f6124546060860135602087013561587f565b6040805160a08101909152600181529091506020810161247862010000600f615288565b73ffffffffffffffffffffffffffffffffffffffff1681526020016040518060400160405280600281526020017f3078000000000000000000000000000000000000000000000000000000000000815250815260200182815260200182815250825f815181106124ea576124ea615892565b60209081029190910101526040805160018082528183019092525f91816020015b6125516040518060a001604052805f151581526020015f73ffffffffffffffffffffffffffffffffffffffff168152602001606081526020015f81526020015f81525090565b81526020019060019003908161250b5750506040805160a0810182526001815291925060208201906125899060608a01908a01614e99565b73ffffffffffffffffffffffffffffffffffffffff1681526020016125b160808901896155a5565b8080601f0160208091040260200160405190810160405280939291908181526020018383808284375f920182905250938552505050606089013560208301819052604090920191909152825183919061260c5761260c615892565b6020026020010181905250612738865f013584836040518060a001604052808b60a0013581526020018b60c0013581526020018b6101000160208101906126539190614e99565b73ffffffffffffffffffffffffffffffffffffffff1681526020015f73ffffffffffffffffffffffffffffffffffffffff16815260200160405180602001604052805f81525081525060405180608001604052808b73ffffffffffffffffffffffffffffffffffffffff16815260200162010000600f6126d39190615288565b73ffffffffffffffffffffffffffffffffffffffff1681526020016127006101208e016101008f01614e99565b73ffffffffffffffffffffffffffffffffffffffff16815260200161272860e08e018e6158bf565b61273191615923565b905261366f565b9695505050505050565b5f61276e60017f7abdd13ad9cf62f90f18ba5fce27602d0d72d6c79c44029458c0c5f28766f99961587f565b6040805160208101929092528101849052606001604051602081830303815290604052805190602001205f1c90506127a981835f0151613db2565b6127d76127b7826001615592565b836020015173ffffffffffffffffffffffffffffffffffffffff16613db2565b6127ef6127e5826002615592565b8360400151613db2565b610d676127fd826003615592565b8360600151613db2565b6128636040518060a001604052805f151581526020015f73ffffffffffffffffffffffffffffffffffffffff1681526020015f73ffffffffffffffffffffffffffffffffffffffff1681526020015f8152602001606081525090565b825173ffffffffffffffffffffffffffffffffffffffff9081166020808401919091526040808601516080850152908501516060840152908316908201526128ab8482613db9565b50505050565b5f5f6128bc86613ee8565b90508273ffffffffffffffffffffffffffffffffffffffff16816020015173ffffffffffffffffffffffffffffffffffffffff161461293f576040517f8e4a23d600000000000000000000000000000000000000000000000000000000815273ffffffffffffffffffffffffffffffffffffffff841660048201526024016106c8565b5f816040015167ffffffffffffffff81111561295d5761295d6148a9565b6040519080825280602002602001820160405280156129ea57816020015b6129d76040518060a001604052805f151581526020015f73ffffffffffffffffffffffffffffffffffffffff1681526020015f73ffffffffffffffffffffffffffffffffffffffff1681526020015f8152602001606081525090565b81526020019060019003908161297b5790505b5090505f5b8260400151811015612a2f575f612a068983614003565b905080838381518110612a1b57612a1b615892565b6020908102919091010152506001016129ef565b50612a47825f01518360200151846060015188614156565b6040805160018082528183019092525f916020808301908036833750506040805160608101825286518152602080820187905273ffffffffffffffffffffffffffffffffffffffff8c16828401529151939450925f9250612aaa91849101615a48565b6040516020818303038152906040529050808051906020012095507f00000000000000000000000000000000000000000000000000000000000000004603612af6575050505050610f53565b5f612b046180006008615288565b73ffffffffffffffffffffffffffffffffffffffff166362f84b24600160f81b84604051602001612b36929190615a5a565b6040516020818303038152906040526040518263ffffffff1660e01b8152600401612b619190615a9c565b6020604051808303815f875af1158015612b7d573d5f5f3e3d5ffd5b505050506040513d601f19601f82011682018060405250810190612ba191906152b4565b90507ed100f17608d9dd25564ce2bfb9a13baf0c8f0a291952ae2a41b44014dce6d1818885604051612bd593929190615aae565b60405180910390a1505050505050949350505050565b60335473ffffffffffffffffffffffffffffffffffffffff16331461088c576040517f08c379a000000000000000000000000000000000000000000000000000000000815260206004820181905260248201527f4f776e61626c653a2063616c6c6572206973206e6f7420746865206f776e657260448201526064016106c8565b612c746143eb565b609780547fffffffffffffffffffffffffffffffffffffffffffffffffffffffffffffff001690557f5db9ee0a495bf2e6ff9c91a7834c1ba4fdd244a5e8aa4e537bd38aeae4b073aa335b60405173ffffffffffffffffffffffffffffffffffffffff909116815260200160405180910390a1565b6040805160018082528183019092525f91829190816020015b612d486040518060a001604052805f151581526020015f73ffffffffffffffffffffffffffffffffffffffff168152602001606081526020015f81526020015f81525090565b815260200190600190039081612d025790505090508360400135846020013511612dae57604080517f4a094431000000000000000000000000000000000000000000000000000000008152602086013560048201529085013560248201526044016106c8565b6040805160a081019091526001815260208101612dcf62010000600f615288565b73ffffffffffffffffffffffffffffffffffffffff16815260200160405180602001604052805f815250815260200185604001358660200135612e12919061587f565b81526020018560400135815250815f81518110612e3157612e31615892565b60209081029190910101526040805160018082528183019092525f91816020015b612e986040518060a001604052805f151581526020015f73ffffffffffffffffffffffffffffffffffffffff168152602001606081526020015f81526020015f81525090565b815260200190600190039081612e525750506040805160a081019091525f815290915060208101612ecf60e0880160c08901614e99565b73ffffffffffffffffffffffffffffffffffffffff168152602001612ef86101008801886155a5565b8080601f0160208091040260200160405190810160405280939291908181526020018383808284375f92018290525093855250505060e088013560208301526040808901359201919091528251839190612f5457612f54615892565b6020026020010181905250613066855f013583836040518060a001604052808a6060013581526020018a6080013581526020018a60a0016020810190612f9a9190614e99565b73ffffffffffffffffffffffffffffffffffffffff1681526020015f73ffffffffffffffffffffffffffffffffffffffff16815260200160405180602001604052805f81525081525060405180608001604052808a73ffffffffffffffffffffffffffffffffffffffff16815260200162010000600f61301a9190615288565b73ffffffffffffffffffffffffffffffffffffffff16815260200161304560c08d0160a08e01614e99565b73ffffffffffffffffffffffffffffffffffffffff1681526020015f6116af565b95945050505050565b7f8e94fed44239eb2314ab7a406345e6c5a8f0ccedf3b600de3d004e672c33abf4545f908082036130cc576040517fdd7e362100000000000000000000000000000000000000000000000000000000815260040160405180910390fd5b60018114613106576040517fab143c0600000000000000000000000000000000000000000000000000000000815260040160405180910390fd5b60027f8e94fed44239eb2314ab7a406345e6c5a8f0ccedf3b600de3d004e672c33abf455613132613b86565b467f00000000000000000000000000000000000000000000000000000000000000001461318d576040517f8e4a23d60000000000000000000000000000000000000000000000000000000081523360048201526024016106c8565b6040517fe52db4ca000000000000000000000000000000000000000000000000000000008152833560048201525f907f000000000000000000000000000000000000000000000000000000000000000073ffffffffffffffffffffffffffffffffffffffff169063e52db4ca90602401602060405180830381865afa158015613218573d5f5f3e3d5ffd5b505050506040513d601f19601f8201168201806040525081019061323c91906152b4565b90507f000000000000000000000000000000000000000000000000000000000000000081148061326a575080155b156132bd57836020013534146132b8576040517f4a094431000000000000000000000000000000000000000000000000000000008152602085013560048201523460248201526044016106c8565b6132fd565b34156132fd576040517f4a0944310000000000000000000000000000000000000000000000000000000081525f60048201523460248201526044016106c8565b60c9546040517fc4879440000000000000000000000000000000000000000000000000000000008152853560048201526024810183905273ffffffffffffffffffffffffffffffffffffffff8781166044830152602087013560648301529091169063c48794409034906084015f604051808303818588803b158015613381575f5ffd5b505af1158015613393573d5f5f3e3d5ffd5b5061349b945050863592506133b391505061012086016101008701614e99565b6040518061012001604052808873ffffffffffffffffffffffffffffffffffffffff1681526020018760400160208101906133ee9190614e99565b73ffffffffffffffffffffffffffffffffffffffff1681526020888101359082015260608089013560408301520161342960808901896155a5565b8080601f0160208091040260200160405190810160405280939291908181526020018383808284375f9201919091525050509082525060a0880135602082015260c0880135604082015260600161348360e08901896158bf565b61348c91615923565b81525f60209091015287613bf3565b60017f8e94fed44239eb2314ab7a406345e6c5a8f0ccedf3b600de3d004e672c33abf455949350505050565b606580547fffffffffffffffffffffffff000000000000000000000000000000000000000016905561100d81614457565b613500613b86565b609780547fffffffffffffffffffffffffffffffffffffffffffffffffffffffffffffff001660011790557f62e78cea01bee320cd4e420270b5ea74000d11b0c9f74754ebdbfc544b05a258612cbf3390565b5f7f00000000000000000000000000000000000000000000000000000000000000004603613603576040517f08c379a000000000000000000000000000000000000000000000000000000000815260206004820152602960248201527f496e7465726f7043656e7465723a2043616e6e6f742073656e642062756e646c60448201527f652066726f6d204c31000000000000000000000000000000000000000000000060648201526084016106c8565b610de8838334336128b1565b7f8e94fed44239eb2314ab7a406345e6c5a8f0ccedf3b600de3d004e672c33abf480546001909155801561100d576040517fdf3a8fdd00000000000000000000000000000000000000000000000000000000815260040160405180910390fd5b604080516080810182525f8082526020820181905291810182905260608101829052825161369e9088906106e0565b81526040517fe52db4ca000000000000000000000000000000000000000000000000000000008152600481018890525f90819081907f000000000000000000000000000000000000000000000000000000000000000073ffffffffffffffffffffffffffffffffffffffff169063e52db4ca90602401602060405180830381865afa15801561372f573d5f5f3e3d5ffd5b505050506040513d601f19601f8201168201806040525081019061375391906152b4565b90507f0000000000000000000000000000000000000000000000000000000000000000811480613781575080155b61378b575f61378e565b60015b60ff1691505f90505b885181101561389d575f8982815181106137b3576137b3615892565b60200260200101519050805f01516138615760608101516137d49085615592565b9350806020015173ffffffffffffffffffffffffffffffffffffffff1663c64e477182606001518d885f01518b5f0151866080015187604001516040518763ffffffff1660e01b815260040161382e959493929190615acc565b5f604051808303818588803b158015613845575f5ffd5b505af1158015613857573d5f5f3e3d5ffd5b5050505050613894565b8281608001516138719190615b0c565b61387b9085615592565b9350613894855f015161388d836144cd565b8951612807565b50600101613797565b506138b4835f0151866020015184885f01516128b1565b602084015284516138c6908a906106e0565b60408401525f5b87518110156139a1575f8882815181106138e9576138e9615892565b60200260200101519050805f015161398757806020015173ffffffffffffffffffffffffffffffffffffffff1663c64e477182606001518d88604001518b5f0151866080015187604001516040518763ffffffff1660e01b8152600401613954959493929190615acc565b5f604051808303818588803b15801561396b575f5ffd5b505af115801561397d573d5f5f3e3d5ffd5b5050505050613998565b613998856040015161388d836144cd565b506001016138cd565b505f6139c38460400151876020015185346139bc919061587f565b89516128b1565b90505f6040518060c001604052808c8152602001885f015173ffffffffffffffffffffffffffffffffffffffff168152602001886020015173ffffffffffffffffffffffffffffffffffffffff16815260200186602001518152602001838152602001898152509050613a4c81865f015187604001518a606001518b5f01518c60400151613a5b565b9b9a5050505050505050505050565b5f613a696180006008615288565b73ffffffffffffffffffffffffffffffffffffffff166362f84b24600260f81b89604051602001613a9a9190615bf8565b604080517fffffffffffffffffffffffffffffffffffffffffffffffffffffffffffffffe081840301815290829052613ad69291602001615a5a565b6040516020818303038152906040526040518263ffffffff1660e01b8152600401613b019190615a9c565b6020604051808303815f875af1158015613b1d573d5f5f3e3d5ffd5b505050506040513d601f19601f82011682018060405250810190613b4191906152b4565b90507f54b4a0d259fe10a4c31215232c48587e9421fa6300e29949d121c5603f67af208188604051613b74929190615c0a565b60405180910390a19695505050505050565b60975460ff161561088c576040517f08c379a000000000000000000000000000000000000000000000000000000000815260206004820152601060248201527f5061757361626c653a207061757365640000000000000000000000000000000060448201526064016106c8565b5f5f613bff858461457d565b73ffffffffffffffffffffffffffffffffffffffff8181166101008701526040517fe680c4c1000000000000000000000000000000000000000000000000000000008152600481018990529192505f917f00000000000000000000000000000000000000000000000000000000000000009091169063e680c4c190602401602060405180830381865afa158015613c98573d5f5f3e3d5ffd5b505050506040513d601f19601f82011682018060405250810190613cbc91906152cb565b905073ffffffffffffffffffffffffffffffffffffffff811615613d73576040517f12f43dab00000000000000000000000000000000000000000000000000000000815273ffffffffffffffffffffffffffffffffffffffff8216906312f43dab90613d2c908890600401615c9a565b6020604051808303815f875af1158015613d48573d5f5f3e3d5ffd5b505050506040513d601f19601f82011682018060405250810190613d6c91906152b4565b9250613da8565b6040517f23f3c357000000000000000000000000000000000000000000000000000000008152600481018890526024016106c8565b5050949350505050565b80825d5050565b5f613dc383613ee8565b60408101519091505f613df760017f2d536ee6cb4bd511915ea57020259b0f075e59cd2b2a33b2eaa05da68e90b37d61587f565b604080516020810192909252810186905260608101839052608001604051602081830303815290604052805190602001205f1c9050613e5081856020015173ffffffffffffffffffffffffffffffffffffffff16613db2565b613e7e613e5e826001615592565b856040015173ffffffffffffffffffffffffffffffffffffffff16613db2565b613e96613e8c826002615592565b8560600151613db2565b613eae613ea4826003615592565b856080015161461b565b613eb9826001615592565b604084015260608085015190840151613ed29190615592565b6060840152613ee18584612742565b5050505050565b613f2560405180608001604052805f81526020015f73ffffffffffffffffffffffffffffffffffffffff1681526020015f81526020015f81525090565b5f613f5160017f7abdd13ad9cf62f90f18ba5fce27602d0d72d6c79c44029458c0c5f28766f99961587f565b6040805160208101929092528101849052606001604080518083037fffffffffffffffffffffffffffffffffffffffffffffffffffffffffffffffe0018152828252805160209091012060808301909152915080825c8152602001613fbe613fba846001615592565b5c90565b73ffffffffffffffffffffffffffffffffffffffff168152602001613fe7613fba846002615592565b8152602001613ffa613fba846003615592565b90529392505050565b61405f6040518060a001604052805f151581526020015f73ffffffffffffffffffffffffffffffffffffffff1681526020015f73ffffffffffffffffffffffffffffffffffffffff1681526020015f8152602001606081525090565b5f61408b60017f2d536ee6cb4bd511915ea57020259b0f075e59cd2b2a33b2eaa05da68e90b37d61587f565b604080516020810192909252810185905260608101849052608001604080517fffffffffffffffffffffffffffffffffffffffffffffffffffffffffffffffe081840301815291905280516020909101209050805c73ffffffffffffffffffffffffffffffffffffffff166020830152614109613fba826001615592565b73ffffffffffffffffffffffffffffffffffffffff166040830152614132613fba826002615592565b606083015261414a614145826003615592565b6146a3565b60808301525092915050565b81156128ab576040517fe52db4ca000000000000000000000000000000000000000000000000000000008152600481018590525f907f000000000000000000000000000000000000000000000000000000000000000073ffffffffffffffffffffffffffffffffffffffff169063e52db4ca90602401602060405180830381865afa1580156141e7573d5f5f3e3d5ffd5b505050506040513d601f19601f8201168201806040525081019061420b91906152b4565b90505f7f000000000000000000000000000000000000000000000000000000000000000082148061423a575081155b1561428957838314614282576040517f4a09443100000000000000000000000000000000000000000000000000000000815260048101859052602481018490526044016106c8565b50826142cd565b82156142ca576040517f4a0944310000000000000000000000000000000000000000000000000000000081525f6004820152602481018490526044016106c8565b505f5b7f000000000000000000000000000000000000000000000000000000000000000046036143915760c9546040517fc4879440000000000000000000000000000000000000000000000000000000008152600481018890526024810184905273ffffffffffffffffffffffffffffffffffffffff8781166044830152606482018790529091169063c48794409083906084015f604051808303818588803b158015614375575f5ffd5b505af1158015614387573d5f5f3e3d5ffd5b50505050506143e3565b61439e618000600a615288565b73ffffffffffffffffffffffffffffffffffffffff166323c2ec09856040518263ffffffff1660e01b81526004015f604051808303818588803b158015610caa575f5ffd5b505050505050565b60975460ff1661088c576040517f08c379a000000000000000000000000000000000000000000000000000000000815260206004820152601460248201527f5061757361626c653a206e6f742070617573656400000000000000000000000060448201526064016106c8565b6033805473ffffffffffffffffffffffffffffffffffffffff8381167fffffffffffffffffffffffff0000000000000000000000000000000000000000831681179093556040519116919082907f8be0079c531659141344cd1fd0a4f28419497f9722a3daafe3b4186f6b6457e0905f90a35050565b60408051606080820183525f808352602083015291810182905290820151156145405760208201516040517f1df8191100000000000000000000000000000000000000000000000000000000815273ffffffffffffffffffffffffffffffffffffffff90911660048201526024016106c8565b506040805160608101825260208084015173ffffffffffffffffffffffffffffffffffffffff168252608084015190820152918101519082015290565b5f73ffffffffffffffffffffffffffffffffffffffff83166145db5773ffffffffffffffffffffffffffffffffffffffff821632146145d25773111100000000000000000000000000000000111182016145d4565b815b905061066a565b73ffffffffffffffffffffffffffffffffffffffff83163b156146145773111100000000000000000000000000000000111183016145d4565b5090919050565b805163ffffffff811115614636576354ef47ee5f526004601cfd5b60208201600481035180855d50601c8211156128ab575f84815260209020601c82017fffffffffffffffffffffffffffffffffffffffffffffffffffffffffffffffff848401015b8151835d60208201915080821161469a5760018301925061467e565b50505050505050565b606060405190505f8152815c60046020038201526020810181518082016040526004602003811115611799575f84815260209020601c83018284015b825c82526020820191508082116146fb576001830192506146df565b5f905250505050919050565b5f6101208284031215614718575f5ffd5b50919050565b5f6020828403121561472e575f5ffd5b813567ffffffffffffffff811115614744575f5ffd5b610f5384828501614707565b73ffffffffffffffffffffffffffffffffffffffff8116811461100d575f5ffd5b80356106db81614750565b5f5f6040838503121561478d575f5ffd5b82359150602083013561479f81614750565b809150509250929050565b5f5f83601f8401126147ba575f5ffd5b50813567ffffffffffffffff8111156147d1575f5ffd5b6020830191508360208285010111156147e8575f5ffd5b9250929050565b5f5f5f5f5f60808688031215614803575f5ffd5b85359450602086013561481581614750565b9350604086013567ffffffffffffffff811115614830575f5ffd5b61483c888289016147aa565b96999598509660600135949350505050565b5f5f5f5f5f5f60c08789031215614863575f5ffd5b8635955060208701359450604087013567ffffffffffffffff81168114614888575f5ffd5b959894975094956060810135955060808101359460a0909101359350915050565b7f4e487b71000000000000000000000000000000000000000000000000000000005f52604160045260245ffd5b60405160a0810167ffffffffffffffff811182821017156148f9576148f96148a9565b60405290565b60405160c0810167ffffffffffffffff811182821017156148f9576148f96148a9565b604051601f82017fffffffffffffffffffffffffffffffffffffffffffffffffffffffffffffffe016810167ffffffffffffffff81118282101715614969576149696148a9565b604052919050565b5f67ffffffffffffffff82111561498a5761498a6148a9565b50601f017fffffffffffffffffffffffffffffffffffffffffffffffffffffffffffffffe01660200190565b5f82601f8301126149c5575f5ffd5b81356149d86149d382614971565b614922565b8181528460208386010111156149ec575f5ffd5b816020850160208301375f918101602001919091529392505050565b5f67ffffffffffffffff821115614a2157614a216148a9565b5060051b60200190565b5f614a386149d384614a08565b838152905060208101600584901b830185811115614a54575f5ffd5b835b81811015614a8f57803567ffffffffffffffff811115614a74575f5ffd5b614a80888288016149b6565b84525060209283019201614a56565b5050509392505050565b5f5f5f60608486031215614aab575f5ffd5b8335925060208401359150604084013567ffffffffffffffff811115614acf575f5ffd5b840160a08187031215614ae0575f5ffd5b614ae86148d6565b813581526020820135614afa81614750565b6020820152604082013567ffffffffffffffff811115614b18575f5ffd5b614b24888285016149b6565b604083015250606082013567ffffffffffffffff811115614b43575f5ffd5b8201601f81018813614b53575f5ffd5b614b6288823560208401614a2b565b6060830152506080918201359181019190915292959194509192509050565b5f5f60408385031215614b92575f5ffd5b8235614b9d81614750565b9150602083013567ffffffffffffffff811115614bb8575f5ffd5b614bc485828601614707565b9150509250929050565b5f5f5f5f60808587031215614be1575f5ffd5b5050823594602084013594506040840135936060013592509050565b5f60208284031215614c0d575f5ffd5b5035919050565b5f5f60208385031215614c25575f5ffd5b823567ffffffffffffffff811115614c3b575f5ffd5b614c47858286016147aa565b90969095509350505050565b5f5f60408385031215614c64575f5ffd5b8235614c6f81614750565b9150602083013561479f81614750565b5f5f83601f840112614c8f575f5ffd5b50813567ffffffffffffffff811115614ca6575f5ffd5b6020830191508360208260051b85010111156147e8575f5ffd5b5f5f5f5f5f5f60a08789031215614cd5575f5ffd5b863595506020870135945060408701359350606087013567ffffffffffffffff811115614d00575f5ffd5b87016060818a031215614d11575f5ffd5b9250608087013567ffffffffffffffff811115614d2c575f5ffd5b614d3889828a01614c7f565b979a9699509497509295939492505050565b5f5f60408385031215614d5b575f5ffd5b82359150602083013567ffffffffffffffff811115614d78575f5ffd5b830160608186031215614d89575f5ffd5b6040516060810167ffffffffffffffff81118282101715614dac57614dac6148a9565b6040528135614dba81614750565b815260208281013590820152604082013567ffffffffffffffff811115614ddf575f5ffd5b614deb878285016149b6565b60408301525080925050509250929050565b803561ffff811681146106db575f5ffd5b5f5f5f5f5f5f5f5f60e0898b031215614e25575f5ffd5b88359750602089013596506040890135955060608901359450614e4a60808a01614dfd565b935060a089013567ffffffffffffffff811115614e65575f5ffd5b614e718b828c01614c7f565b90945092505060c089013560028110614e88575f5ffd5b809150509295985092959890939650565b5f60208284031215614ea9575f5ffd5b8135610de881614750565b801515811461100d575f5ffd5b5f82601f830112614ed0575f5ffd5b8135614ede6149d382614a08565b8082825260208201915060208360051b860101925085831115614eff575f5ffd5b602085015b83811015614fd457803567ffffffffffffffff811115614f22575f5ffd5b860160a08189037fffffffffffffffffffffffffffffffffffffffffffffffffffffffffffffffe0011215614f55575f5ffd5b614f5d6148d6565b6020820135614f6b81614eb4565b81526040820135614f7b81614750565b6020820152606082013567ffffffffffffffff811115614f99575f5ffd5b614fa88a6020838601016149b6565b604083015250608082810135606083015260a09092013591810191909152835260209283019201614f04565b5095945050505050565b5f60a08284031215614fee575f5ffd5b614ff66148d6565b82358152602080840135908201529050604082013561501481614750565b6040820152606082013561502781614750565b6060820152608082013567ffffffffffffffff811115615045575f5ffd5b61414a848285016149b6565b5f5f5f5f5f60a08688031215615065575f5ffd5b85359450602086013561507781614750565b9350604086013567ffffffffffffffff811115615092575f5ffd5b61509e88828901614ec1565b935050606086013567ffffffffffffffff8111156150ba575f5ffd5b6150c688828901614ec1565b925050608086013567ffffffffffffffff8111156150e2575f5ffd5b6150ee88828901614fde565b9150509295509295909350565b5f6020828403121561510b575f5ffd5b813567ffffffffffffffff811115615121575f5ffd5b820160c08185031215615132575f5ffd5b61513a6148ff565b81358152602082013561514c81614750565b6020820152604082013561515f81614750565b6040820152606082810135908201526080808301359082015260a082013567ffffffffffffffff811115615191575f5ffd5b61519d86828501614fde565b60a083015250949350505050565b5f5f5f5f5f5f8688036101408112156151c2575f5ffd5b87359650602088013595506040880135945060c07fffffffffffffffffffffffffffffffffffffffffffffffffffffffffffffffa082011215615203575f5ffd5b5060608701925061012087013567ffffffffffffffff811115614d2c575f5ffd5b7f4e487b71000000000000000000000000000000000000000000000000000000005f52601160045260245ffd5b5f7fffffffffffffffffffffffffffffffffffffffffffffffffffffffffffffffff820361528157615281615224565b5060010190565b73ffffffffffffffffffffffffffffffffffffffff818116838216019081111561066a5761066a615224565b5f602082840312156152c4575f5ffd5b5051919050565b5f602082840312156152db575f5ffd5b8151610de881614750565b81835281816020850137505f602082840101525f60207fffffffffffffffffffffffffffffffffffffffffffffffffffffffffffffffe0601f840116840101905092915050565b602081525f610f536020830184866152e6565b8183525f7f07ffffffffffffffffffffffffffffffffffffffffffffffffffffffffffffff831115615370575f5ffd5b8260051b80836020870137939093016020019392505050565b8581528460208201526080604082015261ffff6153a585614dfd565b1660808201525f60208501356153ba81614750565b73ffffffffffffffffffffffffffffffffffffffff1660a08301526040850135368690037fffffffffffffffffffffffffffffffffffffffffffffffffffffffffffffffe101811261540a575f5ffd5b850160208101903567ffffffffffffffff811115615426575f5ffd5b803603821315615434575f5ffd5b606060c085015261544960e0850182846152e6565b915050828103606084015261131d818587615340565b5f6020828403121561546f575f5ffd5b8151610de881614eb4565b87815286602082015285604082015261ffff8516606082015260c060808201525f6154a960c083018587615340565b9050600283106154e0577f4e487b71000000000000000000000000000000000000000000000000000000005f52602160045260245ffd5b8260a083015298975050505050505050565b8581528460208201525f843560ff811680821461550d575f5ffd5b604084015250602085013561552181614eb4565b1515606083015261ffff61553760408701614dfd565b16608083015261554960608601614771565b73ffffffffffffffffffffffffffffffffffffffff811660a084015250608085013560c083015260a085013560e083015261012061010083018190526116ea9083018486615340565b8082018082111561066a5761066a615224565b5f5f83357fffffffffffffffffffffffffffffffffffffffffffffffffffffffffffffffe18436030181126155d8575f5ffd5b83018035915067ffffffffffffffff8211156155f2575f5ffd5b6020019150368190038213156147e8575f5ffd5b85815273ffffffffffffffffffffffffffffffffffffffff85166020820152836040820152608060608201525f6116ea6080830184866152e6565b5f82601f830112615650575f5ffd5b815161565e6149d382614971565b818152846020838601011115615672575f5ffd5b8160208501602083015e5f918101602001919091529392505050565b5f6020828403121561569e575f5ffd5b815167ffffffffffffffff8111156156b4575f5ffd5b820160a081850312156156c5575f5ffd5b6156cd6148d6565b8151815260208201516156df81614750565b6020820152604082015167ffffffffffffffff8111156156fd575f5ffd5b61570986828501615641565b604083015250606082015167ffffffffffffffff811115615728575f5ffd5b8201601f81018613615738575f5ffd5b80516157466149d382614a08565b8082825260208201915060208360051b850101925088831115615767575f5ffd5b602084015b838110156157a857805167ffffffffffffffff81111561578a575f5ffd5b6157998b602083890101615641565b8452506020928301920161576c565b506060850152505050608091820151918101919091529392505050565b5f81518084528060208401602086015e5f6020828601015260207fffffffffffffffffffffffffffffffffffffffffffffffffffffffffffffffe0601f83011685010191505092915050565b6020815273ffffffffffffffffffffffffffffffffffffffff82511660208201526020820151604082015273ffffffffffffffffffffffffffffffffffffffff6040830151166060820152606082015160808201525f608083015160a080840152610f5360c08401826157c5565b8181038181111561066a5761066a615224565b7f4e487b71000000000000000000000000000000000000000000000000000000005f52603260045260245ffd5b5f5f83357fffffffffffffffffffffffffffffffffffffffffffffffffffffffffffffffe18436030181126158f2575f5ffd5b83018035915067ffffffffffffffff82111561590c575f5ffd5b6020019150600581901b36038213156147e8575f5ffd5b5f610de8368484614a2b565b5f606083018251845260208301516060602086015281815180845260808701915060808160051b88010193506020830192505f5b81811015615a15577fffffffffffffffffffffffffffffffffffffffffffffffffffffffffffffff80888603018352835180511515865273ffffffffffffffffffffffffffffffffffffffff602082015116602087015273ffffffffffffffffffffffffffffffffffffffff6040820151166040870152606081015160608701526080810151905060a060808701526159ff60a08701826157c5565b9550506020938401939290920191600101615963565b505050506040830151615a40604086018273ffffffffffffffffffffffffffffffffffffffff169052565b509392505050565b602081525f610de8602083018461592f565b7fff00000000000000000000000000000000000000000000000000000000000000831681525f82518060208501600185015e5f92016001019182525092915050565b602081525f610de860208301846157c5565b838152826020820152606060408201525f613066606083018461592f565b85815284602082015273ffffffffffffffffffffffffffffffffffffffff8416604082015282606082015260a060808201525f6116ea60a08301846157c5565b808202811582820484141761066a5761066a615224565b8051825273ffffffffffffffffffffffffffffffffffffffff602082015116602083015273ffffffffffffffffffffffffffffffffffffffff604082015116604083015260608101516060830152608081015160808301525f60a082015160c060a0850152805160c0850152602081015160e085015273ffffffffffffffffffffffffffffffffffffffff60408201511661010085015273ffffffffffffffffffffffffffffffffffffffff6060820151166101208501526080810151905060a0610140850152610f536101608501826157c5565b602081525f610de86020830184615b23565b828152604060208201525f610f536040830184615b23565b5f82825180855260208501945060208160051b830101602085015f5b83811015615c8e577fffffffffffffffffffffffffffffffffffffffffffffffffffffffffffffffe0858403018852615c788383516157c5565b6020988901989093509190910190600101615c3e565b50909695505050505050565b60208152615cc160208201835173ffffffffffffffffffffffffffffffffffffffff169052565b5f6020830151615ce9604084018273ffffffffffffffffffffffffffffffffffffffff169052565b506040830151606083015260608301516080830152608083015161012060a0840152615d196101408401826157c5565b905060a084015160c084015260c084015160e084015260e08401517fffffffffffffffffffffffffffffffffffffffffffffffffffffffffffffffe084830301610100850152615d698282615c22565b915050610100840151615a4061012085018273ffffffffffffffffffffffffffffffffffffffff16905256fea2646970667358221220311e9fd2305105351be5384c1b6a95849a3e6eba8a0676acebdade797a70c4a664736f6c634300081c0033","linkReferences":{}},"methodIdentifiers":{"BRIDGE_HUB()":"5d4edca7","L1_CHAIN_ID()":"2f90b184","_startBundle(uint256,address)":"2cdead61","acceptOwnership()":"79ba5097","addCallToBundle(bytes32,(address,uint256,bytes))":"b1cb70ea","addCallToBundleFromRequest(bytes32,uint256,(bytes32,address,bytes,bytes[],bytes32))":"68bac3c2","assetRouter()":"bc0aac10","assetTracker()":"bfa47de1","bundleCount()":"d5c19151","finishAndSendBundle(bytes32,address)":"89f91e77","forwardTransactionOnGatewayWithBalanceChange(uint256,bytes32,uint64,uint256,bytes32,uint256)":"5c381d9a","initialize(address)":"c4d66de8","l2TransactionBaseCost(uint256,uint256,uint256,uint256)":"71623274","owner()":"8da5cb5b","pause()":"8456cb59","paused()":"5c975abb","pendingOwner()":"e30c3978","proveL1ToL2TransactionStatus(uint256,bytes32,uint256,uint256,uint16,bytes32[],uint8)":"b292f5f1","proveL2LogInclusion(uint256,uint256,uint256,(uint8,bool,uint16,address,bytes32,bytes32),bytes32[])":"e6d9923b","proveL2MessageInclusion(uint256,uint256,uint256,(uint16,address,bytes),bytes32[])":"99c16d1a","renounceOwnership()":"715018a6","requestInterop(uint256,address,(bool,address,bytes,uint256,uint256)[],(bool,address,bytes,uint256,uint256)[],(uint256,uint256,address,address,bytes))":"d15c2373","requestInteropSingleCall((uint256,uint256,uint256,uint256,uint256,address,address,uint256,bytes))":"4fb64d53","requestInteropSingleDirectCall((uint256,uint256,address,uint256,bytes,uint256,uint256,bytes[],address))":"25a1e93e","requestL2TransactionDirect((uint256,uint256,address,uint256,bytes,uint256,uint256,bytes[],address))":"d52471c1","requestL2TransactionDirectSender(address,(uint256,uint256,address,uint256,bytes,uint256,uint256,bytes[],address))":"6d66bf26","requestL2TransactionTwoBridges((uint256,uint256,uint256,uint256,uint256,address,address,uint256,bytes))":"24fd57fb","requestL2TransactionTwoBridgesSender(address,(uint256,uint256,uint256,uint256,uint256,address,address,uint256,bytes))":"9da3858a","sendCall(uint256,address,bytes,uint256)":"3a8d8a48","sendInteropTrigger((uint256,address,address,bytes32,bytes32,(uint256,uint256,address,address,bytes)))":"e2355bea","sendMessage(bytes)":"82646a58","setAddresses(address,address)":"90107afe","startBundle(uint256)":"7cc516a5","transferOwnership(address)":"f2fde38b","unpause()":"3f4ba83a"},"id":45}