{"abi":[{"type":"constructor","inputs":[{"name":"_l1WethAddress","type":"address","internalType":"address"},{"name":"_bridgehub","type":"address","internalType":"address"},{"name":"_interopCenter","type":"address","internalType":"address"},{"name":"_l1Nullifier","type":"address","internalType":"address"},{"name":"_eraChainId","type":"uint256","internalType":"uint256"},{"name":"_eraDiamondProxy","type":"address","internalType":"address"}],"stateMutability":"nonpayable"},{"type":"function","name":"BRIDGE_HUB","inputs":[],"outputs":[{"name":"","type":"address","internalType":"contract IBridgehub"}],"stateMutability":"view"},{"type":"function","name":"ERA_CHAIN_ID","inputs":[],"outputs":[{"name":"","type":"uint256","internalType":"uint256"}],"stateMutability":"view"},{"type":"function","name":"ETH_TOKEN_ASSET_ID","inputs":[],"outputs":[{"name":"","type":"bytes32","internalType":"bytes32"}],"stateMutability":"view"},{"type":"function","name":"INTEROP_CENTER","inputs":[],"outputs":[{"name":"","type":"address","internalType":"contract IInteropCenter"}],"stateMutability":"view"},{"type":"function","name":"L1_CHAIN_ID","inputs":[],"outputs":[{"name":"","type":"uint256","internalType":"uint256"}],"stateMutability":"view"},{"type":"function","name":"L1_NULLIFIER","inputs":[],"outputs":[{"name":"","type":"address","internalType":"contract IL1Nullifier"}],"stateMutability":"view"},{"type":"function","name":"L1_WETH_TOKEN","inputs":[],"outputs":[{"name":"","type":"address","internalType":"address"}],"stateMutability":"view"},{"type":"function","name":"acceptOwnership","inputs":[],"outputs":[],"stateMutability":"nonpayable"},{"type":"function","name":"assetDeploymentTracker","inputs":[{"name":"assetId","type":"bytes32","internalType":"bytes32"}],"outputs":[{"name":"assetDeploymentTracker","type":"address","internalType":"address"}],"stateMutability":"view"},{"type":"function","name":"assetHandlerAddress","inputs":[{"name":"assetId","type":"bytes32","internalType":"bytes32"}],"outputs":[{"name":"assetHandlerAddress","type":"address","internalType":"address"}],"stateMutability":"view"},{"type":"function","name":"bridgeRecoverFailedTransfer","inputs":[{"name":"_chainId","type":"uint256","internalType":"uint256"},{"name":"_depositSender","type":"address","internalType":"address"},{"name":"_assetId","type":"bytes32","internalType":"bytes32"},{"name":"_assetData","type":"bytes","internalType":"bytes"}],"outputs":[],"stateMutability":"nonpayable"},{"type":"function","name":"bridgeRecoverFailedTransfer","inputs":[{"name":"_chainId","type":"uint256","internalType":"uint256"},{"name":"_depositSender","type":"address","internalType":"address"},{"name":"_assetId","type":"bytes32","internalType":"bytes32"},{"name":"_assetData","type":"bytes","internalType":"bytes"},{"name":"_l2TxHash","type":"bytes32","internalType":"bytes32"},{"name":"_l2BatchNumber","type":"uint256","internalType":"uint256"},{"name":"_l2MessageIndex","type":"uint256","internalType":"uint256"},{"name":"_l2TxNumberInBatch","type":"uint16","internalType":"uint16"},{"name":"_merkleProof","type":"bytes32[]","internalType":"bytes32[]"}],"outputs":[],"stateMutability":"nonpayable"},{"type":"function","name":"bridgehubAddCallToBundle","inputs":[{"name":"_chainId","type":"uint256","internalType":"uint256"},{"name":"_bundleId","type":"bytes32","internalType":"bytes32"},{"name":"_originalCaller","type":"address","internalType":"address"},{"name":"_value","type":"uint256","internalType":"uint256"},{"name":"_data","type":"bytes","internalType":"bytes"}],"outputs":[],"stateMutability":"payable"},{"type":"function","name":"bridgehubConfirmL2Transaction","inputs":[{"name":"_chainId","type":"uint256","internalType":"uint256"},{"name":"_txDataHash","type":"bytes32","internalType":"bytes32"},{"name":"_txHash","type":"bytes32","internalType":"bytes32"}],"outputs":[],"stateMutability":"nonpayable"},{"type":"function","name":"bridgehubDeposit","inputs":[{"name":"_chainId","type":"uint256","internalType":"uint256"},{"name":"_originalCaller","type":"address","internalType":"address"},{"name":"_value","type":"uint256","internalType":"uint256"},{"name":"_data","type":"bytes","internalType":"bytes"}],"outputs":[{"name":"request","type":"tuple","internalType":"struct L2TransactionRequestTwoBridgesInner","components":[{"name":"magicValue","type":"bytes32","internalType":"bytes32"},{"name":"l2Contract","type":"address","internalType":"address"},{"name":"l2Calldata","type":"bytes","internalType":"bytes"},{"name":"factoryDeps","type":"bytes[]","internalType":"bytes[]"},{"name":"txDataHash","type":"bytes32","internalType":"bytes32"}]}],"stateMutability":"payable"},{"type":"function","name":"bridgehubDepositBaseToken","inputs":[{"name":"_chainId","type":"uint256","internalType":"uint256"},{"name":"_assetId","type":"bytes32","internalType":"bytes32"},{"name":"_originalCaller","type":"address","internalType":"address"},{"name":"_amount","type":"uint256","internalType":"uint256"}],"outputs":[],"stateMutability":"payable"},{"type":"function","name":"claimFailedDeposit","inputs":[{"name":"_chainId","type":"uint256","internalType":"uint256"},{"name":"_depositSender","type":"address","internalType":"address"},{"name":"_l1Token","type":"address","internalType":"address"},{"name":"_amount","type":"uint256","internalType":"uint256"},{"name":"_l2TxHash","type":"bytes32","internalType":"bytes32"},{"name":"_l2BatchNumber","type":"uint256","internalType":"uint256"},{"name":"_l2MessageIndex","type":"uint256","internalType":"uint256"},{"name":"_l2TxNumberInBatch","type":"uint16","internalType":"uint16"},{"name":"_merkleProof","type":"bytes32[]","internalType":"bytes32[]"}],"outputs":[],"stateMutability":"nonpayable"},{"type":"function","name":"depositLegacyErc20Bridge","inputs":[{"name":"_originalCaller","type":"address","internalType":"address"},{"name":"_l2Receiver","type":"address","internalType":"address"},{"name":"_l1Token","type":"address","internalType":"address"},{"name":"_amount","type":"uint256","internalType":"uint256"},{"name":"_l2TxGasLimit","type":"uint256","internalType":"uint256"},{"name":"_l2TxGasPerPubdataByte","type":"uint256","internalType":"uint256"},{"name":"_refundRecipient","type":"address","internalType":"address"}],"outputs":[{"name":"txHash","type":"bytes32","internalType":"bytes32"}],"stateMutability":"payable"},{"type":"function","name":"finalizeDeposit","inputs":[{"name":"_chainId","type":"uint256","internalType":"uint256"},{"name":"_assetId","type":"bytes32","internalType":"bytes32"},{"name":"_transferData","type":"bytes","internalType":"bytes"}],"outputs":[],"stateMutability":"payable"},{"type":"function","name":"finalizeWithdrawal","inputs":[{"name":"_chainId","type":"uint256","internalType":"uint256"},{"name":"_l2BatchNumber","type":"uint256","internalType":"uint256"},{"name":"_l2MessageIndex","type":"uint256","internalType":"uint256"},{"name":"_l2TxNumberInBatch","type":"uint16","internalType":"uint16"},{"name":"_message","type":"bytes","internalType":"bytes"},{"name":"_merkleProof","type":"bytes32[]","internalType":"bytes32[]"}],"outputs":[],"stateMutability":"nonpayable"},{"type":"function","name":"getDepositCalldata","inputs":[{"name":"_sender","type":"address","internalType":"address"},{"name":"_assetId","type":"bytes32","internalType":"bytes32"},{"name":"_assetData","type":"bytes","internalType":"bytes"}],"outputs":[{"name":"","type":"bytes","internalType":"bytes"}],"stateMutability":"view"},{"type":"function","name":"initialize","inputs":[{"name":"_owner","type":"address","internalType":"address"}],"outputs":[],"stateMutability":"nonpayable"},{"type":"function","name":"isWithdrawalFinalized","inputs":[{"name":"_chainId","type":"uint256","internalType":"uint256"},{"name":"_l2BatchNumber","type":"uint256","internalType":"uint256"},{"name":"_l2MessageIndex","type":"uint256","internalType":"uint256"}],"outputs":[{"name":"","type":"bool","internalType":"bool"}],"stateMutability":"view"},{"type":"function","name":"l2BridgeAddress","inputs":[{"name":"_chainId","type":"uint256","internalType":"uint256"}],"outputs":[{"name":"","type":"address","internalType":"address"}],"stateMutability":"view"},{"type":"function","name":"legacyBridge","inputs":[],"outputs":[{"name":"","type":"address","internalType":"contract IL1ERC20Bridge"}],"stateMutability":"view"},{"type":"function","name":"nativeTokenVault","inputs":[],"outputs":[{"name":"","type":"address","internalType":"contract INativeTokenVault"}],"stateMutability":"view"},{"type":"function","name":"owner","inputs":[],"outputs":[{"name":"","type":"address","internalType":"address"}],"stateMutability":"view"},{"type":"function","name":"pause","inputs":[],"outputs":[],"stateMutability":"nonpayable"},{"type":"function","name":"paused","inputs":[],"outputs":[{"name":"","type":"bool","internalType":"bool"}],"stateMutability":"view"},{"type":"function","name":"pendingOwner","inputs":[],"outputs":[{"name":"","type":"address","internalType":"address"}],"stateMutability":"view"},{"type":"function","name":"renounceOwnership","inputs":[],"outputs":[],"stateMutability":"nonpayable"},{"type":"function","name":"setAssetDeploymentTracker","inputs":[{"name":"_assetRegistrationData","type":"bytes32","internalType":"bytes32"},{"name":"_assetDeploymentTracker","type":"address","internalType":"address"}],"outputs":[],"stateMutability":"nonpayable"},{"type":"function","name":"setAssetHandlerAddressThisChain","inputs":[{"name":"_assetRegistrationData","type":"bytes32","internalType":"bytes32"},{"name":"_assetHandlerAddress","type":"address","internalType":"address"}],"outputs":[],"stateMutability":"nonpayable"},{"type":"function","name":"setL1Erc20Bridge","inputs":[{"name":"_legacyBridge","type":"address","internalType":"contract IL1ERC20Bridge"}],"outputs":[],"stateMutability":"nonpayable"},{"type":"function","name":"setNativeTokenVault","inputs":[{"name":"_nativeTokenVault","type":"address","internalType":"contract INativeTokenVault"}],"outputs":[],"stateMutability":"nonpayable"},{"type":"function","name":"transferFundsToNTV","inputs":[{"name":"_assetId","type":"bytes32","internalType":"bytes32"},{"name":"_amount","type":"uint256","internalType":"uint256"},{"name":"_originalCaller","type":"address","internalType":"address"}],"outputs":[{"name":"","type":"bool","internalType":"bool"}],"stateMutability":"nonpayable"},{"type":"function","name":"transferOwnership","inputs":[{"name":"newOwner","type":"address","internalType":"address"}],"outputs":[],"stateMutability":"nonpayable"},{"type":"function","name":"unpause","inputs":[],"outputs":[],"stateMutability":"nonpayable"},{"type":"event","name":"AssetDeploymentTrackerRegistered","inputs":[{"name":"assetId","type":"bytes32","indexed":true,"internalType":"bytes32"},{"name":"additionalData","type":"bytes32","indexed":true,"internalType":"bytes32"},{"name":"assetDeploymentTracker","type":"address","indexed":false,"internalType":"address"}],"anonymous":false},{"type":"event","name":"AssetDeploymentTrackerSet","inputs":[{"name":"assetId","type":"bytes32","indexed":true,"internalType":"bytes32"},{"name":"assetDeploymentTracker","type":"address","indexed":true,"internalType":"address"},{"name":"additionalData","type":"bytes32","indexed":true,"internalType":"bytes32"}],"anonymous":false},{"type":"event","name":"AssetHandlerRegistered","inputs":[{"name":"assetId","type":"bytes32","indexed":true,"internalType":"bytes32"},{"name":"_assetHandlerAddress","type":"address","indexed":true,"internalType":"address"}],"anonymous":false},{"type":"event","name":"BridgehubDepositBaseTokenInitiated","inputs":[{"name":"chainId","type":"uint256","indexed":true,"internalType":"uint256"},{"name":"from","type":"address","indexed":true,"internalType":"address"},{"name":"assetId","type":"bytes32","indexed":false,"internalType":"bytes32"},{"name":"amount","type":"uint256","indexed":false,"internalType":"uint256"}],"anonymous":false},{"type":"event","name":"BridgehubDepositFinalized","inputs":[{"name":"chainId","type":"uint256","indexed":true,"internalType":"uint256"},{"name":"txDataHash","type":"bytes32","indexed":true,"internalType":"bytes32"},{"name":"l2DepositTxHash","type":"bytes32","indexed":true,"internalType":"bytes32"}],"anonymous":false},{"type":"event","name":"BridgehubDepositInitiated","inputs":[{"name":"chainId","type":"uint256","indexed":true,"internalType":"uint256"},{"name":"txDataHash","type":"bytes32","indexed":true,"internalType":"bytes32"},{"name":"from","type":"address","indexed":true,"internalType":"address"},{"name":"assetId","type":"bytes32","indexed":false,"internalType":"bytes32"},{"name":"bridgeMintCalldata","type":"bytes","indexed":false,"internalType":"bytes"}],"anonymous":false},{"type":"event","name":"BridgehubMintData","inputs":[{"name":"bridgeMintData","type":"bytes","indexed":false,"internalType":"bytes"}],"anonymous":false},{"type":"event","name":"BridgehubWithdrawalInitiated","inputs":[{"name":"chainId","type":"uint256","indexed":false,"internalType":"uint256"},{"name":"sender","type":"address","indexed":true,"internalType":"address"},{"name":"assetId","type":"bytes32","indexed":true,"internalType":"bytes32"},{"name":"assetDataHash","type":"bytes32","indexed":false,"internalType":"bytes32"}],"anonymous":false},{"type":"event","name":"ClaimedFailedDepositAssetRouter","inputs":[{"name":"chainId","type":"uint256","indexed":true,"internalType":"uint256"},{"name":"assetId","type":"bytes32","indexed":true,"internalType":"bytes32"},{"name":"assetData","type":"bytes","indexed":false,"internalType":"bytes"}],"anonymous":false},{"type":"event","name":"DepositFinalizedAssetRouter","inputs":[{"name":"chainId","type":"uint256","indexed":true,"internalType":"uint256"},{"name":"assetId","type":"bytes32","indexed":true,"internalType":"bytes32"},{"name":"assetData","type":"bytes","indexed":false,"internalType":"bytes"}],"anonymous":false},{"type":"event","name":"Initialized","inputs":[{"name":"version","type":"uint8","indexed":false,"internalType":"uint8"}],"anonymous":false},{"type":"event","name":"LegacyDepositInitiated","inputs":[{"name":"chainId","type":"uint256","indexed":true,"internalType":"uint256"},{"name":"l2DepositTxHash","type":"bytes32","indexed":true,"internalType":"bytes32"},{"name":"from","type":"address","indexed":true,"internalType":"address"},{"name":"to","type":"address","indexed":false,"internalType":"address"},{"name":"l1Token","type":"address","indexed":false,"internalType":"address"},{"name":"amount","type":"uint256","indexed":false,"internalType":"uint256"}],"anonymous":false},{"type":"event","name":"OwnershipTransferStarted","inputs":[{"name":"previousOwner","type":"address","indexed":true,"internalType":"address"},{"name":"newOwner","type":"address","indexed":true,"internalType":"address"}],"anonymous":false},{"type":"event","name":"OwnershipTransferred","inputs":[{"name":"previousOwner","type":"address","indexed":true,"internalType":"address"},{"name":"newOwner","type":"address","indexed":true,"internalType":"address"}],"anonymous":false},{"type":"event","name":"Paused","inputs":[{"name":"account","type":"address","indexed":false,"internalType":"address"}],"anonymous":false},{"type":"event","name":"Unpaused","inputs":[{"name":"account","type":"address","indexed":false,"internalType":"address"}],"anonymous":false},{"type":"error","name":"AddressAlreadySet","inputs":[{"name":"addr","type":"address","internalType":"address"}]},{"type":"error","name":"AssetHandlerDoesNotExist","inputs":[{"name":"assetId","type":"bytes32","internalType":"bytes32"}]},{"type":"error","name":"AssetIdNotSupported","inputs":[{"name":"assetId","type":"bytes32","internalType":"bytes32"}]},{"type":"error","name":"IncorrectTokenAddressFromNTV","inputs":[{"name":"assetId","type":"bytes32","internalType":"bytes32"},{"name":"tokenAddress","type":"address","internalType":"address"}]},{"type":"error","name":"InvalidNTVBurnData","inputs":[]},{"type":"error","name":"LegacyBridgeUsesNonNativeToken","inputs":[]},{"type":"error","name":"LegacyEncodingUsedForNonL1Token","inputs":[]},{"type":"error","name":"NativeTokenVaultAlreadySet","inputs":[]},{"type":"error","name":"NonEmptyMsgValue","inputs":[]},{"type":"error","name":"NotInitializedReentrancyGuard","inputs":[]},{"type":"error","name":"Reentrancy","inputs":[]},{"type":"error","name":"SlotOccupied","inputs":[]},{"type":"error","name":"TokenNotSupported","inputs":[{"name":"token","type":"address","internalType":"address"}]},{"type":"error","name":"TokensWithFeesNotSupported","inputs":[]},{"type":"error","name":"Unauthorized","inputs":[{"name":"caller","type":"address","internalType":"address"}]},{"type":"error","name":"UnsupportedEncodingVersion","inputs":[]},{"type":"error","name":"ZeroAddress","inputs":[]}],"bytecode":{"object":"0x610180604052348015610010575f5ffd5b506040516152ae3803806152ae83398101604081905261002f91610207565b4660c05260e08290526001600160a01b03808616608052841660a052610053610092565b61005b6100dc565b6001600160a01b038087166101005281811661014052831661016052610082466001610198565b610120525061029b945050505050565b7f8e94fed44239eb2314ab7a406345e6c5a8f0ccedf3b600de3d004e672c33abf48054600190915580156100d95760405163df3a8fdd60e01b815260040160405180910390fd5b50565b5f54610100900460ff16156101475760405162461bcd60e51b815260206004820152602760248201527f496e697469616c697a61626c653a20636f6e747261637420697320696e697469604482015266616c697a696e6760c81b606482015260840160405180910390fd5b5f5460ff90811614610196575f805460ff191660ff9081179091556040519081527f7f26b83ff96e1f2b6a682f133852f6798a09c465da95921460cefb38474024989060200160405180910390a15b565b5f826101a8620100006004610270565b6040805160208101939093526001600160a01b0391821690830152831660608201526080016040516020818303038152906040528051906020012090505b92915050565b80516001600160a01b0381168114610202575f5ffd5b919050565b5f5f5f5f5f5f60c0878903121561021c575f5ffd5b610225876101ec565b9550610233602088016101ec565b9450610241604088016101ec565b935061024f606088016101ec565b92506080870151915061026460a088016101ec565b90509295509295509295565b6001600160a01b0381811683821601908111156101e657634e487b7160e01b5f52601160045260245ffd5b60805160a05160c05160e05161010051610120516101405161016051614f096103a55f395f81816107950152818161083a015281816109e801528181610f5a0152818161169001528181611740015281816117de01528181611cda01528181611ec601526124a601525f61208301525f8181610593015281816109a80152613c6b01525f81816103d4015281816119bb0152611a4901525f81816107c801528181611ad701528181611b4e01528181611d1601528181611e0a015261204301525f61031501525f81816104e0015281816115f201528181611c2b015281816120180152818161257d015281816133a0015261343601525f81816104ad01526136290152614f095ff3fe608060405260043610610277575f3560e01c806381eccdd41161014b578063c0a16dda116100c6578063ca408c231161007c578063e60ccaba11610062578063e60ccaba14610784578063ef011dff146107b7578063f2fde38b146107ea575f5ffd5b8063ca408c231461073a578063e30c39781461075a575f5ffd5b8063c4d66de8116100ac578063c4d66de8146106e9578063c64e477114610708578063c87325f11461071b575f5ffd5b8063c0a16dda146106b7578063c4879440146106d6575f5ffd5b80638eb7db571161011b5780639c884fd1116101015780639c884fd1146106725780639e6ea41714610685578063c099152514610698575f5ffd5b80638eb7db57146106345780638f31f05214610653575f5ffd5b806381eccdd4146105825780638456cb59146105b557806385e4e16a146105c95780638da5cb5b1461060a575f5ffd5b806353b9e632116101f55780635ecd0e3a116101ab5780636e9d7899116101915780636e9d78991461052e578063715018a61461055a57806379ba50971461056e575f5ffd5b80635ecd0e3a146104cf57806364e130cf14610502575f5ffd5b806357d4ca5c116101db57806357d4ca5c146104565780635c975abb146104855780635d4edca71461049c575f5ffd5b806353b9e632146103f6578063548a5a3314610437575f5ffd5b80632ff0b2ea1161024a5780633601e63e116102305780633601e63e146103905780633f4ba83a146103af57806341c841c3146103c3575f5ffd5b80632ff0b2ea1461034557806330bda03e14610371575f5ffd5b806307ee93551461027b5780630f3fa211146102c45780631346ca3b146102e55780632f90b18414610304575b5f5ffd5b348015610286575f5ffd5b5061029a610295366004613f20565b610809565b60405173ffffffffffffffffffffffffffffffffffffffff90911681526020015b60405180910390f35b3480156102cf575f5ffd5b506102e36102de366004613f58565b6108be565b005b3480156102f0575f5ffd5b506102e36102ff366004613fb8565b6109d0565b34801561030f575f5ffd5b506103377f000000000000000000000000000000000000000000000000000000000000000081565b6040519081526020016102bb565b348015610350575f5ffd5b5061036461035f366004614130565b610c06565b6040516102bb91906141d1565b34801561037c575f5ffd5b506102e361038b366004613f58565b610e15565b34801561039b575f5ffd5b506102e36103aa36600461423a565b610f1d565b3480156103ba575f5ffd5b506102e3610fdd565b3480156103ce575f5ffd5b5061029a7f000000000000000000000000000000000000000000000000000000000000000081565b348015610401575f5ffd5b5061029a610410366004613f20565b60c96020525f908152604090205473ffffffffffffffffffffffffffffffffffffffff1681565b348015610442575f5ffd5b506102e36104513660046142fe565b610fef565b348015610461575f5ffd5b5061047561047036600461432c565b611017565b60405190151581526020016102bb565b348015610490575f5ffd5b5060975460ff16610475565b3480156104a7575f5ffd5b5061029a7f000000000000000000000000000000000000000000000000000000000000000081565b3480156104da575f5ffd5b5061029a7f000000000000000000000000000000000000000000000000000000000000000081565b34801561050d575f5ffd5b5060fb5461029a9073ffffffffffffffffffffffffffffffffffffffff1681565b348015610539575f5ffd5b5060fc5461029a9073ffffffffffffffffffffffffffffffffffffffff1681565b348015610565575f5ffd5b506102e3611507565b348015610579575f5ffd5b506102e3611518565b34801561058d575f5ffd5b506103377f000000000000000000000000000000000000000000000000000000000000000081565b3480156105c0575f5ffd5b506102e36115ca565b3480156105d4575f5ffd5b5061029a6105e3366004613f20565b60ca6020525f908152604090205473ffffffffffffffffffffffffffffffffffffffff1681565b348015610615575f5ffd5b5060335473ffffffffffffffffffffffffffffffffffffffff1661029a565b34801561063f575f5ffd5b506102e361064e366004614362565b6115da565b34801561065e575f5ffd5b5061047561066d366004614362565b611701565b6102e361068036600461438b565b6117c6565b6103376106933660046143da565b6118a2565b3480156106a3575f5ffd5b506102e36106b2366004614450565b611e89565b3480156106c2575f5ffd5b506102e36106d13660046142fe565b611f46565b6102e36106e43660046144f7565b611fff565b3480156106f4575f5ffd5b506102e3610703366004613f58565b61224f565b6102e3610716366004614533565b612431565b348015610726575f5ffd5b506102e36107353660046145a1565b612469565b61074d610748366004613fb8565b612520565b6040516102bb9190614722565b348015610765575f5ffd5b5060655473ffffffffffffffffffffffffffffffffffffffff1661029a565b34801561078f575f5ffd5b5061029a7f000000000000000000000000000000000000000000000000000000000000000081565b3480156107c2575f5ffd5b506103377f000000000000000000000000000000000000000000000000000000000000000081565b3480156107f5575f5ffd5b506102e3610804366004613f58565b612616565b6040517f07ee9355000000000000000000000000000000000000000000000000000000008152600481018290525f907f000000000000000000000000000000000000000000000000000000000000000073ffffffffffffffffffffffffffffffffffffffff16906307ee935590602401602060405180830381865afa158015610894573d5f5f3e3d5ffd5b505050506040513d601f19601f820116820180604052508101906108b89190614734565b92915050565b6108c66126c6565b60fb5473ffffffffffffffffffffffffffffffffffffffff1615610916576040517f1c55230b00000000000000000000000000000000000000000000000000000000815260040160405180910390fd5b73ffffffffffffffffffffffffffffffffffffffff8116610963576040517fd92e233d00000000000000000000000000000000000000000000000000000000815260040160405180910390fd5b60fb80547fffffffffffffffffffffffff00000000000000000000000000000000000000001673ffffffffffffffffffffffffffffffffffffffff83161790556109cd7f000000000000000000000000000000000000000000000000000000000000000082612747565b50565b3373ffffffffffffffffffffffffffffffffffffffff7f00000000000000000000000000000000000000000000000000000000000000001614610a46576040517f8e4a23d60000000000000000000000000000000000000000000000000000000081523360048201526024015b60405180910390fd5b7f8e94fed44239eb2314ab7a406345e6c5a8f0ccedf3b600de3d004e672c33abf4545f819003610aa2576040517fdd7e362100000000000000000000000000000000000000000000000000000000815260040160405180910390fd5b60018114610adc576040517fab143c0600000000000000000000000000000000000000000000000000000000815260040160405180910390fd5b60027f8e94fed44239eb2314ab7a406345e6c5a8f0ccedf3b600de3d004e672c33abf455610b086127c4565b5f84815260c96020526040908190205490517fc2e9029300000000000000000000000000000000000000000000000000000000815273ffffffffffffffffffffffffffffffffffffffff9091169063c2e9029390610b7290899088908a9089908990600401614796565b5f604051808303815f87803b158015610b89575f5ffd5b505af1158015610b9b573d5f5f3e3d5ffd5b5050505083867f4250817d22c13fba8067153d85ccd9706326ac2bd14d5c3898c8b1bccc4406588585604051610bd29291906147d1565b60405180910390a360017f8e94fed44239eb2314ab7a406345e6c5a8f0ccedf3b600de3d004e672c33abf455505050505050565b60fb546040517f97bb3ce9000000000000000000000000000000000000000000000000000000008152600481018490526060915f9173ffffffffffffffffffffffffffffffffffffffff909116906397bb3ce990602401602060405180830381865afa158015610c78573d5f5f3e3d5ffd5b505050506040513d601f19601f82011682018060405250810190610c9c9190614734565b73ffffffffffffffffffffffffffffffffffffffff161480610d4d575060fb546040517f5f3455b500000000000000000000000000000000000000000000000000000000815260048101859052469173ffffffffffffffffffffffffffffffffffffffff1690635f3455b590602401602060405180830381865afa158015610d26573d5f5f3e3d5ffd5b505050506040513d601f19601f82011682018060405250810190610d4a91906147e4565b14155b15610de457468383604051602401610d67939291906147fb565b604080517fffffffffffffffffffffffffffffffffffffffffffffffffffffffffffffffe08184030181529190526020810180517bffffffffffffffffffffffffffffffffffffffffffffffffffffffff167f9c884fd1000000000000000000000000000000000000000000000000000000001790529050610e0e565b5f5f5f5f610df186612831565b945094509450945050610e07888585858561285d565b9450505050505b9392505050565b610e1d6126c6565b60fc5473ffffffffffffffffffffffffffffffffffffffff1615610e895760fc546040517f0dfb42bf00000000000000000000000000000000000000000000000000000000815273ffffffffffffffffffffffffffffffffffffffff9091166004820152602401610a3d565b73ffffffffffffffffffffffffffffffffffffffff8116610ed6576040517fd92e233d00000000000000000000000000000000000000000000000000000000815260040160405180910390fd5b60fc80547fffffffffffffffffffffffff00000000000000000000000000000000000000001673ffffffffffffffffffffffffffffffffffffffff92909216919091179055565b6040517f3601e63e00000000000000000000000000000000000000000000000000000000815273ffffffffffffffffffffffffffffffffffffffff7f00000000000000000000000000000000000000000000000000000000000000001690633601e63e90610fa3908e908e908e908e908e908e908e908e908e908e908e90600401614862565b5f604051808303815f87803b158015610fba575f5ffd5b505af1158015610fcc573d5f5f3e3d5ffd5b505050505050505050505050505050565b610fe56126c6565b610fed6128f9565b565b60fb546110139073ffffffffffffffffffffffffffffffffffffffff168383612976565b5050565b60fb545f9073ffffffffffffffffffffffffffffffffffffffff16331461106c576040517f8e4a23d6000000000000000000000000000000000000000000000000000000008152336004820152602401610a3d565b60fb546040517f97bb3ce9000000000000000000000000000000000000000000000000000000008152600481018690525f9173ffffffffffffffffffffffffffffffffffffffff16906397bb3ce990602401602060405180830381865afa1580156110d9573d5f5f3e3d5ffd5b505050506040513d601f19601f820116820180604052508101906110fd9190614734565b905073ffffffffffffffffffffffffffffffffffffffff81161580611138575073ffffffffffffffffffffffffffffffffffffffff81166001145b15611146575f915050610e0e565b60fc546040517fdd62ed3e00000000000000000000000000000000000000000000000000000000815273ffffffffffffffffffffffffffffffffffffffff918216600482015230602482015282915f91879184169063dd62ed3e90604401602060405180830381865afa1580156111bf573d5f5f3e3d5ffd5b505050506040513d601f19601f820116820180604052508101906111e391906147e4565b1061120b575060fc5473ffffffffffffffffffffffffffffffffffffffff1693506001611351565b6040517fdd62ed3e00000000000000000000000000000000000000000000000000000000815273ffffffffffffffffffffffffffffffffffffffff868116600483015230602483015287919084169063dd62ed3e90604401602060405180830381865afa15801561127e573d5f5f3e3d5ffd5b505050506040513d601f19601f820116820180604052508101906112a291906147e4565b10158015611348575060fb546040517fdd62ed3e00000000000000000000000000000000000000000000000000000000815273ffffffffffffffffffffffffffffffffffffffff87811660048301529182166024820152879184169063dd62ed3e90604401602060405180830381865afa158015611322573d5f5f3e3d5ffd5b505050506040513d601f19601f8201168201806040525081019061134691906147e4565b105b15611351575060015b80156114fb5760fb546040517f70a0823100000000000000000000000000000000000000000000000000000000815273ffffffffffffffffffffffffffffffffffffffff91821660048201525f918416906370a0823190602401602060405180830381865afa1580156113c6573d5f5f3e3d5ffd5b505050506040513d601f19601f820116820180604052508101906113ea91906147e4565b60fb549091506114169073ffffffffffffffffffffffffffffffffffffffff858116918991168a612ad5565b60fb546040517f70a0823100000000000000000000000000000000000000000000000000000000815273ffffffffffffffffffffffffffffffffffffffff91821660048201525f918516906370a0823190602401602060405180830381865afa158015611485573d5f5f3e3d5ffd5b505050506040513d601f19601f820116820180604052508101906114a991906147e4565b9050876114b6838361490e565b146114ed576040517f23830e2800000000000000000000000000000000000000000000000000000000815260040160405180910390fd5b600195505050505050610e0e565b505f9695505050505050565b61150f6126c6565b610fed5f612b70565b606554339073ffffffffffffffffffffffffffffffffffffffff1681146115c1576040517f08c379a000000000000000000000000000000000000000000000000000000000815260206004820152602960248201527f4f776e61626c6532537465703a2063616c6c6572206973206e6f74207468652060448201527f6e6577206f776e657200000000000000000000000000000000000000000000006064820152608401610a3d565b6109cd81612b70565b6115d26126c6565b610fed612ba1565b3373ffffffffffffffffffffffffffffffffffffffff7f0000000000000000000000000000000000000000000000000000000000000000161461164b576040517f8e4a23d6000000000000000000000000000000000000000000000000000000008152336004820152602401610a3d565b6116536127c4565b6040517f4bc2c8c00000000000000000000000000000000000000000000000000000000081526004810184905260248101839052604481018290527f000000000000000000000000000000000000000000000000000000000000000073ffffffffffffffffffffffffffffffffffffffff1690634bc2c8c0906064015f604051808303815f87803b1580156116e6575f5ffd5b505af11580156116f8573d5f5f3e3d5ffd5b50505050505050565b6040517f8f31f0520000000000000000000000000000000000000000000000000000000081526004810184905260248101839052604481018290525f907f000000000000000000000000000000000000000000000000000000000000000073ffffffffffffffffffffffffffffffffffffffff1690638f31f05290606401602060405180830381865afa15801561179a573d5f5f3e3d5ffd5b505050506040513d601f19601f820116820180604052508101906117be9190614921565b949350505050565b3373ffffffffffffffffffffffffffffffffffffffff7f00000000000000000000000000000000000000000000000000000000000000001614611837576040517f8e4a23d6000000000000000000000000000000000000000000000000000000008152336004820152602401610a3d565b60fb5461186190859085908590859073ffffffffffffffffffffffffffffffffffffffff16612bfc565b82847f44eb9a840094a49b3cd0a5205042598a1c08c4e87bafb5760bc2d8efa170c54184846040516118949291906147d1565b60405180910390a350505050565b60fc545f9073ffffffffffffffffffffffffffffffffffffffff1633146118f7576040517f8e4a23d6000000000000000000000000000000000000000000000000000000008152336004820152602401610a3d565b7f8e94fed44239eb2314ab7a406345e6c5a8f0ccedf3b600de3d004e672c33abf4545f819003611953576040517fdd7e362100000000000000000000000000000000000000000000000000000000815260040160405180910390fd5b6001811461198d576040517fab143c0600000000000000000000000000000000000000000000000000000000815260040160405180910390fd5b60027f8e94fed44239eb2314ab7a406345e6c5a8f0ccedf3b600de3d004e672c33abf4556119b96127c4565b7f000000000000000000000000000000000000000000000000000000000000000073ffffffffffffffffffffffffffffffffffffffff168773ffffffffffffffffffffffffffffffffffffffff1603611a76576040517f06439c6b00000000000000000000000000000000000000000000000000000000815273ffffffffffffffffffffffffffffffffffffffff7f0000000000000000000000000000000000000000000000000000000000000000166004820152602401610a3d565b5f5f611a83888b8b612d4d565b9050611a8e89612da3565b9150611a9a468a612e36565b8214611ad2576040517f2996336100000000000000000000000000000000000000000000000000000000815260040160405180910390fd5b611b227f00000000000000000000000000000000000000000000000000000000000000005f848e855f60fb5f9054906101000a900473ffffffffffffffffffffffffffffffffffffffff16612e96565b90505f611b308c8484610c06565b90505f611b3d878e613008565b90505f6040518061012001604052807f00000000000000000000000000000000000000000000000000000000000000008152602001348152602001620100006003611b889190614940565b73ffffffffffffffffffffffffffffffffffffffff1681526020015f81526020018481526020018b81526020018a81526020015f67ffffffffffffffff811115611bd457611bd461401d565b604051908082528060200260200182016040528015611c0757816020015b6060815260200190600190039081611bf25790505b5081526020018373ffffffffffffffffffffffffffffffffffffffff1681525090507f000000000000000000000000000000000000000000000000000000000000000073ffffffffffffffffffffffffffffffffffffffff1663d52471c134836040518363ffffffff1660e01b8152600401611c83919061496c565b60206040518083038185885af1158015611c9f573d5f5f3e3d5ffd5b50505050506040513d601f19601f82011682018060405250810190611cc491906147e4565b9650505050505f611cd6888b8b612d4d565b90507f000000000000000000000000000000000000000000000000000000000000000073ffffffffffffffffffffffffffffffffffffffff16634bc2c8c07f0000000000000000000000000000000000000000000000000000000000000000611d665f60f81b8f8760fb5f9054906101000a900473ffffffffffffffffffffffffffffffffffffffff16886130a6565b6040517fffffffff0000000000000000000000000000000000000000000000000000000060e085901b16815260048101929092526024820152604481018790526064015f604051808303815f87803b158015611dc0575f5ffd5b505af1158015611dd2573d5f5f3e3d5ffd5b50506040805173ffffffffffffffffffffffffffffffffffffffff8e811682528d811660208301529181018c9052908e1693508692507f000000000000000000000000000000000000000000000000000000000000000091507fa1846a4248529db592da99da276f761d9f37a84d0f3d4e83819b8697590007009060600160405180910390a45060017f8e94fed44239eb2314ab7a406345e6c5a8f0ccedf3b600de3d004e672c33abf45550979650505050505050565b6040517fc099152500000000000000000000000000000000000000000000000000000000815273ffffffffffffffffffffffffffffffffffffffff7f0000000000000000000000000000000000000000000000000000000000000000169063c099152590611f0d908d908d908d908d908d908d908d908d908d908d90600401614a53565b5f604051808303815f87803b158015611f24575f5ffd5b505af1158015611f36573d5f5f3e3d5ffd5b5050505050505050505050505050565b611f4e6126c6565b604080514660208083019190915273ffffffffffffffffffffffffffffffffffffffff841682840181905260608084018790528451808503909101815260809093018085528351938301939093205f81815260ca90935293822080547fffffffffffffffffffffffff000000000000000000000000000000000000000016821790558592909184917f14c1bae9bcc3777747463b66a36584aa75e4ded1aa38089f447beecb125a21759190a4505050565b833373ffffffffffffffffffffffffffffffffffffffff7f000000000000000000000000000000000000000000000000000000000000000016148015906120a657507f0000000000000000000000000000000000000000000000000000000000000000811415806120a657503373ffffffffffffffffffffffffffffffffffffffff7f00000000000000000000000000000000000000000000000000000000000000001614155b156120df576040517f8e4a23d6000000000000000000000000000000000000000000000000000000008152336004820152602401610a3d565b6120e76127c4565b5f84815260c9602052604090205473ffffffffffffffffffffffffffffffffffffffff1680612145576040517ffde974f400000000000000000000000000000000000000000000000000000000815260048101869052602401610a3d565b8073ffffffffffffffffffffffffffffffffffffffff1663699b0fb934885f89896121718a5f5f612d4d565b6040518763ffffffff1660e01b8152600401612191959493929190614ad9565b5f6040518083038185885af11580156121ac573d5f5f3e3d5ffd5b50505050506040513d5f823e601f3d9081017fffffffffffffffffffffffffffffffffffffffffffffffffffffffffffffffe01682016040526121f29190810190614b66565b50604080518681526020810185905273ffffffffffffffffffffffffffffffffffffffff86169188917f0f87e1ea5eb1f034a6071ef630c174063e3d48756f853efaaf4292b92929824091015b60405180910390a3505050505050565b6122576132f1565b5f54610100900460ff161580801561227557505f54600160ff909116105b8061228e5750303b15801561228e57505f5460ff166001145b61231a576040517f08c379a000000000000000000000000000000000000000000000000000000000815260206004820152602e60248201527f496e697469616c697a61626c653a20636f6e747261637420697320616c72656160448201527f647920696e697469616c697a65640000000000000000000000000000000000006064820152608401610a3d565b5f80547fffffffffffffffffffffffffffffffffffffffffffffffffffffffffffffff001660011790558015612376575f80547fffffffffffffffffffffffffffffffffffffffffffffffffffffffffffff00ff166101001790555b73ffffffffffffffffffffffffffffffffffffffff82166123c3576040517fd92e233d00000000000000000000000000000000000000000000000000000000815260040160405180910390fd5b6123cc82612b70565b8015611013575f80547fffffffffffffffffffffffffffffffffffffffffffffffffffffffffffff00ff169055604051600181527f7f26b83ff96e1f2b6a682f133852f6798a09c465da95921460cefb38474024989060200160405180910390a15050565b61246186868686868660fb5f9054906101000a900473ffffffffffffffffffffffffffffffffffffffff16613351565b505050505050565b6040517fc87325f100000000000000000000000000000000000000000000000000000000815273ffffffffffffffffffffffffffffffffffffffff7f0000000000000000000000000000000000000000000000000000000000000000169063c87325f1906124e9908b908b908b908b908b908b908b908b90600401614b98565b5f604051808303815f87803b158015612500575f5ffd5b505af1158015612512573d5f5f3e3d5ffd5b505050505050505050505050565b6125656040518060a001604052805f81526020015f73ffffffffffffffffffffffffffffffffffffffff16815260200160608152602001606081526020015f81525090565b3373ffffffffffffffffffffffffffffffffffffffff7f000000000000000000000000000000000000000000000000000000000000000016146125d6576040517f8e4a23d6000000000000000000000000000000000000000000000000000000008152336004820152602401610a3d565b6125de6127c4565b60fb5461260a908790879087908790879073ffffffffffffffffffffffffffffffffffffffff166133d9565b90505b95945050505050565b61261e6126c6565b6065805473ffffffffffffffffffffffffffffffffffffffff83167fffffffffffffffffffffffff0000000000000000000000000000000000000000909116811790915561268160335473ffffffffffffffffffffffffffffffffffffffff1690565b73ffffffffffffffffffffffffffffffffffffffff167f38d16b8cac22d99fc7c124b9cd0de2d3fa1faef420bfe791d8c362d765e2270060405160405180910390a350565b60335473ffffffffffffffffffffffffffffffffffffffff163314610fed576040517f08c379a000000000000000000000000000000000000000000000000000000000815260206004820181905260248201527f4f776e61626c653a2063616c6c6572206973206e6f7420746865206f776e65726044820152606401610a3d565b5f82815260c9602052604080822080547fffffffffffffffffffffffff00000000000000000000000000000000000000001673ffffffffffffffffffffffffffffffffffffffff85169081179091559051909184917f2632cc0d58b0cb1017b99cc0b6cc66ad86440cc0dd923bfdaa294f95ba1b02019190a35050565b60975460ff1615610fed576040517f08c379a000000000000000000000000000000000000000000000000000000000815260206004820152601060248201527f5061757361626c653a20706175736564000000000000000000000000000000006044820152606401610a3d565b5f5f5f5f60608580602001905181019061284b9190614be9565b939a9299509097509550909350915050565b60608585858585604051602401612878959493929190614c66565b604080517fffffffffffffffffffffffffffffffffffffffffffffffffffffffffffffffe08184030181529190526020810180517bffffffffffffffffffffffffffffffffffffffffffffffffffffffff167fcfe7af7c00000000000000000000000000000000000000000000000000000000179052905095945050505050565b612901613774565b609780547fffffffffffffffffffffffffffffffffffffffffffffffffffffffffffffff001690557f5db9ee0a495bf2e6ff9c91a7834c1ba4fdd244a5e8aa4e537bd38aeae4b073aa335b60405173ffffffffffffffffffffffffffffffffffffffff909116815260200160405180910390a1565b3373ffffffffffffffffffffffffffffffffffffffff8416145f8161299b57336129a9565b6129a9620100006004614940565b604080514660208083019190915273ffffffffffffffffffffffffffffffffffffffff8416828401526060808301899052835180840390910181526080909201909252805191012090915082158015612a2557505f81815260ca602052604090205473ffffffffffffffffffffffffffffffffffffffff163314155b15612a5e576040517f8e4a23d6000000000000000000000000000000000000000000000000000000008152336004820152602401610a3d565b612a688185612747565b5f81815260ca602090815260409182902080547fffffffffffffffffffffffff000000000000000000000000000000000000000016339081179091559151918252869183917f78d918cd43d6ef25bef97471990c81ebfaa55cc35e696326f6fd05b4c976d5d8910161223f565b6040805173ffffffffffffffffffffffffffffffffffffffff85811660248301528416604482015260648082018490528251808303909101815260849091019091526020810180517bffffffffffffffffffffffffffffffffffffffffffffffffffffffff167f23b872dd00000000000000000000000000000000000000000000000000000000179052612b6a9085906137e0565b50505050565b606580547fffffffffffffffffffffffff00000000000000000000000000000000000000001690556109cd816138f2565b612ba96127c4565b609780547fffffffffffffffffffffffffffffffffffffffffffffffffffffffffffffff001660011790557f62e78cea01bee320cd4e420270b5ea74000d11b0c9f74754ebdbfc544b05a25861294c3390565b5f84815260c9602052604090205473ffffffffffffffffffffffffffffffffffffffff168015612cb3576040517f36ba035500000000000000000000000000000000000000000000000000000000815273ffffffffffffffffffffffffffffffffffffffff8216906336ba0355903490612c80908a908a908a908a90600401614cd2565b5f604051808303818588803b158015612c97575f5ffd5b505af1158015612ca9573d5f5f3e3d5ffd5b5050505050612461565b612cbd8583612747565b6040517f36ba035500000000000000000000000000000000000000000000000000000000815273ffffffffffffffffffffffffffffffffffffffff8316906336ba0355903490612d17908a908a908a908a90600401614cd2565b5f604051808303818588803b158015612d2e575f5ffd5b505af1158015612d40573d5f5f3e3d5ffd5b5050505050505050505050565b6060838383604051602001612d8b9392919092835273ffffffffffffffffffffffffffffffffffffffff918216602084015216604082015260600190565b60405160208183030381529060405290509392505050565b60fb546040517f19a2a28500000000000000000000000000000000000000000000000000000000815273ffffffffffffffffffffffffffffffffffffffff83811660048301525f9216906319a2a285906024016020604051808303815f875af1158015612e12573d5f5f3e3d5ffd5b505050506040513d601f19601f820116820180604052508101906108b891906147e4565b5f82612e46620100006004614940565b60408051602081019390935273ffffffffffffffffffffffffffffffffffffffff918216908301528316606082015260800160405160208183030381529060405280519060200120905092915050565b5f85815260c9602052604090205460609073ffffffffffffffffffffffffffffffffffffffff1680612f47576040517f49b4085300000000000000000000000000000000000000000000000000000000815273ffffffffffffffffffffffffffffffffffffffff8416906349b4085390612f169088908b90600401614cf1565b5f604051808303815f87803b158015612f2d575f5ffd5b505af1158015612f3f573d5f5f3e3d5ffd5b505050508290505b5f84612f53575f612f55565b345b90508173ffffffffffffffffffffffffffffffffffffffff1663699b0fb9828c8c8c8c8c6040518763ffffffff1660e01b8152600401612f99959493929190614ad9565b5f6040518083038185885af1158015612fb4573d5f5f3e3d5ffd5b50505050506040513d5f823e601f3d9081017fffffffffffffffffffffffffffffffffffffffffffffffffffffffffffffffe0168201604052612ffa9190810190614b66565b9a9950505050505050505050565b5f73ffffffffffffffffffffffffffffffffffffffff83166130665773ffffffffffffffffffffffffffffffffffffffff8216321461305d57731111000000000000000000000000000000001111820161305f565b815b90506108b8565b73ffffffffffffffffffffffffffffffffffffffff83163b1561309f57731111000000000000000000000000000000001111830161305f565b5090919050565b5f7fff000000000000000000000000000000000000000000000000000000000000008616613227576040517f97bb3ce9000000000000000000000000000000000000000000000000000000008152600481018590525f9073ffffffffffffffffffffffffffffffffffffffff8516906397bb3ce990602401602060405180830381865afa158015613139573d5f5f3e3d5ffd5b505050506040513d601f19601f8201168201806040525081019061315d9190614734565b90505f61316a4683612e36565b90508086146131c4576040517f1929b7de0000000000000000000000000000000000000000000000000000000081526004810187905273ffffffffffffffffffffffffffffffffffffffff83166024820152604401610a3d565b5f6131ce85613968565b50506040805173ffffffffffffffffffffffffffffffffffffffff808c1660208301528616918101919091526060810182905290915060800160405160208183030381529060405280519060200120935050505061260d565b7fff00000000000000000000000000000000000000000000000000000000000000868116016132bf578585858460405160200161326693929190614d12565b604080517fffffffffffffffffffffffffffffffffffffffffffffffffffffffffffffffe0818403018152908290526132a29291602001614d5d565b60405160208183030381529060405280519060200120905061260d565b6040517f084a144900000000000000000000000000000000000000000000000000000000815260040160405180910390fd5b7f8e94fed44239eb2314ab7a406345e6c5a8f0ccedf3b600de3d004e672c33abf48054600190915580156109cd576040517fdf3a8fdd00000000000000000000000000000000000000000000000000000000815260040160405180910390fd5b5f6133608887878787876133d9565b6040517f68bac3c200000000000000000000000000000000000000000000000000000000815290915073ffffffffffffffffffffffffffffffffffffffff7f000000000000000000000000000000000000000000000000000000000000000016906368bac3c2906124e9908a9089908690600401614d90565b61341e6040518060a001604052805f81526020015f73ffffffffffffffffffffffffffffffffffffffff16815260200160608152602001606081526020015f81525090565b3373ffffffffffffffffffffffffffffffffffffffff7f0000000000000000000000000000000000000000000000000000000000000000161461348f576040517f8e4a23d6000000000000000000000000000000000000000000000000000000008152336004820152602401610a3d565b6134976127c4565b5f60605f86865f8181106134ad576134ad614dae565b909101357fff00000000000000000000000000000000000000000000000000000000000000169150507ffe000000000000000000000000000000000000000000000000000000000000008101613579573415158061350a57508715155b15613541576040517f536ec84b00000000000000000000000000000000000000000000000000000000815260040160405180910390fd5b5f80613550886001818c614ddb565b81019061355d91906142fe565b9150915061356d8c8c84846139c7565b9550505050505061376a565b7fff00000000000000000000000000000000000000000000000000000000000000818116016135c6576135af866001818a614ddb565b8101906135bc9190614e02565b90935091506135f8565b7fff0000000000000000000000000000000000000000000000000000000000000081166132bf576135bc87878b613bff565b6040517fe52db4ca000000000000000000000000000000000000000000000000000000008152600481018b905283907f000000000000000000000000000000000000000000000000000000000000000073ffffffffffffffffffffffffffffffffffffffff169063e52db4ca90602401602060405180830381865afa158015613683573d5f5f3e3d5ffd5b505050506040513d601f19601f820116820180604052508101906136a791906147e4565b036136e1576040517f04a0b7e900000000000000000000000000000000000000000000000000000000815260048101849052602401610a3d565b5f6136f28b8a868d8760018c612e96565b90505f613702838c878a886130a6565b90506137108b868484613cb8565b95508a73ffffffffffffffffffffffffffffffffffffffff16818d7fe21913bc89c1320d9709a5d236ffe06b54cf88aecfc9509ebd68f1adba45781e888660405161375c929190614e46565b60405180910390a450505050505b9695505050505050565b60975460ff16610fed576040517f08c379a000000000000000000000000000000000000000000000000000000000815260206004820152601460248201527f5061757361626c653a206e6f74207061757365640000000000000000000000006044820152606401610a3d565b5f613841826040518060400160405280602081526020017f5361666545524332303a206c6f772d6c6576656c2063616c6c206661696c65648152508573ffffffffffffffffffffffffffffffffffffffff16613db59092919063ffffffff16565b905080515f14806138615750808060200190518101906138619190614921565b6138ed576040517f08c379a000000000000000000000000000000000000000000000000000000000815260206004820152602a60248201527f5361666545524332303a204552433230206f7065726174696f6e20646964206e60448201527f6f742073756363656564000000000000000000000000000000000000000000006064820152608401610a3d565b505050565b6033805473ffffffffffffffffffffffffffffffffffffffff8381167fffffffffffffffffffffffff0000000000000000000000000000000000000000831681179093556040519116919082907f8be0079c531659141344cd1fd0a4f28419497f9722a3daafe3b4186f6b6457e0905f90a35050565b5f5f5f83516060146139a6576040517fde4c0b9600000000000000000000000000000000000000000000000000000000815260040160405180910390fd5b838060200190518101906139ba9190614e5e565b9196909550909350915050565b613a0c6040518060a001604052805f81526020015f73ffffffffffffffffffffffffffffffffffffffff16815260200160608152602001606081526020015f81525090565b5f83815260ca6020526040908190205490517f9cc395d0000000000000000000000000000000000000000000000000000000008152600481018790526024810185905273ffffffffffffffffffffffffffffffffffffffff8681166044830152848116606483015290911690639cc395d0906084015f6040518083038186803b158015613a97575f5ffd5b505afa158015613aa9573d5f5f3e3d5ffd5b50506040514660248201526044810186905273ffffffffffffffffffffffffffffffffffffffff851660648201525f92506084019050604080517fffffffffffffffffffffffffffffffffffffffffffffffffffffffffffffffe08184030181529181526020820180517bffffffffffffffffffffffffffffffffffffffffffffffffffffffff167fda556bdc00000000000000000000000000000000000000000000000000000000179052805160a0810190915290915080613b8d60017fa175e001c0e5684bc26302c2f9a55aec9f3936fe2aef558034003ef4da7fc77e61490e565b8152602001613ba0620100006003614940565b73ffffffffffffffffffffffffffffffffffffffff1681526020808201849052604080515f808252928101825292019190613beb565b6060815260200190600190039081613bd65790505b5081525f6020909101529695505050505050565b5f6060818080613c1187890189614e94565b9250925092505f613c2184612da3565b90505f613c2e4686612e36565b9050808214613c69576040517ffade089a00000000000000000000000000000000000000000000000000000000815260040160405180910390fd5b7f00000000000000000000000000000000000000000000000000000000000000008203613c9b57835f03613c9b573493505b81613ca7858588612d4d565b965096505050505050935093915050565b613cfd6040518060a001604052805f81526020015f73ffffffffffffffffffffffffffffffffffffffff16815260200160608152602001606081526020015f81525090565b5f613d09868686610c06565b6040805160a0810190915290915080613d4360017fa175e001c0e5684bc26302c2f9a55aec9f3936fe2aef558034003ef4da7fc77e61490e565b8152602001613d56620100006003614940565b73ffffffffffffffffffffffffffffffffffffffff1681526020808201849052604080515f808252928101825292019190613da1565b6060815260200190600190039081613d8c5790505b508152602001939093525090949350505050565b60606117be84845f85855f5f8673ffffffffffffffffffffffffffffffffffffffff168587604051613de79190614ec8565b5f6040518083038185875af1925050503d805f8114613e21576040519150601f19603f3d011682016040523d82523d5f602084013e613e26565b606091505b5091509150613e3787838387613e42565b979650505050505050565b60608315613ed75782515f03613ed05773ffffffffffffffffffffffffffffffffffffffff85163b613ed0576040517f08c379a000000000000000000000000000000000000000000000000000000000815260206004820152601d60248201527f416464726573733a2063616c6c20746f206e6f6e2d636f6e74726163740000006044820152606401610a3d565b50816117be565b6117be8383815115613eec5781518083602001fd5b806040517f08c379a0000000000000000000000000000000000000000000000000000000008152600401610a3d91906141d1565b5f60208284031215613f30575f5ffd5b5035919050565b73ffffffffffffffffffffffffffffffffffffffff811681146109cd575f5ffd5b5f60208284031215613f68575f5ffd5b8135610e0e81613f37565b5f5f83601f840112613f83575f5ffd5b50813567ffffffffffffffff811115613f9a575f5ffd5b602083019150836020828501011115613fb1575f5ffd5b9250929050565b5f5f5f5f5f60808688031215613fcc575f5ffd5b853594506020860135613fde81613f37565b935060408601359250606086013567ffffffffffffffff811115614000575f5ffd5b61400c88828901613f73565b969995985093965092949392505050565b7f4e487b71000000000000000000000000000000000000000000000000000000005f52604160045260245ffd5b604051601f82017fffffffffffffffffffffffffffffffffffffffffffffffffffffffffffffffe016810167ffffffffffffffff811182821017156140915761409161401d565b604052919050565b5f67ffffffffffffffff8211156140b2576140b261401d565b50601f017fffffffffffffffffffffffffffffffffffffffffffffffffffffffffffffffe01660200190565b5f82601f8301126140ed575f5ffd5b81356141006140fb82614099565b61404a565b818152846020838601011115614114575f5ffd5b816020850160208301375f918101602001919091529392505050565b5f5f5f60608486031215614142575f5ffd5b833561414d81613f37565b925060208401359150604084013567ffffffffffffffff81111561416f575f5ffd5b61417b868287016140de565b9150509250925092565b5f81518084528060208401602086015e5f6020828601015260207fffffffffffffffffffffffffffffffffffffffffffffffffffffffffffffffe0601f83011685010191505092915050565b602081525f610e0e6020830184614185565b803561ffff811681146141f4575f5ffd5b919050565b5f5f83601f840112614209575f5ffd5b50813567ffffffffffffffff811115614220575f5ffd5b6020830191508360208260051b8501011115613fb1575f5ffd5b5f5f5f5f5f5f5f5f5f5f5f6101208c8e031215614255575f5ffd5b8b359a5060208c013561426781613f37565b995060408c0135985060608c013567ffffffffffffffff811115614289575f5ffd5b6142958e828f01613f73565b90995097505060808c0135955060a08c0135945060c08c013593506142bc60e08d016141e3565b92506101008c013567ffffffffffffffff8111156142d8575f5ffd5b6142e48e828f016141f9565b915080935050809150509295989b509295989b9093969950565b5f5f6040838503121561430f575f5ffd5b82359150602083013561432181613f37565b809150509250929050565b5f5f5f6060848603121561433e575f5ffd5b8335925060208401359150604084013561435781613f37565b809150509250925092565b5f5f5f60608486031215614374575f5ffd5b505081359360208301359350604090920135919050565b5f5f5f5f6060858703121561439e575f5ffd5b8435935060208501359250604085013567ffffffffffffffff8111156143c2575f5ffd5b6143ce87828801613f73565b95989497509550505050565b5f5f5f5f5f5f5f60e0888a0312156143f0575f5ffd5b87356143fb81613f37565b9650602088013561440b81613f37565b9550604088013561441b81613f37565b9450606088013593506080880135925060a0880135915060c088013561444081613f37565b8091505092959891949750929550565b5f5f5f5f5f5f5f5f5f5f6101208b8d03121561446a575f5ffd5b8a35995060208b013561447c81613f37565b985060408b013561448c81613f37565b975060608b0135965060808b0135955060a08b0135945060c08b013593506144b660e08c016141e3565b92506101008b013567ffffffffffffffff8111156144d2575f5ffd5b6144de8d828e016141f9565b915080935050809150509295989b9194979a5092959850565b5f5f5f5f6080858703121561450a575f5ffd5b8435935060208501359250604085013561452381613f37565b9396929550929360600135925050565b5f5f5f5f5f5f60a08789031215614548575f5ffd5b8635955060208701359450604087013561456181613f37565b935060608701359250608087013567ffffffffffffffff811115614583575f5ffd5b61458f89828a01613f73565b979a9699509497509295939492505050565b5f5f5f5f5f5f5f5f60c0898b0312156145b8575f5ffd5b8835975060208901359650604089013595506145d660608a016141e3565b9450608089013567ffffffffffffffff8111156145f1575f5ffd5b6145fd8b828c01613f73565b90955093505060a089013567ffffffffffffffff81111561461c575f5ffd5b6146288b828c016141f9565b999c989b5096995094979396929594505050565b5f82825180855260208501945060208160051b830101602085015f5b838110156146a8577fffffffffffffffffffffffffffffffffffffffffffffffffffffffffffffffe0858403018852614692838351614185565b6020988901989093509190910190600101614658565b50909695505050505050565b8051825273ffffffffffffffffffffffffffffffffffffffff60208201511660208301525f604082015160a060408501526146f260a0850182614185565b90506060830151848203606086015261470b828261463c565b915050608083015160808501528091505092915050565b602081525f610e0e60208301846146b4565b5f60208284031215614744575f5ffd5b8151610e0e81613f37565b81835281816020850137505f602082840101525f60207fffffffffffffffffffffffffffffffffffffffffffffffffffffffffffffffe0601f840116840101905092915050565b85815284602082015273ffffffffffffffffffffffffffffffffffffffff84166040820152608060608201525f613e3760808301848661474f565b602081525f6117be60208301848661474f565b5f602082840312156147f4575f5ffd5b5051919050565b838152826020820152606060408201525f61260d6060830184614185565b8183525f7f07ffffffffffffffffffffffffffffffffffffffffffffffffffffffffffffff831115614849575f5ffd5b8260051b80836020870137939093016020019392505050565b8b815273ffffffffffffffffffffffffffffffffffffffff8b16602082015289604082015261012060608201525f61489f61012083018a8c61474f565b8860808401528760a08401528660c084015261ffff861660e08401528281036101008401526148cf818587614819565b9e9d5050505050505050505050505050565b7f4e487b71000000000000000000000000000000000000000000000000000000005f52601160045260245ffd5b818103818111156108b8576108b86148e1565b5f60208284031215614931575f5ffd5b81518015158114610e0e575f5ffd5b73ffffffffffffffffffffffffffffffffffffffff81811683821601908111156108b8576108b86148e1565b6020815281516020820152602082015160408201525f60408301516149a9606084018273ffffffffffffffffffffffffffffffffffffffff169052565b5060608301516080830152608083015161012060a08401526149cf610140840182614185565b905060a084015160c084015260c084015160e084015260e08401517fffffffffffffffffffffffffffffffffffffffffffffffffffffffffffffffe084830301610100850152614a1f828261463c565b915050610100840151614a4b61012085018273ffffffffffffffffffffffffffffffffffffffff169052565b509392505050565b8a815273ffffffffffffffffffffffffffffffffffffffff8a16602082015273ffffffffffffffffffffffffffffffffffffffff891660408201528760608201528660808201528560a08201528460c082015261ffff841660e08201526101206101008201525f614ac961012083018486614819565b9c9b505050505050505050505050565b85815284602082015283604082015273ffffffffffffffffffffffffffffffffffffffff8316606082015260a060808201525f613e3760a0830184614185565b5f82601f830112614b28575f5ffd5b8151614b366140fb82614099565b818152846020838601011115614b4a575f5ffd5b8160208501602083015e5f918101602001919091529392505050565b5f60208284031215614b76575f5ffd5b815167ffffffffffffffff811115614b8c575f5ffd5b6117be84828501614b19565b88815287602082015286604082015261ffff8616606082015260c060808201525f614bc760c08301868861474f565b82810360a0840152614bda818587614819565b9b9a5050505050505050505050565b5f5f5f5f5f60a08688031215614bfd575f5ffd5b8551614c0881613f37565b6020870151909550614c1981613f37565b6040870151909450614c2a81613f37565b60608701516080880151919450925067ffffffffffffffff811115614c4d575f5ffd5b614c5988828901614b19565b9150509295509295909350565b73ffffffffffffffffffffffffffffffffffffffff8616815273ffffffffffffffffffffffffffffffffffffffff8516602082015273ffffffffffffffffffffffffffffffffffffffff8416604082015282606082015260a060808201525f613e3760a0830184614185565b848152836020820152606060408201525f61260a60608301848661474f565b604081525f614d036040830185614185565b90508260208301529392505050565b73ffffffffffffffffffffffffffffffffffffffff84168152826020820152606060408201525f61260d6060830184614185565b5f81518060208401855e5f93019283525090919050565b7fff00000000000000000000000000000000000000000000000000000000000000831681525f6117be6001830184614d46565b838152826020820152606060408201525f61260d60608301846146b4565b7f4e487b71000000000000000000000000000000000000000000000000000000005f52603260045260245ffd5b5f5f85851115614de9575f5ffd5b83861115614df5575f5ffd5b5050820193919092039150565b5f5f60408385031215614e13575f5ffd5b82359150602083013567ffffffffffffffff811115614e30575f5ffd5b614e3c858286016140de565b9150509250929050565b828152604060208201525f6117be6040830184614185565b5f5f5f60608486031215614e70575f5ffd5b83516020850151909350614e8381613f37565b604085015190925061435781613f37565b5f5f5f60608486031215614ea6575f5ffd5b8335614eb181613f37565b925060208401359150604084013561435781613f37565b5f610e0e8284614d4656fea264697066735822122077b4972dc8efdf6507755a875e6609f26d60b4b3e7446abae676070f1b8e877164736f6c634300081c0033","linkReferences":{}},"methodIdentifiers":{"BRIDGE_HUB()":"5d4edca7","ERA_CHAIN_ID()":"ef011dff","ETH_TOKEN_ASSET_ID()":"81eccdd4","INTEROP_CENTER()":"5ecd0e3a","L1_CHAIN_ID()":"2f90b184","L1_NULLIFIER()":"e60ccaba","L1_WETH_TOKEN()":"41c841c3","acceptOwnership()":"79ba5097","assetDeploymentTracker(bytes32)":"85e4e16a","assetHandlerAddress(bytes32)":"53b9e632","bridgeRecoverFailedTransfer(uint256,address,bytes32,bytes)":"1346ca3b","bridgeRecoverFailedTransfer(uint256,address,bytes32,bytes,bytes32,uint256,uint256,uint16,bytes32[])":"3601e63e","bridgehubAddCallToBundle(uint256,bytes32,address,uint256,bytes)":"c64e4771","bridgehubConfirmL2Transaction(uint256,bytes32,bytes32)":"8eb7db57","bridgehubDeposit(uint256,address,uint256,bytes)":"ca408c23","bridgehubDepositBaseToken(uint256,bytes32,address,uint256)":"c4879440","claimFailedDeposit(uint256,address,address,uint256,bytes32,uint256,uint256,uint16,bytes32[])":"c0991525","depositLegacyErc20Bridge(address,address,address,uint256,uint256,uint256,address)":"9e6ea417","finalizeDeposit(uint256,bytes32,bytes)":"9c884fd1","finalizeWithdrawal(uint256,uint256,uint256,uint16,bytes,bytes32[])":"c87325f1","getDepositCalldata(address,bytes32,bytes)":"2ff0b2ea","initialize(address)":"c4d66de8","isWithdrawalFinalized(uint256,uint256,uint256)":"8f31f052","l2BridgeAddress(uint256)":"07ee9355","legacyBridge()":"6e9d7899","nativeTokenVault()":"64e130cf","owner()":"8da5cb5b","pause()":"8456cb59","paused()":"5c975abb","pendingOwner()":"e30c3978","renounceOwnership()":"715018a6","setAssetDeploymentTracker(bytes32,address)":"c0a16dda","setAssetHandlerAddressThisChain(bytes32,address)":"548a5a33","setL1Erc20Bridge(address)":"30bda03e","setNativeTokenVault(address)":"0f3fa211","transferFundsToNTV(bytes32,uint256,address)":"57d4ca5c","transferOwnership(address)":"f2fde38b","unpause()":"3f4ba83a"},"id":12}