{"abi":[{"type":"constructor","inputs":[{"name":"_l1ChainId","type":"uint256","internalType":"uint256"},{"name":"_aliasedOwner","type":"address","internalType":"address"},{"name":"_l2TokenProxyBytecodeHash","type":"bytes32","internalType":"bytes32"},{"name":"_legacySharedBridge","type":"address","internalType":"address"},{"name":"_bridgedTokenBeacon","type":"address","internalType":"address"},{"name":"_contractsDeployedAlready","type":"bool","internalType":"bool"},{"name":"_wethToken","type":"address","internalType":"address"},{"name":"_baseTokenAssetId","type":"bytes32","internalType":"bytes32"}],"stateMutability":"nonpayable"},{"type":"function","name":"ASSET_ROUTER","inputs":[],"outputs":[{"name":"","type":"address","internalType":"contract IAssetRouterBase"}],"stateMutability":"view"},{"type":"function","name":"BASE_TOKEN_ASSET_ID","inputs":[],"outputs":[{"name":"","type":"bytes32","internalType":"bytes32"}],"stateMutability":"view"},{"type":"function","name":"L1_CHAIN_ID","inputs":[],"outputs":[{"name":"","type":"uint256","internalType":"uint256"}],"stateMutability":"view"},{"type":"function","name":"L2_LEGACY_SHARED_BRIDGE","inputs":[],"outputs":[{"name":"","type":"address","internalType":"contract IL2SharedBridgeLegacy"}],"stateMutability":"view"},{"type":"function","name":"L2_TOKEN_PROXY_BYTECODE_HASH","inputs":[],"outputs":[{"name":"","type":"bytes32","internalType":"bytes32"}],"stateMutability":"view"},{"type":"function","name":"WETH_TOKEN","inputs":[],"outputs":[{"name":"","type":"address","internalType":"address"}],"stateMutability":"view"},{"type":"function","name":"acceptOwnership","inputs":[],"outputs":[],"stateMutability":"nonpayable"},{"type":"function","name":"assetId","inputs":[{"name":"tokenAddress","type":"address","internalType":"address"}],"outputs":[{"name":"assetId","type":"bytes32","internalType":"bytes32"}],"stateMutability":"view"},{"type":"function","name":"bridgeBurn","inputs":[{"name":"_chainId","type":"uint256","internalType":"uint256"},{"name":"_l2MsgValue","type":"uint256","internalType":"uint256"},{"name":"_assetId","type":"bytes32","internalType":"bytes32"},{"name":"_originalCaller","type":"address","internalType":"address"},{"name":"_data","type":"bytes","internalType":"bytes"}],"outputs":[{"name":"_bridgeMintData","type":"bytes","internalType":"bytes"}],"stateMutability":"payable"},{"type":"function","name":"bridgeMint","inputs":[{"name":"_chainId","type":"uint256","internalType":"uint256"},{"name":"_assetId","type":"bytes32","internalType":"bytes32"},{"name":"_data","type":"bytes","internalType":"bytes"}],"outputs":[],"stateMutability":"payable"},{"type":"function","name":"bridgedTokenBeacon","inputs":[],"outputs":[{"name":"","type":"address","internalType":"contract IBeacon"}],"stateMutability":"view"},{"type":"function","name":"calculateCreate2TokenAddress","inputs":[{"name":"_tokenOriginChainId","type":"uint256","internalType":"uint256"},{"name":"_nonNativeToken","type":"address","internalType":"address"}],"outputs":[{"name":"","type":"address","internalType":"address"}],"stateMutability":"view"},{"type":"function","name":"ensureTokenIsRegistered","inputs":[{"name":"_nativeToken","type":"address","internalType":"address"}],"outputs":[{"name":"tokenAssetId","type":"bytes32","internalType":"bytes32"}],"stateMutability":"nonpayable"},{"type":"function","name":"getERC20Getters","inputs":[{"name":"_token","type":"address","internalType":"address"},{"name":"_originChainId","type":"uint256","internalType":"uint256"}],"outputs":[{"name":"","type":"bytes","internalType":"bytes"}],"stateMutability":"view"},{"type":"function","name":"l2TokenAddress","inputs":[{"name":"_l1Token","type":"address","internalType":"address"}],"outputs":[{"name":"expectedToken","type":"address","internalType":"address"}],"stateMutability":"view"},{"type":"function","name":"originChainId","inputs":[{"name":"assetId","type":"bytes32","internalType":"bytes32"}],"outputs":[{"name":"originChainId","type":"uint256","internalType":"uint256"}],"stateMutability":"view"},{"type":"function","name":"owner","inputs":[],"outputs":[{"name":"","type":"address","internalType":"address"}],"stateMutability":"view"},{"type":"function","name":"pause","inputs":[],"outputs":[],"stateMutability":"nonpayable"},{"type":"function","name":"paused","inputs":[],"outputs":[{"name":"","type":"bool","internalType":"bool"}],"stateMutability":"view"},{"type":"function","name":"pendingOwner","inputs":[],"outputs":[{"name":"","type":"address","internalType":"address"}],"stateMutability":"view"},{"type":"function","name":"registerToken","inputs":[{"name":"_nativeToken","type":"address","internalType":"address"}],"outputs":[],"stateMutability":"nonpayable"},{"type":"function","name":"renounceOwnership","inputs":[],"outputs":[],"stateMutability":"nonpayable"},{"type":"function","name":"setLegacyTokenAssetId","inputs":[{"name":"_l2TokenAddress","type":"address","internalType":"address"}],"outputs":[],"stateMutability":"nonpayable"},{"type":"function","name":"tokenAddress","inputs":[{"name":"assetId","type":"bytes32","internalType":"bytes32"}],"outputs":[{"name":"tokenAddress","type":"address","internalType":"address"}],"stateMutability":"view"},{"type":"function","name":"tokenDataOriginChainId","inputs":[{"name":"_erc20Data","type":"bytes","internalType":"bytes"}],"outputs":[{"name":"tokenOriginChainId","type":"uint256","internalType":"uint256"}],"stateMutability":"view"},{"type":"function","name":"transferOwnership","inputs":[{"name":"newOwner","type":"address","internalType":"address"}],"outputs":[],"stateMutability":"nonpayable"},{"type":"function","name":"tryRegisterTokenFromBurnData","inputs":[{"name":"_burnData","type":"bytes","internalType":"bytes"},{"name":"_expectedAssetId","type":"bytes32","internalType":"bytes32"}],"outputs":[],"stateMutability":"nonpayable"},{"type":"function","name":"unpause","inputs":[],"outputs":[],"stateMutability":"nonpayable"},{"type":"event","name":"BridgeBurn","inputs":[{"name":"chainId","type":"uint256","indexed":true,"internalType":"uint256"},{"name":"assetId","type":"bytes32","indexed":true,"internalType":"bytes32"},{"name":"sender","type":"address","indexed":true,"internalType":"address"},{"name":"receiver","type":"address","indexed":false,"internalType":"address"},{"name":"amount","type":"uint256","indexed":false,"internalType":"uint256"}],"anonymous":false},{"type":"event","name":"BridgeMint","inputs":[{"name":"chainId","type":"uint256","indexed":true,"internalType":"uint256"},{"name":"assetId","type":"bytes32","indexed":true,"internalType":"bytes32"},{"name":"receiver","type":"address","indexed":false,"internalType":"address"},{"name":"amount","type":"uint256","indexed":false,"internalType":"uint256"}],"anonymous":false},{"type":"event","name":"BridgedTokenBeaconUpdated","inputs":[{"name":"bridgedTokenBeacon","type":"address","indexed":false,"internalType":"address"},{"name":"bridgedTokenProxyBytecodeHash","type":"bytes32","indexed":false,"internalType":"bytes32"}],"anonymous":false},{"type":"event","name":"FinalizeDeposit","inputs":[{"name":"l1Sender","type":"address","indexed":true,"internalType":"address"},{"name":"l2Receiver","type":"address","indexed":true,"internalType":"address"},{"name":"l2Token","type":"address","indexed":true,"internalType":"address"},{"name":"amount","type":"uint256","indexed":false,"internalType":"uint256"}],"anonymous":false},{"type":"event","name":"Initialized","inputs":[{"name":"version","type":"uint8","indexed":false,"internalType":"uint8"}],"anonymous":false},{"type":"event","name":"L2TokenBeaconUpdated","inputs":[{"name":"l2TokenBeacon","type":"address","indexed":true,"internalType":"address"},{"name":"l2TokenProxyBytecodeHash","type":"bytes32","indexed":true,"internalType":"bytes32"}],"anonymous":false},{"type":"event","name":"OwnershipTransferStarted","inputs":[{"name":"previousOwner","type":"address","indexed":true,"internalType":"address"},{"name":"newOwner","type":"address","indexed":true,"internalType":"address"}],"anonymous":false},{"type":"event","name":"OwnershipTransferred","inputs":[{"name":"previousOwner","type":"address","indexed":true,"internalType":"address"},{"name":"newOwner","type":"address","indexed":true,"internalType":"address"}],"anonymous":false},{"type":"event","name":"Paused","inputs":[{"name":"account","type":"address","indexed":false,"internalType":"address"}],"anonymous":false},{"type":"event","name":"Unpaused","inputs":[{"name":"account","type":"address","indexed":false,"internalType":"address"}],"anonymous":false},{"type":"event","name":"WithdrawalInitiated","inputs":[{"name":"l2Sender","type":"address","indexed":true,"internalType":"address"},{"name":"l1Receiver","type":"address","indexed":true,"internalType":"address"},{"name":"l2Token","type":"address","indexed":true,"internalType":"address"},{"name":"amount","type":"uint256","indexed":false,"internalType":"uint256"}],"anonymous":false},{"type":"error","name":"AddressMismatch","inputs":[{"name":"expected","type":"address","internalType":"address"},{"name":"supplied","type":"address","internalType":"address"}]},{"type":"error","name":"AmountMustBeGreaterThanZero","inputs":[]},{"type":"error","name":"AssetIdAlreadyRegistered","inputs":[]},{"type":"error","name":"AssetIdMismatch","inputs":[{"name":"expected","type":"bytes32","internalType":"bytes32"},{"name":"supplied","type":"bytes32","internalType":"bytes32"}]},{"type":"error","name":"AssetIdNotSupported","inputs":[{"name":"assetId","type":"bytes32","internalType":"bytes32"}]},{"type":"error","name":"BurningNativeWETHNotSupported","inputs":[]},{"type":"error","name":"DeployFailed","inputs":[]},{"type":"error","name":"DeployingBridgedTokenForNativeToken","inputs":[]},{"type":"error","name":"EmptyAddress","inputs":[]},{"type":"error","name":"EmptyBytes32","inputs":[]},{"type":"error","name":"EmptyDeposit","inputs":[]},{"type":"error","name":"EmptyToken","inputs":[]},{"type":"error","name":"InvalidNTVBurnData","inputs":[]},{"type":"error","name":"NoLegacySharedBridge","inputs":[]},{"type":"error","name":"NonEmptyMsgValue","inputs":[]},{"type":"error","name":"TokenIsLegacy","inputs":[]},{"type":"error","name":"TokenNotLegacy","inputs":[]},{"type":"error","name":"TokenNotSupported","inputs":[{"name":"token","type":"address","internalType":"address"}]},{"type":"error","name":"TokensWithFeesNotSupported","inputs":[]},{"type":"error","name":"U32CastOverflow","inputs":[]},{"type":"error","name":"Unauthorized","inputs":[{"name":"caller","type":"address","internalType":"address"}]},{"type":"error","name":"UnsupportedEncodingVersion","inputs":[]},{"type":"error","name":"ValueMismatch","inputs":[{"name":"expected","type":"uint256","internalType":"uint256"},{"name":"actual","type":"uint256","internalType":"uint256"}]},{"type":"error","name":"ZeroAddress","inputs":[]}],"bytecode":{"object":"0x610140604052348015610010575f5ffd5b50604051617e87380380617e8783398101604081905261002f916103aa565b8161003e620100006003610430565b828a61004861024c565b60e0526001600160a01b0391821660a05291811660805260c0919091528516610100528561008957604051631c25715b60e01b815260040160405180910390fd5b6001600160a01b0387166100b057604051637138356f60e01b815260040160405180910390fd5b6101208690526100bf87610308565b821561010c576001600160a01b0384166100ec57604051637138356f60e01b815260040160405180910390fd5b60c980546001600160a01b0319166001600160a01b03861617905561023f565b5f5f5f1b60405161011c90610375565b8190604051809103905ff5905080158015610139573d5f5f3e3d5ffd5b5090505f5f5f1b8260405161014d90610382565b6001600160a01b0390911681526020018190604051809103905ff590508015801561017a573d5f5f3e3d5ffd5b5090506001600160a01b03811663f2fde38b61019e6033546001600160a01b031690565b6040516001600160e01b031960e084901b1681526001600160a01b0390911660048201526024015f604051808303815f87803b1580156101dc575f5ffd5b505af11580156101ee573d5f5f3e3d5ffd5b505060c980546001600160a01b0319166001600160a01b0385169081179091556040518b93509091507f01fd5911e6d04aec6b21f19752502ad7f3e9876279643c8fa7a4d30c88a29fb2905f90a350505b5050505050505050610461565b5f54610100900460ff16156102b75760405162461bcd60e51b815260206004820152602760248201527f496e697469616c697a61626c653a20636f6e747261637420697320696e697469604482015266616c697a696e6760c81b606482015260840160405180910390fd5b5f5460ff90811614610306575f805460ff191660ff9081179091556040519081527f7f26b83ff96e1f2b6a682f133852f6798a09c465da95921460cefb38474024989060200160405180910390a15b565b606580546001600160a01b031916905561032181610324565b50565b603380546001600160a01b038381166001600160a01b0319831681179093556040519116919082907f8be0079c531659141344cd1fd0a4f28419497f9722a3daafe3b4186f6b6457e0905f90a35050565b61323f8061466c83390190565b6105dc806178ab83390190565b80516001600160a01b03811681146103a5575f5ffd5b919050565b5f5f5f5f5f5f5f5f610100898b0312156103c2575f5ffd5b885197506103d260208a0161038f565b60408a015190975095506103e860608a0161038f565b94506103f660808a0161038f565b935060a0890151801515811461040a575f5ffd5b925061041860c08a0161038f565b60e09990990151979a96995094979396929591945050565b6001600160a01b03818116838216019081111561045b57634e487b7160e01b5f52601160045260245ffd5b92915050565b60805160a05160c05160e05161010051610120516140e46105885f395f818161023601528181610ee2015261324d01525f818161048c015281816109b801528181610a6a01528181610d3301528181610ddf0152818161112a015281816111af015281816115f50152818161261c0152818161269b0152818161319f01526133a801525f81816102690152818161060e01528181610d7301528181610fe9015281816117060152818161180d015281816122b2015281816123f901528181612ca101528181612db901526131dd01525f818161051101528181611c820152818161256e01526125bb01525f81816104de015281816106d601528181610b870152612ad301525f81816102af01528181611bfd015281816123a3015261245e01526140e45ff3fe6080604052600436106101af575f3560e01c806379ba5097116100e7578063c6a70bbb11610087578063f2d4424611610062578063f2d442461461055d578063f2fde38b14610589578063f5f15168146105a8578063fd3f60df146105c7575f5ffd5b8063c6a70bbb146104cd578063cb944dec14610500578063e30c397814610533575f5ffd5b806397bb3ce9116100c257806397bb3ce91461041b578063a7236d161461045c578063c438a9f21461047b578063c487412c146104ae575f5ffd5b806379ba5097146103c95780638456cb59146103dd5780638da5cb5b146103f1575f5ffd5b80633f4ba83a116101525780635c975abb1161012d5780635c975abb146103485780635f3455b51461036a578063699b0fb914610395578063715018a6146103b5575f5ffd5b80633f4ba83a146102f657806349b408531461030a5780634cd40a0214610329575f5ffd5b80632149ed741161018d5780632149ed74146102255780632f90b1841461025857806336ba03551461028b57806337d277d41461029e575f5ffd5b806307a6d4bc146101b357806309824a80146101e557806319a2a28514610206575b5f5ffd5b3480156101be575f5ffd5b506101d26101cd3660046138a0565b6105f2565b6040519081526020015b60405180910390f35b3480156101f0575f5ffd5b506102046101ff366004613900565b610634565b005b348015610211575f5ffd5b506101d2610220366004613900565b610641565b348015610230575f5ffd5b506101d27f000000000000000000000000000000000000000000000000000000000000000081565b348015610263575f5ffd5b506101d27f000000000000000000000000000000000000000000000000000000000000000081565b61020461029936600461391b565b610685565b3480156102a9575f5ffd5b506102d17f000000000000000000000000000000000000000000000000000000000000000081565b60405173ffffffffffffffffffffffffffffffffffffffff90911681526020016101dc565b348015610301575f5ffd5b506102046107d7565b348015610315575f5ffd5b5061020461032436600461396a565b6107e9565b348015610334575f5ffd5b50610204610343366004613900565b61093f565b348015610353575f5ffd5b5060975460ff1660405190151581526020016101dc565b348015610375575f5ffd5b506101d26103843660046139b2565b60ca6020525f908152604090205481565b6103a86103a33660046139c9565b610b34565b6040516101dc9190613a83565b3480156103c0575f5ffd5b50610204610c47565b3480156103d4575f5ffd5b50610204610c58565b3480156103e8575f5ffd5b50610204610d0d565b3480156103fc575f5ffd5b5060335473ffffffffffffffffffffffffffffffffffffffff166102d1565b348015610426575f5ffd5b506102d16104353660046139b2565b60cb6020525f908152604090205473ffffffffffffffffffffffffffffffffffffffff1681565b348015610467575f5ffd5b506103a8610476366004613a95565b610d1d565b348015610486575f5ffd5b506102d17f000000000000000000000000000000000000000000000000000000000000000081565b3480156104b9575f5ffd5b506102d16104c8366004613abf565b610d30565b3480156104d8575f5ffd5b506102d17f000000000000000000000000000000000000000000000000000000000000000081565b34801561050b575f5ffd5b506101d27f000000000000000000000000000000000000000000000000000000000000000081565b34801561053e575f5ffd5b5060655473ffffffffffffffffffffffffffffffffffffffff166102d1565b348015610568575f5ffd5b5060c9546102d19073ffffffffffffffffffffffffffffffffffffffff1681565b348015610594575f5ffd5b506102046105a3366004613900565b610f32565b3480156105b3575f5ffd5b506102d16105c2366004613900565b610fe2565b3480156105d2575f5ffd5b506101d26105e1366004613900565b60cc6020525f908152604090205481565b5f6105fd8383611039565b5091925050505f81900361062e57507f00000000000000000000000000000000000000000000000000000000000000005b92915050565b61063d81611127565b5050565b73ffffffffffffffffffffffffffffffffffffffff81165f90815260cc60205260408120548061067b5761067483611127565b915061067f565b8091505b50919050565b3480156106be576040517f536ec84b00000000000000000000000000000000000000000000000000000000815260040160405180910390fd5b3373ffffffffffffffffffffffffffffffffffffffff7f00000000000000000000000000000000000000000000000000000000000000001614610734576040517f8e4a23d60000000000000000000000000000000000000000000000000000000081523360048201526024015b60405180910390fd5b61073c611273565b5f84815260ca602052604081205481904690036107695761075f878787876112e0565b909250905061077b565b61077587878787611369565b90925090505b6040805173ffffffffffffffffffffffffffffffffffffffff8416815260208101839052879189917fbc0f4055a7869d8ecad34b33382a0bc181c5811565fec42f335505be5fd661d2910160405180910390a350505050505050565b6107df611495565b6107e7611516565b565b5f61082884848080601f0160208091040260200160405190810160405280939291908181526020018383808284375f9201919091525061159392505050565b92505073ffffffffffffffffffffffffffffffffffffffff8216905061087a576040517fd92e233d00000000000000000000000000000000000000000000000000000000815260040160405180910390fd5b73ffffffffffffffffffffffffffffffffffffffff81165f90815260cc602052604090205480156108d7576040517ffe919e2800000000000000000000000000000000000000000000000000000000815260040160405180910390fd5b5f6108e1836115f2565b9050806108f4576108f183611127565b90505b838114610937576040517f1294e9e1000000000000000000000000000000000000000000000000000000008152600481018590526024810182905260440161072b565b505050505050565b73ffffffffffffffffffffffffffffffffffffffff81165f90815260cc6020526040902054801580159061097f57505f81815260ca602052604090205415155b156109b6576040517ffe919e2800000000000000000000000000000000000000000000000000000000815260040160405180910390fd5b7f000000000000000000000000000000000000000000000000000000000000000073ffffffffffffffffffffffffffffffffffffffff16610a23576040517fb20b58ce00000000000000000000000000000000000000000000000000000000815260040160405180910390fd5b6040517ff54266a200000000000000000000000000000000000000000000000000000000815273ffffffffffffffffffffffffffffffffffffffff83811660048301525f917f00000000000000000000000000000000000000000000000000000000000000009091169063f54266a290602401602060405180830381865afa158015610ab1573d5f5f3e3d5ffd5b505050506040513d601f19601f82011682018060405250810190610ad59190613aed565b905073ffffffffffffffffffffffffffffffffffffffff8116610b24576040517f1850b46b00000000000000000000000000000000000000000000000000000000815260040160405180910390fd5b610b2e8382611700565b50505050565b6060858015610b6f576040517f536ec84b00000000000000000000000000000000000000000000000000000000815260040160405180910390fd5b3373ffffffffffffffffffffffffffffffffffffffff7f00000000000000000000000000000000000000000000000000000000000000001614610be0576040517f8e4a23d600000000000000000000000000000000000000000000000000000000815233600482015260240161072b565b610be8611273565b5f5f5f610bf687878b611834565b5f8c815260ca602052604090205492955090935091504614610c2757610c208b8a8a86868661197c565b9450610c39565b610c368b8a8a5f878787611bf9565b94505b505050509695505050505050565b610c4f611495565b6107e75f611e59565b606554339073ffffffffffffffffffffffffffffffffffffffff168114610d01576040517f08c379a000000000000000000000000000000000000000000000000000000000815260206004820152602960248201527f4f776e61626c6532537465703a2063616c6c6572206973206e6f74207468652060448201527f6e6577206f776e65720000000000000000000000000000000000000000000000606482015260840161072b565b610d0a81611e59565b50565b610d15611495565b6107e7611e8a565b6060610d298383611ee5565b9392505050565b5f7f000000000000000000000000000000000000000000000000000000000000000073ffffffffffffffffffffffffffffffffffffffff1615801590610d9557507f000000000000000000000000000000000000000000000000000000000000000083145b15610e4f576040517ff5f1516800000000000000000000000000000000000000000000000000000000815273ffffffffffffffffffffffffffffffffffffffff83811660048301527f0000000000000000000000000000000000000000000000000000000000000000169063f5f1516890602401602060405180830381865afa158015610e24573d5f5f3e3d5ffd5b505050506040513d601f19601f82011682018060405250810190610e489190613aed565b905061062e565b60c9546040805173ffffffffffffffffffffffffffffffffffffffff9092166020830152818101525f60608201819052906080016040516020818303038152906040528051906020012090505f610ea685856122af565b604080517f2020dba91b30cc0006188af794c2fb30dd8520db7e2c088b7fc7c103c00ca4946020808301919091523082840152606082018490527f0000000000000000000000000000000000000000000000000000000000000000608083015260a08083018790528351808403909101815260c090920190925280519101209091505b9250505061062e565b610f3a611495565b6065805473ffffffffffffffffffffffffffffffffffffffff83167fffffffffffffffffffffffff00000000000000000000000000000000000000009091168117909155610f9d60335473ffffffffffffffffffffffffffffffffffffffff1690565b73ffffffffffffffffffffffffffffffffffffffff167f38d16b8cac22d99fc7c124b9cd0de2d3fa1faef420bfe791d8c362d765e2270060405160405180910390a350565b5f5f61100e7f000000000000000000000000000000000000000000000000000000000000000084612340565b5f90815260cb602052604090205473ffffffffffffffffffffffffffffffffffffffff169392505050565b5f60608060605f86865f81811061105257611052613b08565b909101357fff000000000000000000000000000000000000000000000000000000000000001691508190506110995761108d86880188613c48565b9195509350915061111c565b7fff00000000000000000000000000000000000000000000000000000000000000818116016110ea576110cf866001818a613cd6565b8101906110dc9190613cfd565b94509450945094505061111e565b6040517f084a144900000000000000000000000000000000000000000000000000000000815260040160405180910390fd5b505b92959194509250565b5f7f000000000000000000000000000000000000000000000000000000000000000073ffffffffffffffffffffffffffffffffffffffff161580159061123357506040517ff54266a200000000000000000000000000000000000000000000000000000000815273ffffffffffffffffffffffffffffffffffffffff83811660048301525f917f00000000000000000000000000000000000000000000000000000000000000009091169063f54266a290602401602060405180830381865afa1580156111f6573d5f5f3e3d5ffd5b505050506040513d601f19601f8201168201806040525081019061121a9190613aed565b73ffffffffffffffffffffffffffffffffffffffff1614155b1561126a576040517fa51fa55800000000000000000000000000000000000000000000000000000000815260040160405180910390fd5b61062e826123a0565b60975460ff16156107e7576040517f08c379a000000000000000000000000000000000000000000000000000000000815260206004820152601060248201527f5061757361626c653a2070617573656400000000000000000000000000000000604482015260640161072b565b5f83815260cb60209081526040808320548151601f8601849004840281018401909252848252839273ffffffffffffffffffffffffffffffffffffffff909116916113449187908790819084018382808284375f9201919091525061254092505050565b50919550909350611353915050565b61135f8684838561256c565b5094509492505050565b5f83815260cb60209081526040808320548151601f8601849004840281018401909252848252839273ffffffffffffffffffffffffffffffffffffffff9091169160609184916113d29189908990819084018382808284375f9201919091525061254092505050565b929850965090935091505073ffffffffffffffffffffffffffffffffffffffff831661140657611403888284612608565b92505b6040517f8c2a993e00000000000000000000000000000000000000000000000000000000815273ffffffffffffffffffffffffffffffffffffffff868116600483015260248201869052841690638c2a993e906044015f604051808303815f87803b158015611473575f5ffd5b505af1158015611485573d5f5f3e3d5ffd5b5050505050505094509492505050565b60335473ffffffffffffffffffffffffffffffffffffffff1633146107e7576040517f08c379a000000000000000000000000000000000000000000000000000000000815260206004820181905260248201527f4f776e61626c653a2063616c6c6572206973206e6f7420746865206f776e6572604482015260640161072b565b61151e61274a565b609780547fffffffffffffffffffffffffffffffffffffffffffffffffffffffffffffff001690557f5db9ee0a495bf2e6ff9c91a7834c1ba4fdd244a5e8aa4e537bd38aeae4b073aa335b60405173ffffffffffffffffffffffffffffffffffffffff909116815260200160405180910390a1565b5f5f5f83516060146115d1576040517fde4c0b9600000000000000000000000000000000000000000000000000000000815260040160405180910390fd5b838060200190518101906115e59190613d95565b9196909550909350915050565b5f7f000000000000000000000000000000000000000000000000000000000000000073ffffffffffffffffffffffffffffffffffffffff811661163757505f92915050565b6040517ff54266a200000000000000000000000000000000000000000000000000000000815273ffffffffffffffffffffffffffffffffffffffff84811660048301525f919083169063f54266a290602401602060405180830381865afa1580156116a4573d5f5f3e3d5ffd5b505050506040513d601f19601f820116820180604052508101906116c89190613aed565b905073ffffffffffffffffffffffffffffffffffffffff81166116ee57505f9392505050565b6116f88482611700565b949350505050565b5f61172b7f000000000000000000000000000000000000000000000000000000000000000083612340565b905061173b620100006003613e03565b73ffffffffffffffffffffffffffffffffffffffff16632ed342aa826040518263ffffffff1660e01b815260040161177591815260200190565b5f604051808303815f87803b15801561178c575f5ffd5b505af115801561179e573d5f5f3e3d5ffd5b5050505f82815260cb60209081526040808320805473ffffffffffffffffffffffffffffffffffffffff9098167fffffffffffffffffffffffff00000000000000000000000000000000000000009098168817905595825260cc815285822084905583825260ca9052939093207f0000000000000000000000000000000000000000000000000000000000000000905592915050565b5f5f5f61187586868080601f0160208091040260200160405190810160405280939291908181526020018383808284375f9201919091525061159392505050565b9194509250905073ffffffffffffffffffffffffffffffffffffffff81166118bd57505f83815260cb602052604090205473ffffffffffffffffffffffffffffffffffffffff165b73ffffffffffffffffffffffffffffffffffffffff811661190a576040517fd92e233d00000000000000000000000000000000000000000000000000000000815260040160405180910390fd5b73ffffffffffffffffffffffffffffffffffffffff81165f90815260cc6020526040902054848114611972576040517f1294e9e1000000000000000000000000000000000000000000000000000000008152600481018290526024810186905260440161072b565b5093509350939050565b60603480156119b7576040517f536ec84b00000000000000000000000000000000000000000000000000000000815260040160405180910390fd5b845f036119f0576040517f5e85ae7300000000000000000000000000000000000000000000000000000000815260040160405180910390fd5b6040517f74f4f54700000000000000000000000000000000000000000000000000000000815273ffffffffffffffffffffffffffffffffffffffff8781166004830152602482018790528416906374f4f547906044015f604051808303815f87803b158015611a5d575f5ffd5b505af1158015611a6f573d5f5f3e3d5ffd5b505050506040805173ffffffffffffffffffffffffffffffffffffffff86811682526020820188905288169189918b917f1cd02155ad1064c60598a8bd0e4e795d7e7d0a0f3c38aad04d261f1297fb2545910160405180910390a45f87815260ca6020526040812054606091819003611b14576040517fd92e233d00000000000000000000000000000000000000000000000000000000815260040160405180910390fd5b611b1e8582610d1d565b9150505f8473ffffffffffffffffffffffffffffffffffffffff166313096a416040518163ffffffff1660e01b8152600401602060405180830381865afa158015611b6b573d5f5f3e3d5ffd5b505050506040513d601f19601f82011682018060405250810190611b8f9190613aed565b905073ffffffffffffffffffffffffffffffffffffffff8116611bde576040517fd92e233d00000000000000000000000000000000000000000000000000000000815260040160405180910390fd5b611beb8887838a866127b6565b9a9950505050505050505050565b60607f000000000000000000000000000000000000000000000000000000000000000073ffffffffffffffffffffffffffffffffffffffff168273ffffffffffffffffffffffffffffffffffffffff1603611c80576040517faa5f618000000000000000000000000000000000000000000000000000000000815260040160405180910390fd5b7f00000000000000000000000000000000000000000000000000000000000000008703611cee57348414611ce9576040517f626ade300000000000000000000000000000000000000000000000000000000081526004810185905234602482015260440161072b565b611d74565b3415611d26576040517f536ec84b00000000000000000000000000000000000000000000000000000000815260040160405180910390fd5b84611d74575f611d378784876127ec565b9050808514611d72576040517f23830e2800000000000000000000000000000000000000000000000000000000815260040160405180910390fd5b505b835f03611dad576040517f95b66fe900000000000000000000000000000000000000000000000000000000815260040160405180910390fd5b5f87815260ca6020526040902054606090611dc9908490610d1d565b9050611dd887858588856127b6565b91508673ffffffffffffffffffffffffffffffffffffffff16888a7f1cd02155ad1064c60598a8bd0e4e795d7e7d0a0f3c38aad04d261f1297fb25458789604051611e4592919073ffffffffffffffffffffffffffffffffffffffff929092168252602082015260400190565b60405180910390a450979650505050505050565b606580547fffffffffffffffffffffffff0000000000000000000000000000000000000000169055610d0a8161293a565b611e92611273565b609780547fffffffffffffffffffffffffffffffffffffffffffffffffffffffffffffff001660011790557f62e78cea01bee320cd4e420270b5ea74000d11b0c9f74754ebdbfc544b05a2586115693390565b60608080807fffffffffffffffffffffffffffffffffffffffffffffffffffffffffffffffff73ffffffffffffffffffffffffffffffffffffffff87160161201e57604051602001611f689060208082526005908201527f4574686572000000000000000000000000000000000000000000000000000000604082015260600190565b604080517fffffffffffffffffffffffffffffffffffffffffffffffffffffffffffffffe08184030181528282526020838101526003918301919091527f455448000000000000000000000000000000000000000000000000000000000060608301529350608001604080517fffffffffffffffffffffffffffffffffffffffffffffffffffffffffffffffe0818403018152828252601260208401529350016040516020818303038152906040529050612299565b60408051600481526024810182526020810180517bffffffffffffffffffffffffffffffffffffffffffffffffffffffff167f06fdde030000000000000000000000000000000000000000000000000000000017905290515f9173ffffffffffffffffffffffffffffffffffffffff89169161209a9190613e46565b5f60405180830381855afa9150503d805f81146120d2576040519150601f19603f3d011682016040523d82523d5f602084013e6120d7565b606091505b5094509050806120f35760405180602001604052805f81525093505b60408051600481526024810182526020810180517bffffffffffffffffffffffffffffffffffffffffffffffffffffffff167f95d89b4100000000000000000000000000000000000000000000000000000000179052905173ffffffffffffffffffffffffffffffffffffffff89169161216c91613e46565b5f60405180830381855afa9150503d805f81146121a4576040519150601f19603f3d011682016040523d82523d5f602084013e6121a9565b606091505b5093509050806121c55760405180602001604052805f81525092505b60408051600481526024810182526020810180517bffffffffffffffffffffffffffffffffffffffffffffffffffffffff167f313ce56700000000000000000000000000000000000000000000000000000000179052905173ffffffffffffffffffffffffffffffffffffffff89169161223e91613e46565b5f60405180830381855afa9150503d805f8114612276576040519150601f19603f3d011682016040523d82523d5f602084013e61227b565b606091505b5092509050806122975760405180602001604052805f81525091505b505b6122a5858484846129b0565b9695505050505050565b5f7f0000000000000000000000000000000000000000000000000000000000000000831461232457828260405160200161230992919091825273ffffffffffffffffffffffffffffffffffffffff16602082015260400190565b60405160208183030381529060405280519060200120610d29565b5073ffffffffffffffffffffffffffffffffffffffff16919050565b5f82612350620100006004613e03565b60408051602081019390935273ffffffffffffffffffffffffffffffffffffffff918216908301528316606082015260800160405160208183030381529060405280519060200120905092915050565b5f7f000000000000000000000000000000000000000000000000000000000000000073ffffffffffffffffffffffffffffffffffffffff168273ffffffffffffffffffffffffffffffffffffffff1614801561241c57507f00000000000000000000000000000000000000000000000000000000000000004614155b1561248b576040517f06439c6b00000000000000000000000000000000000000000000000000000000815273ffffffffffffffffffffffffffffffffffffffff7f000000000000000000000000000000000000000000000000000000000000000016600482015260240161072b565b8173ffffffffffffffffffffffffffffffffffffffff163b5f036124db576040517f066f53b100000000000000000000000000000000000000000000000000000000815260040160405180910390fd5b73ffffffffffffffffffffffffffffffffffffffff82165f90815260cc602052604090205415612537576040517ffe919e2800000000000000000000000000000000000000000000000000000000815260040160405180910390fd5b61062e82612a23565b5f5f5f5f60608580602001905181019061255a9190613e51565b939a9299509097509550909350915050565b7f000000000000000000000000000000000000000000000000000000000000000084036125e7576040517f04a0b7e90000000000000000000000000000000000000000000000000000000081527f0000000000000000000000000000000000000000000000000000000000000000600482015260240161072b565b610b2e73ffffffffffffffffffffffffffffffffffffffff83168483612b2f565b5f5f6126148484612c08565b90925090505f7f000000000000000000000000000000000000000000000000000000000000000073ffffffffffffffffffffffffffffffffffffffff1615612707576040517ff54266a200000000000000000000000000000000000000000000000000000000815273ffffffffffffffffffffffffffffffffffffffff84811660048301527f0000000000000000000000000000000000000000000000000000000000000000169063f54266a290602401602060405180830381865afa1580156126e0573d5f5f3e3d5ffd5b505050506040513d601f19601f820116820180604052508101906127049190613aed565b90505b73ffffffffffffffffffffffffffffffffffffffff8116156127345761272f86868584612c9c565b612741565b6127418287878787612ddd565b50509392505050565b60975460ff166107e7576040517f08c379a000000000000000000000000000000000000000000000000000000000815260206004820152601460248201527f5061757361626c653a206e6f7420706175736564000000000000000000000000604482015260640161072b565b606085858585856040516020016127d1959493929190613f09565b60405160208183030381529060405290505b95945050505050565b6040517f70a082310000000000000000000000000000000000000000000000000000000081523060048201525f90819073ffffffffffffffffffffffffffffffffffffffff8516906370a0823190602401602060405180830381865afa158015612858573d5f5f3e3d5ffd5b505050506040513d601f19601f8201168201806040525081019061287c9190613f75565b90506128a073ffffffffffffffffffffffffffffffffffffffff8516863086612ee0565b6040517f70a082310000000000000000000000000000000000000000000000000000000081523060048201525f9073ffffffffffffffffffffffffffffffffffffffff8616906370a0823190602401602060405180830381865afa15801561290a573d5f5f3e3d5ffd5b505050506040513d601f19601f8201168201806040525081019061292e9190613f75565b90506122a58282613f8c565b6033805473ffffffffffffffffffffffffffffffffffffffff8381167fffffffffffffffffffffffff0000000000000000000000000000000000000000831681179093556040519116919082907f8be0079c531659141344cd1fd0a4f28419497f9722a3daafe3b4186f6b6457e0905f90a35050565b6060600160f81b858585856040516020016129ce9493929190613f9f565b604080517fffffffffffffffffffffffffffffffffffffffffffffffffffffffffffffffe081840301815290829052612a0a9291602001613fdd565b6040516020818303038152906040529050949350505050565b5f612a2e4683612340565b5f81815260cb6020908152604080832080547fffffffffffffffffffffffff00000000000000000000000000000000000000001673ffffffffffffffffffffffffffffffffffffffff88811691821790925580855260cc845282852086905585855260ca90935292819020469055517f548a5a3300000000000000000000000000000000000000000000000000000000815260048101919091523060248201529192507f0000000000000000000000000000000000000000000000000000000000000000169063548a5a33906044015f604051808303815f87803b158015612b14575f5ffd5b505af1158015612b26573d5f5f3e3d5ffd5b50505050919050565b60405173ffffffffffffffffffffffffffffffffffffffff8316602482015260448101829052612c039084907fa9059cbb00000000000000000000000000000000000000000000000000000000906064015b604080517fffffffffffffffffffffffffffffffffffffffffffffffffffffffffffffffe08184030181529190526020810180517bffffffffffffffffffffffffffffffffffffffffffffffffffffffff167fffffffff0000000000000000000000000000000000000000000000000000000090931692909217909152612f3e565b505050565b6040517f07a6d4bc0000000000000000000000000000000000000000000000000000000081525f90819030906307a6d4bc90612c48908690600401613a83565b602060405180830381865afa158015612c63573d5f5f3e3d5ffd5b505050506040513d601f19601f82011682018060405250810190612c879190613f75565b9050612c938185610d30565b91509250929050565b612cc77f0000000000000000000000000000000000000000000000000000000000000000858561304b565b8273ffffffffffffffffffffffffffffffffffffffff168173ffffffffffffffffffffffffffffffffffffffff1614612d4c576040517f1f73225f00000000000000000000000000000000000000000000000000000000815273ffffffffffffffffffffffffffffffffffffffff80851660048301528216602482015260440161072b565b505f83815260cb60209081526040808320805473ffffffffffffffffffffffffffffffffffffffff9095167fffffffffffffffffffffffff00000000000000000000000000000000000000009095168517905592825260cc815282822085905593815260ca9093529091207f0000000000000000000000000000000000000000000000000000000000000000905550565b612de885858561304b565b5f612df58686868661309b565b90508173ffffffffffffffffffffffffffffffffffffffff168173ffffffffffffffffffffffffffffffffffffffff1614612e7c576040517f1f73225f00000000000000000000000000000000000000000000000000000000815273ffffffffffffffffffffffffffffffffffffffff80841660048301528216602482015260440161072b565b505f84815260cb60209081526040808320805473ffffffffffffffffffffffffffffffffffffffff9095167fffffffffffffffffffffffff00000000000000000000000000000000000000009095168517905592825260cc90522092909255505050565b60405173ffffffffffffffffffffffffffffffffffffffff80851660248301528316604482015260648101829052610b2e9085907f23b872dd0000000000000000000000000000000000000000000000000000000090608401612b81565b5f612f9f826040518060400160405280602081526020017f5361666545524332303a206c6f772d6c6576656c2063616c6c206661696c65648152508573ffffffffffffffffffffffffffffffffffffffff1661318e9092919063ffffffff16565b905080515f1480612fbf575080806020019051810190612fbf9190614010565b612c03576040517f08c379a000000000000000000000000000000000000000000000000000000000815260206004820152602a60248201527f5361666545524332303a204552433230206f7065726174696f6e20646964206e60448201527f6f74207375636365656400000000000000000000000000000000000000000000606482015260840161072b565b5f6130568483612340565b9050808314610b2e576040517f1294e9e1000000000000000000000000000000000000000000000000000000008152600481018290526024810184905260440161072b565b5f4685036130d5576040517f138ee1a300000000000000000000000000000000000000000000000000000000815260040160405180910390fd5b5f6130e086856122af565b90505f6130ed828861319c565b6040517f9a6ab87000000000000000000000000000000000000000000000000000000000815290915073ffffffffffffffffffffffffffffffffffffffff821690639a6ab870906131469089908990899060040161402f565b5f604051808303815f87803b15801561315d575f5ffd5b505af115801561316f573d5f5f3e3d5ffd5b5050505f87815260ca6020526040902088905550915050949350505050565b60606116f884845f85613427565b5f7f000000000000000000000000000000000000000000000000000000000000000073ffffffffffffffffffffffffffffffffffffffff16158061320057507f00000000000000000000000000000000000000000000000000000000000000008214155b15613377575f5f6133285a6132186180006006613e03565b60c9546040805173ffffffffffffffffffffffffffffffffffffffff9092166020830152818101525f606082018190529089907f000000000000000000000000000000000000000000000000000000000000000090608001604080517fffffffffffffffffffffffffffffffffffffffffffffffffffffffffffffffe0818403018152908290526132ad939291602401614063565b604080517fffffffffffffffffffffffffffffffffffffffffffffffffffffffffffffffe08184030181529190526020810180517bffffffffffffffffffffffffffffffffffffffffffffffffffffffff167f3cda33510000000000000000000000000000000000000000000000000000000017905261353c565b9150915081613363576040517fb4f5411100000000000000000000000000000000000000000000000000000000815260040160405180910390fd5b80806020019051810190610f299190613aed565b6040517f07168226000000000000000000000000000000000000000000000000000000008152600481018490525f907f000000000000000000000000000000000000000000000000000000000000000073ffffffffffffffffffffffffffffffffffffffff16906307168226906024016020604051808303815f875af1158015613403573d5f5f3e3d5ffd5b505050506040513d601f19601f820116820180604052508101906116f89190613aed565b6060824710156134b9576040517f08c379a000000000000000000000000000000000000000000000000000000000815260206004820152602660248201527f416464726573733a20696e73756666696369656e742062616c616e636520666f60448201527f722063616c6c0000000000000000000000000000000000000000000000000000606482015260840161072b565b5f5f8673ffffffffffffffffffffffffffffffffffffffff1685876040516134e19190613e46565b5f6040518083038185875af1925050503d805f811461351b576040519150601f19603f3d011682016040523d82523d5f602084013e613520565b606091505b5091509150613531878383876135b7565b979650505050505050565b5f606061355d8686866fffffffffffffffffffffffffffffffff1686613656565b91503d8067ffffffffffffffff81111561357957613579613b35565b6040519080825280601f01601f1916602001820160405280156135a3576020820181803683370190505b509150805f602084013e5094509492505050565b6060831561364c5782515f036136455773ffffffffffffffffffffffffffffffffffffffff85163b613645576040517f08c379a000000000000000000000000000000000000000000000000000000000815260206004820152601d60248201527f416464726573733a2063616c6c20746f206e6f6e2d636f6e7472616374000000604482015260640161072b565b50816116f8565b6116f883836136c6565b80515f9061fff5906020840190839061366e9061370a565b90505f6136835f5f85858d5f5f5f600161374d565b9050865f0361369b575f5f825f5f888df194506136ba565b5f6136a96180006009613e03565b905060015f81848c8c8a87f1965050505b50505050949350505050565b8151156136d65781518083602001fd5b806040517f08c379a000000000000000000000000000000000000000000000000000000000815260040161072b9190613a83565b5f63ffffffff821115613749576040517ffe3c3c4500000000000000000000000000000000000000000000000000000000815260040160405180910390fd5b5090565b5f61375b86868686866137a2565b90508963ffffffff168117905060208963ffffffff16901b8117905060408863ffffffff16901b8117905060608763ffffffff16901b811790509998505050505050505050565b7bffffffff00000000000000000000000000000000000000000000000060c086901b1660e08460028111156137d9576137d9614081565b901b1760e885901b7dff00000000000000000000000000000000000000000000000000000000001617821561382a577e01000000000000000000000000000000000000000000000000000000000000175b81156127e3577f01000000000000000000000000000000000000000000000000000000000000001795945050505050565b5f5f83601f84011261386b575f5ffd5b50813567ffffffffffffffff811115613882575f5ffd5b602083019150836020828501011115613899575f5ffd5b9250929050565b5f5f602083850312156138b1575f5ffd5b823567ffffffffffffffff8111156138c7575f5ffd5b6138d38582860161385b565b90969095509350505050565b73ffffffffffffffffffffffffffffffffffffffff81168114610d0a575f5ffd5b5f60208284031215613910575f5ffd5b8135610d29816138df565b5f5f5f5f6060858703121561392e575f5ffd5b8435935060208501359250604085013567ffffffffffffffff811115613952575f5ffd5b61395e8782880161385b565b95989497509550505050565b5f5f5f6040848603121561397c575f5ffd5b833567ffffffffffffffff811115613992575f5ffd5b61399e8682870161385b565b909790965060209590950135949350505050565b5f602082840312156139c2575f5ffd5b5035919050565b5f5f5f5f5f5f60a087890312156139de575f5ffd5b86359550602087013594506040870135935060608701356139fe816138df565b9250608087013567ffffffffffffffff811115613a19575f5ffd5b613a2589828a0161385b565b979a9699509497509295939492505050565b5f81518084528060208401602086015e5f6020828601015260207fffffffffffffffffffffffffffffffffffffffffffffffffffffffffffffffe0601f83011685010191505092915050565b602081525f610d296020830184613a37565b5f5f60408385031215613aa6575f5ffd5b8235613ab1816138df565b946020939093013593505050565b5f5f60408385031215613ad0575f5ffd5b823591506020830135613ae2816138df565b809150509250929050565b5f60208284031215613afd575f5ffd5b8151610d29816138df565b7f4e487b71000000000000000000000000000000000000000000000000000000005f52603260045260245ffd5b7f4e487b71000000000000000000000000000000000000000000000000000000005f52604160045260245ffd5b604051601f82017fffffffffffffffffffffffffffffffffffffffffffffffffffffffffffffffe016810167ffffffffffffffff81118282101715613ba957613ba9613b35565b604052919050565b5f67ffffffffffffffff821115613bca57613bca613b35565b50601f017fffffffffffffffffffffffffffffffffffffffffffffffffffffffffffffffe01660200190565b5f82601f830112613c05575f5ffd5b8135613c18613c1382613bb1565b613b62565b818152846020838601011115613c2c575f5ffd5b816020850160208301375f918101602001919091529392505050565b5f5f5f60608486031215613c5a575f5ffd5b833567ffffffffffffffff811115613c70575f5ffd5b613c7c86828701613bf6565b935050602084013567ffffffffffffffff811115613c98575f5ffd5b613ca486828701613bf6565b925050604084013567ffffffffffffffff811115613cc0575f5ffd5b613ccc86828701613bf6565b9150509250925092565b5f5f85851115613ce4575f5ffd5b83861115613cf0575f5ffd5b5050820193919092039150565b5f5f5f5f60808587031215613d10575f5ffd5b84359350602085013567ffffffffffffffff811115613d2d575f5ffd5b613d3987828801613bf6565b935050604085013567ffffffffffffffff811115613d55575f5ffd5b613d6187828801613bf6565b925050606085013567ffffffffffffffff811115613d7d575f5ffd5b613d8987828801613bf6565b91505092959194509250565b5f5f5f60608486031215613da7575f5ffd5b83516020850151909350613dba816138df565b6040850151909250613dcb816138df565b809150509250925092565b7f4e487b71000000000000000000000000000000000000000000000000000000005f52601160045260245ffd5b73ffffffffffffffffffffffffffffffffffffffff818116838216019081111561062e5761062e613dd6565b5f81518060208401855e5f93019283525090919050565b5f610d298284613e2f565b5f5f5f5f5f60a08688031215613e65575f5ffd5b8551613e70816138df565b6020870151909550613e81816138df565b6040870151909450613e92816138df565b60608701516080880151919450925067ffffffffffffffff811115613eb5575f5ffd5b8601601f81018813613ec5575f5ffd5b8051613ed3613c1382613bb1565b818152896020838501011115613ee7575f5ffd5b8160208401602083015e5f602083830101528093505050509295509295909350565b73ffffffffffffffffffffffffffffffffffffffff8616815273ffffffffffffffffffffffffffffffffffffffff8516602082015273ffffffffffffffffffffffffffffffffffffffff8416604082015282606082015260a060808201525f61353160a0830184613a37565b5f60208284031215613f85575f5ffd5b5051919050565b8181038181111561062e5761062e613dd6565b848152608060208201525f613fb76080830186613a37565b8281036040840152613fc98186613a37565b905082810360608401526135318185613a37565b7fff00000000000000000000000000000000000000000000000000000000000000831681525f6116f86001830184613e2f565b5f60208284031215614020575f5ffd5b81518015158114610d29575f5ffd5b83815273ffffffffffffffffffffffffffffffffffffffff83166020820152606060408201525f6127e36060830184613a37565b838152826020820152606060408201525f6127e36060830184613a37565b7f4e487b71000000000000000000000000000000000000000000000000000000005f52602160045260245ffdfea264697066735822122073ac1232bc014cd0cdd8531cfd8a64d67608a89faf81ab888edf3c3a1a8ef09f64736f6c634300081c00336080604052348015600e575f5ffd5b5060156019565b60d3565b5f54610100900460ff161560835760405162461bcd60e51b815260206004820152602760248201527f496e697469616c697a61626c653a20636f6e747261637420697320696e697469604482015266616c697a696e6760c81b606482015260840160405180910390fd5b5f5460ff9081161460d1575f805460ff191660ff9081179091556040519081527f7f26b83ff96e1f2b6a682f133852f6798a09c465da95921460cefb38474024989060200160405180910390a15b565b61315f806100e05f395ff3fe608060405234801561000f575f5ffd5b50600436106101a5575f3560e01c80637ecebe00116100e8578063a457c2d711610093578063b71bcf901161006e578063b71bcf90146103c9578063c2eeeebd146103dc578063d505accf146103fa578063dd62ed3e1461040d575f5ffd5b8063a457c2d71461037e578063a9059cbb14610391578063ae1f6aaf146103a4575f5ffd5b806395ce3e93116100c357806395ce3e931461035057806395d89b41146103635780639a6ab8701461036b575f5ffd5b80637ecebe001461030f57806384b0196e146103225780638c2a993e1461033d575f5ffd5b80633644e5151161015357806364e130cf1161012e57806364e130cf1461029257806370a08231146102b257806374f4f547146102e75780637ba8be34146102fc575f5ffd5b80633644e5151461026e578063395093511461027657806344de240a14610289575f5ffd5b806318160ddd1161018357806318160ddd1461022f57806323b872dd14610241578063313ce56714610254575f5ffd5b806306fdde03146101a9578063095ea7b3146101c757806313096a41146101ea575b5f5ffd5b6101b1610452565b6040516101be91906125ee565b60405180910390f35b6101da6101d5366004612621565b610471565b60405190151581526020016101be565b60ce5461020a9073ffffffffffffffffffffffffffffffffffffffff1681565b60405173ffffffffffffffffffffffffffffffffffffffff90911681526020016101be565b6035545b6040519081526020016101be565b6101da61024f36600461264b565b61048a565b61025c6104ad565b60405160ff90911681526020016101be565b6102336104ce565b6101da610284366004612621565b6104d7565b61023360d05481565b60cf5461020a9073ffffffffffffffffffffffffffffffffffffffff1681565b6102336102c0366004612689565b73ffffffffffffffffffffffffffffffffffffffff165f9081526033602052604090205490565b6102fa6102f5366004612621565b610522565b005b61025c61030a3660046126e9565b6106f7565b61023361031d366004612689565b61070b565b61032a610735565b6040516101be9796959493929190612728565b6102fa61034b366004612621565b61080c565b6101b161035e3660046126e9565b610945565b6101b1610953565b6102fa6103793660046127e7565b610972565b6101da61038c366004612621565b610efe565b6101da61039f366004612621565b610fce565b60cd5461020a90610100900473ffffffffffffffffffffffffffffffffffffffff1681565b6102fa6103d736600461284d565b610fdb565b60ce5473ffffffffffffffffffffffffffffffffffffffff1661020a565b6102fa6104083660046128e6565b6113a7565b61023361041b366004612952565b73ffffffffffffffffffffffffffffffffffffffff9182165f90815260346020908152604080832093909416825291909152205490565b60cc5460609060ff1615610464575f5ffd5b61046c611563565b905090565b5f3361047e8185856115f3565b60019150505b92915050565b5f336104978582856117a6565b6104a285858561187c565b506001949350505050565b60cc545f9062010000900460ff16156104c4575f5ffd5b5060cd5460ff1690565b5f61046c611af0565b335f81815260346020908152604080832073ffffffffffffffffffffffffffffffffffffffff8716845290915281205490919061047e908290869061051d9087906129b6565b6115f3565b60cf5473ffffffffffffffffffffffffffffffffffffffff16806106425761054e6201000060046129c9565b905061055e6201000060046129c9565b60cf80547fffffffffffffffffffffffff00000000000000000000000000000000000000001673ffffffffffffffffffffffffffffffffffffffff9290921691909117905561063e6105b46201000060046129c9565b73ffffffffffffffffffffffffffffffffffffffff16632f90b1846040518163ffffffff1660e01b8152600401602060405180830381865afa1580156105fc573d5f5f3e3d5ffd5b505050506040513d601f19601f8201168201806040525081019061062091906129f5565b60ce5473ffffffffffffffffffffffffffffffffffffffff16611af9565b60d0555b3373ffffffffffffffffffffffffffffffffffffffff821614610698576040517f8e4a23d60000000000000000000000000000000000000000000000000000000081523360048201526024015b60405180910390fd5b6106a28383611b59565b8273ffffffffffffffffffffffffffffffffffffffff167f9b5b9a05e4726d8bb959f1440e05c6b8109443f2083bc4e386237d7654526553836040516106ea91815260200190565b60405180910390a2505050565b5f61070482840184612a0c565b9392505050565b73ffffffffffffffffffffffffffffffffffffffff81165f90815260996020526040812054610484565b5f6060805f5f5f60606065545f5f1b1480156107515750606654155b6107b7576040517f08c379a000000000000000000000000000000000000000000000000000000000815260206004820152601560248201527f4549503731323a20556e696e697469616c697a65640000000000000000000000604482015260640161068f565b6107bf611d1a565b6107c7611d29565b604080515f808252602082019092527f0f000000000000000000000000000000000000000000000000000000000000009b939a50919850469750309650945092509050565b60cf5473ffffffffffffffffffffffffffffffffffffffff16806108a2576108386201000060046129c9565b90506108486201000060046129c9565b60cf80547fffffffffffffffffffffffff00000000000000000000000000000000000000001673ffffffffffffffffffffffffffffffffffffffff9290921691909117905561089e6105b46201000060046129c9565b60d0555b3373ffffffffffffffffffffffffffffffffffffffff8216146108f3576040517f8e4a23d600000000000000000000000000000000000000000000000000000000815233600482015260240161068f565b6108fd8383611d38565b8273ffffffffffffffffffffffffffffffffffffffff167f397b33b307fc137878ebfc75b295289ec0ee25a31bb5bf034f33256fe8ea2aa6836040516106ea91815260200190565b606061070482840184612b23565b60cc54606090610100900460ff161561096a575f5ffd5b61046c611e2b565b5f54610100900460ff161580801561099057505f54600160ff909116105b806109a95750303b1580156109a957505f5460ff166001145b610a35576040517f08c379a000000000000000000000000000000000000000000000000000000000815260206004820152602e60248201527f496e697469616c697a61626c653a20636f6e747261637420697320616c72656160448201527f647920696e697469616c697a6564000000000000000000000000000000000000606482015260840161068f565b5f80547fffffffffffffffffffffffffffffffffffffffffffffffffffffffffffffff001660011790558015610a91575f80547fffffffffffffffffffffffffffffffffffffffffffffffffffffffffffff00ff166101001790555b73ffffffffffffffffffffffffffffffffffffffff8416610ade576040517fd92e233d00000000000000000000000000000000000000000000000000000000815260040160405180910390fd5b60ce805473ffffffffffffffffffffffffffffffffffffffff86167fffffffffffffffffffffffff00000000000000000000000000000000000000009182161790915560d086905560cf80549091163317905560608080610b3f8686611e3a565b60408051606080820183525f808352602083018190528284015291517f95ce3e9300000000000000000000000000000000000000000000000000000000815294985092965090945090925090819030906395ce3e9390610ba39089906004016125ee565b5f60405180830381865afa925050508015610bfd57506040513d5f823e601f3d9081017fffffffffffffffffffffffffffffffffffffffffffffffffffffffffffffffe0168201604052610bfa9190810190612b70565b60015b610c0a5760018352610c0d565b91505b6040517f95ce3e9300000000000000000000000000000000000000000000000000000000815230906395ce3e9390610c499088906004016125ee565b5f60405180830381865afa925050508015610ca357506040513d5f823e601f3d9081017fffffffffffffffffffffffffffffffffffffffffffffffffffffffffffffffe0168201604052610ca09190810190612b70565b60015b610cb35760016020840152610cb6565b90505b610cc08282611f28565b610cc982611fd7565b6040517f7ba8be340000000000000000000000000000000000000000000000000000000081523090637ba8be3490610d059087906004016125ee565b602060405180830381865afa925050508015610d5c575060408051601f3d9081017fffffffffffffffffffffffffffffffffffffffffffffffffffffffffffffffe0168201909252610d5991810190612be5565b60015b610d6c5760016040840152610d9f565b60cd80547fffffffffffffffffffffffffffffffffffffffffffffffffffffffffffffff001660ff929092169190911790555b825160cc80546020860151604080880151151562010000027fffffffffffffffffffffffffffffffffffffffffffffffffffffffffff00ffff921515610100027fffffffffffffffffffffffffffffffffffffffffffffffffffffffffffff00ff961515969096167fffffffffffffffffffffffffffffffffffffffffffffffffffffffffffff000090941693909317949094171617905560cd54905173ffffffffffffffffffffffffffffffffffffffff8c16917f81e8e92e5873539605a102eddae7ed06d19bea042099a437cbc3644415eb740491610e87918691869160ff1690612c00565b60405180910390a25050505050508015610ef7575f80547fffffffffffffffffffffffffffffffffffffffffffffffffffffffffffff00ff169055604051600181527f7f26b83ff96e1f2b6a682f133852f6798a09c465da95921460cefb38474024989060200160405180910390a15b5050505050565b335f81815260346020908152604080832073ffffffffffffffffffffffffffffffffffffffff8716845290915281205490919083811015610fc1576040517f08c379a000000000000000000000000000000000000000000000000000000000815260206004820152602560248201527f45524332303a2064656372656173656420616c6c6f77616e63652062656c6f7760448201527f207a65726f000000000000000000000000000000000000000000000000000000606482015260840161068f565b6104a282868684036115f3565b5f3361047e81858561187c565b80610fe75f5460ff1690565b610ff2906001612c38565b60ff168160ff1614611030576040517f0ac76f0100000000000000000000000000000000000000000000000000000000815260040160405180910390fd5b5f548290610100900460ff1615801561104f57505f5460ff8083169116105b6110db576040517f08c379a000000000000000000000000000000000000000000000000000000000815260206004820152602e60248201527f496e697469616c697a61626c653a20636f6e747261637420697320616c72656160448201527f647920696e697469616c697a6564000000000000000000000000000000000000606482015260840161068f565b5f80547fffffffffffffffffffffffffffffffffffffffffffffffffffffffffffff00001660ff8316176101001781556111497fa3f0ad74e5423aebfd80d3ef4346578335a9a72aeaee59ff6cb3582b35133d505473ffffffffffffffffffffffffffffffffffffffff1690565b90508073ffffffffffffffffffffffffffffffffffffffff16638da5cb5b6040518163ffffffff1660e01b8152600401602060405180830381865afa158015611194573d5f5f3e3d5ffd5b505050506040513d601f19601f820116820180604052508101906111b89190612c51565b73ffffffffffffffffffffffffffffffffffffffff163373ffffffffffffffffffffffffffffffffffffffff161461121e576040517f8e4a23d600000000000000000000000000000000000000000000000000000000815233600482015260240161068f565b61128f88888080601f0160208091040260200160405190810160405280939291908181526020018383808284375f9201919091525050604080516020601f8c018190048102820181019092528a815292508a91508990819084018382808284375f92019190915250611f2892505050565b6112cd88888080601f0160208091040260200160405190810160405280939291908181526020018383808284375f92019190915250611fd792505050565b8860cc6112da8282612c7c565b505060ce5460cd5460405173ffffffffffffffffffffffffffffffffffffffff909216917f81e8e92e5873539605a102eddae7ed06d19bea042099a437cbc3644415eb740491611337918c918c918c918c9160ff90911690612d82565b60405180910390a2505f80547fffffffffffffffffffffffffffffffffffffffffffffffffffffffffffff00ff16905560405160ff821681527f7f26b83ff96e1f2b6a682f133852f6798a09c465da95921460cefb38474024989060200160405180910390a15050505050505050565b83421115611411576040517f08c379a000000000000000000000000000000000000000000000000000000000815260206004820152601d60248201527f45524332305065726d69743a206578706972656420646561646c696e65000000604482015260640161068f565b5f7f6e71edae12b1b97f4d1f60370fef10105fa2faae0126114a169c64845d6126c988888861143f8c6120af565b60408051602081019690965273ffffffffffffffffffffffffffffffffffffffff94851690860152929091166060840152608083015260a082015260c0810186905260e0016040516020818303038152906040528051906020012090505f6114a6826120e3565b90505f6114b58287878761212a565b90508973ffffffffffffffffffffffffffffffffffffffff168173ffffffffffffffffffffffffffffffffffffffff161461154c576040517f08c379a000000000000000000000000000000000000000000000000000000000815260206004820152601e60248201527f45524332305065726d69743a20696e76616c6964207369676e61747572650000604482015260640161068f565b6115578a8a8a6115f3565b50505050505050505050565b60606036805461157290612dbe565b80601f016020809104026020016040519081016040528092919081815260200182805461159e90612dbe565b80156115e95780601f106115c0576101008083540402835291602001916115e9565b820191905f5260205f20905b8154815290600101906020018083116115cc57829003601f168201915b5050505050905090565b73ffffffffffffffffffffffffffffffffffffffff8316611695576040517f08c379a0000000000000000000000000000000000000000000000000000000008152602060048201526024808201527f45524332303a20617070726f76652066726f6d20746865207a65726f2061646460448201527f7265737300000000000000000000000000000000000000000000000000000000606482015260840161068f565b73ffffffffffffffffffffffffffffffffffffffff8216611738576040517f08c379a000000000000000000000000000000000000000000000000000000000815260206004820152602260248201527f45524332303a20617070726f766520746f20746865207a65726f20616464726560448201527f7373000000000000000000000000000000000000000000000000000000000000606482015260840161068f565b73ffffffffffffffffffffffffffffffffffffffff8381165f8181526034602090815260408083209487168084529482529182902085905590518481527f8c5be1e5ebec7d5bd14f71427d1e84f3dd0314c0f7b2291e5b200ac8c7c3b92591015b60405180910390a3505050565b73ffffffffffffffffffffffffffffffffffffffff8381165f908152603460209081526040808320938616835292905220547fffffffffffffffffffffffffffffffffffffffffffffffffffffffffffffffff81146118765781811015611869576040517f08c379a000000000000000000000000000000000000000000000000000000000815260206004820152601d60248201527f45524332303a20696e73756666696369656e7420616c6c6f77616e6365000000604482015260640161068f565b61187684848484036115f3565b50505050565b73ffffffffffffffffffffffffffffffffffffffff831661191f576040517f08c379a000000000000000000000000000000000000000000000000000000000815260206004820152602560248201527f45524332303a207472616e736665722066726f6d20746865207a65726f20616460448201527f6472657373000000000000000000000000000000000000000000000000000000606482015260840161068f565b73ffffffffffffffffffffffffffffffffffffffff82166119c2576040517f08c379a000000000000000000000000000000000000000000000000000000000815260206004820152602360248201527f45524332303a207472616e7366657220746f20746865207a65726f206164647260448201527f6573730000000000000000000000000000000000000000000000000000000000606482015260840161068f565b73ffffffffffffffffffffffffffffffffffffffff83165f9081526033602052604090205481811015611a77576040517f08c379a000000000000000000000000000000000000000000000000000000000815260206004820152602660248201527f45524332303a207472616e7366657220616d6f756e742065786365656473206260448201527f616c616e63650000000000000000000000000000000000000000000000000000606482015260840161068f565b73ffffffffffffffffffffffffffffffffffffffff8085165f8181526033602052604080822086860390559286168082529083902080548601905591517fddf252ad1be2c89b69c2b068fc378daa952ba7f163c4a11628f55a4df523b3ef90611ae39086815260200190565b60405180910390a3611876565b5f61046c612150565b5f82611b096201000060046129c9565b60408051602081019390935273ffffffffffffffffffffffffffffffffffffffff918216908301528316606082015260800160405160208183030381529060405280519060200120905092915050565b73ffffffffffffffffffffffffffffffffffffffff8216611bfc576040517f08c379a000000000000000000000000000000000000000000000000000000000815260206004820152602160248201527f45524332303a206275726e2066726f6d20746865207a65726f2061646472657360448201527f7300000000000000000000000000000000000000000000000000000000000000606482015260840161068f565b73ffffffffffffffffffffffffffffffffffffffff82165f9081526033602052604090205481811015611cb1576040517f08c379a000000000000000000000000000000000000000000000000000000000815260206004820152602260248201527f45524332303a206275726e20616d6f756e7420657863656564732062616c616e60448201527f6365000000000000000000000000000000000000000000000000000000000000606482015260840161068f565b73ffffffffffffffffffffffffffffffffffffffff83165f8181526033602090815260408083208686039055603580548790039055518581529192917fddf252ad1be2c89b69c2b068fc378daa952ba7f163c4a11628f55a4df523b3ef9101611799565b505050565b60606067805461157290612dbe565b60606068805461157290612dbe565b73ffffffffffffffffffffffffffffffffffffffff8216611db5576040517f08c379a000000000000000000000000000000000000000000000000000000000815260206004820152601f60248201527f45524332303a206d696e7420746f20746865207a65726f206164647265737300604482015260640161068f565b8060355f828254611dc691906129b6565b909155505073ffffffffffffffffffffffffffffffffffffffff82165f818152603360209081526040808320805486019055518481527fddf252ad1be2c89b69c2b068fc378daa952ba7f163c4a11628f55a4df523b3ef910160405180910390a35050565b60606037805461157290612dbe565b5f60608060605f86865f818110611e5357611e53612e09565b909101357fff00000000000000000000000000000000000000000000000000000000000000169150819050611e9a57611e8e86880188612e54565b91955093509150611f1d565b7fff0000000000000000000000000000000000000000000000000000000000000081811601611eeb57611ed0866001818a612ee2565b810190611edd9190612f09565b945094509450945050611f1f565b6040517f084a144900000000000000000000000000000000000000000000000000000000815260040160405180910390fd5b505b92959194509250565b5f54610100900460ff16611fbe576040517f08c379a000000000000000000000000000000000000000000000000000000000815260206004820152602b60248201527f496e697469616c697a61626c653a20636f6e7472616374206973206e6f74206960448201527f6e697469616c697a696e67000000000000000000000000000000000000000000606482015260840161068f565b6036611fca8382612fe5565b506037611d158282612fe5565b5f54610100900460ff1661206d576040517f08c379a000000000000000000000000000000000000000000000000000000000815260206004820152602b60248201527f496e697469616c697a61626c653a20636f6e7472616374206973206e6f74206960448201527f6e697469616c697a696e67000000000000000000000000000000000000000000606482015260840161068f565b6120ac816040518060400160405280600181526020017f31000000000000000000000000000000000000000000000000000000000000008152506121c3565b50565b73ffffffffffffffffffffffffffffffffffffffff81165f9081526099602052604090208054600181018255905b50919050565b5f6104846120ef611af0565b836040517f19010000000000000000000000000000000000000000000000000000000000008152600281019290925260228201526042902090565b5f5f5f61213987878787612280565b9150915061214681612368565b5095945050505050565b5f7f8b73c3c69bb8fe3d512ecc4cf759cc79239f7b179b0ffacaa9a75d522b39400f61217a61251a565b612182612572565b60408051602081019490945283019190915260608201524660808201523060a082015260c00160405160208183030381529060405280519060200120905090565b5f54610100900460ff16612259576040517f08c379a000000000000000000000000000000000000000000000000000000000815260206004820152602b60248201527f496e697469616c697a61626c653a20636f6e7472616374206973206e6f74206960448201527f6e697469616c697a696e67000000000000000000000000000000000000000000606482015260840161068f565b60676122658382612fe5565b5060686122728282612fe5565b50505f606581905560665550565b5f807f7fffffffffffffffffffffffffffffff5d576e7357a4501ddfe92f46681b20a08311156122b557505f9050600361235f565b604080515f8082526020820180845289905260ff881692820192909252606081018690526080810185905260019060a0016020604051602081039080840390855afa158015612306573d5f5f3e3d5ffd5b50506040517fffffffffffffffffffffffffffffffffffffffffffffffffffffffffffffffe0015191505073ffffffffffffffffffffffffffffffffffffffff8116612359575f6001925092505061235f565b91505f90505b94509492505050565b5f81600481111561237b5761237b6130fc565b036123835750565b6001816004811115612397576123976130fc565b036123fe576040517f08c379a000000000000000000000000000000000000000000000000000000000815260206004820152601860248201527f45434453413a20696e76616c6964207369676e61747572650000000000000000604482015260640161068f565b6002816004811115612412576124126130fc565b03612479576040517f08c379a000000000000000000000000000000000000000000000000000000000815260206004820152601f60248201527f45434453413a20696e76616c6964207369676e6174757265206c656e67746800604482015260640161068f565b600381600481111561248d5761248d6130fc565b036120ac576040517f08c379a000000000000000000000000000000000000000000000000000000000815260206004820152602260248201527f45434453413a20696e76616c6964207369676e6174757265202773272076616c60448201527f7565000000000000000000000000000000000000000000000000000000000000606482015260840161068f565b5f5f612524611d1a565b80519091501561253b578051602090910120919050565b606554801561254a5792915050565b7fc5d2460186f7233c927e7db2dcc703c0e500b653ca82273b7bfad8045d85a4709250505090565b5f5f61257c611d29565b805190915015612593578051602090910120919050565b606654801561254a5792915050565b5f81518084528060208401602086015e5f6020828601015260207fffffffffffffffffffffffffffffffffffffffffffffffffffffffffffffffe0601f83011685010191505092915050565b602081525f61070460208301846125a2565b73ffffffffffffffffffffffffffffffffffffffff811681146120ac575f5ffd5b5f5f60408385031215612632575f5ffd5b823561263d81612600565b946020939093013593505050565b5f5f5f6060848603121561265d575f5ffd5b833561266881612600565b9250602084013561267881612600565b929592945050506040919091013590565b5f60208284031215612699575f5ffd5b813561070481612600565b5f5f83601f8401126126b4575f5ffd5b50813567ffffffffffffffff8111156126cb575f5ffd5b6020830191508360208285010111156126e2575f5ffd5b9250929050565b5f5f602083850312156126fa575f5ffd5b823567ffffffffffffffff811115612710575f5ffd5b61271c858286016126a4565b90969095509350505050565b7fff000000000000000000000000000000000000000000000000000000000000008816815260e060208201525f61276260e08301896125a2565b828103604084015261277481896125a2565b6060840188905273ffffffffffffffffffffffffffffffffffffffff8716608085015260a0840186905283810360c0850152845180825260208087019350909101905f5b818110156127d65783518352602093840193909201916001016127b8565b50909b9a5050505050505050505050565b5f5f5f5f606085870312156127fa575f5ffd5b84359350602085013561280c81612600565b9250604085013567ffffffffffffffff811115612827575f5ffd5b612833878288016126a4565b95989497509550505050565b60ff811681146120ac575f5ffd5b5f5f5f5f5f5f86880360c0811215612863575f5ffd5b6060811215612870575f5ffd5b50869550606087013567ffffffffffffffff81111561288d575f5ffd5b61289989828a016126a4565b909650945050608087013567ffffffffffffffff8111156128b8575f5ffd5b6128c489828a016126a4565b90945092505060a08701356128d88161283f565b809150509295509295509295565b5f5f5f5f5f5f5f60e0888a0312156128fc575f5ffd5b873561290781612600565b9650602088013561291781612600565b9550604088013594506060880135935060808801356129358161283f565b9699959850939692959460a0840135945060c09093013592915050565b5f5f60408385031215612963575f5ffd5b823561296e81612600565b9150602083013561297e81612600565b809150509250929050565b7f4e487b71000000000000000000000000000000000000000000000000000000005f52601160045260245ffd5b8082018082111561048457610484612989565b73ffffffffffffffffffffffffffffffffffffffff818116838216019081111561048457610484612989565b5f60208284031215612a05575f5ffd5b5051919050565b5f60208284031215612a1c575f5ffd5b81356107048161283f565b7f4e487b71000000000000000000000000000000000000000000000000000000005f52604160045260245ffd5b604051601f82017fffffffffffffffffffffffffffffffffffffffffffffffffffffffffffffffe016810167ffffffffffffffff81118282101715612a9b57612a9b612a27565b604052919050565b5f67ffffffffffffffff821115612abc57612abc612a27565b50601f017fffffffffffffffffffffffffffffffffffffffffffffffffffffffffffffffe01660200190565b5f612afa612af584612aa3565b612a54565b9050828152838383011115612b0d575f5ffd5b828260208301375f602084830101529392505050565b5f60208284031215612b33575f5ffd5b813567ffffffffffffffff811115612b49575f5ffd5b8201601f81018413612b59575f5ffd5b612b6884823560208401612ae8565b949350505050565b5f60208284031215612b80575f5ffd5b815167ffffffffffffffff811115612b96575f5ffd5b8201601f81018413612ba6575f5ffd5b8051612bb4612af582612aa3565b818152856020838501011115612bc8575f5ffd5b8160208401602083015e5f91810160200191909152949350505050565b5f60208284031215612bf5575f5ffd5b81516107048161283f565b606081525f612c1260608301866125a2565b8281036020840152612c2481866125a2565b91505060ff83166040830152949350505050565b60ff818116838216019081111561048457610484612989565b5f60208284031215612c61575f5ffd5b815161070481612600565b5f81358015158114610484575f5ffd5b612c8582612c6c565b1515815460ff82169150817fffffffffffffffffffffffffffffffffffffffffffffffffffffffffffffff00821617835561ff00612cc560208601612c6c565b151560081b1680837fffffffffffffffffffffffffffffffffffffffffffffffffffffffffffff000084161717845562ff0000612d0460408701612c6c565b151560101b16837fffffffffffffffffffffffffffffffffffffffffffffffffffffffffff00000084161782171784555050505050565b81835281816020850137505f602082840101525f60207fffffffffffffffffffffffffffffffffffffffffffffffffffffffffffffffe0601f840116840101905092915050565b606081525f612d95606083018789612d3b565b8281036020840152612da8818688612d3b565b91505060ff831660408301529695505050505050565b600181811c90821680612dd257607f821691505b6020821081036120dd577f4e487b71000000000000000000000000000000000000000000000000000000005f52602260045260245ffd5b7f4e487b71000000000000000000000000000000000000000000000000000000005f52603260045260245ffd5b5f82601f830112612e45575f5ffd5b61070483833560208501612ae8565b5f5f5f60608486031215612e66575f5ffd5b833567ffffffffffffffff811115612e7c575f5ffd5b612e8886828701612e36565b935050602084013567ffffffffffffffff811115612ea4575f5ffd5b612eb086828701612e36565b925050604084013567ffffffffffffffff811115612ecc575f5ffd5b612ed886828701612e36565b9150509250925092565b5f5f85851115612ef0575f5ffd5b83861115612efc575f5ffd5b5050820193919092039150565b5f5f5f5f60808587031215612f1c575f5ffd5b84359350602085013567ffffffffffffffff811115612f39575f5ffd5b612f4587828801612e36565b935050604085013567ffffffffffffffff811115612f61575f5ffd5b612f6d87828801612e36565b925050606085013567ffffffffffffffff811115612f89575f5ffd5b612f9587828801612e36565b91505092959194509250565b601f821115611d1557805f5260205f20601f840160051c81016020851015612fc65750805b601f840160051c820191505b81811015610ef7575f8155600101612fd2565b815167ffffffffffffffff811115612fff57612fff612a27565b6130138161300d8454612dbe565b84612fa1565b6020601f821160018114613064575f831561302e5750848201515b7fffffffffffffffffffffffffffffffffffffffffffffffffffffffffffffffff600385901b1c1916600184901b178455610ef7565b5f848152602081207fffffffffffffffffffffffffffffffffffffffffffffffffffffffffffffffe08516915b828110156130b15787850151825560209485019460019092019101613091565b50848210156130ed57868401517fffffffffffffffffffffffffffffffffffffffffffffffffffffffffffffffff600387901b60f8161c191681555b50505050600190811b01905550565b7f4e487b71000000000000000000000000000000000000000000000000000000005f52602160045260245ffdfea26469706673582212206dce08c68466d01f6be20e701d83e4c455b2fe8eea0002b28a2c6126b08e063664736f6c634300081c0033608060405234801561000f575f5ffd5b506040516105dc3803806105dc83398101604081905261002e91610138565b61003733610046565b61004081610095565b50610165565b5f80546001600160a01b038381166001600160a01b0319831681178455604051919092169283917f8be0079c531659141344cd1fd0a4f28419497f9722a3daafe3b4186f6b6457e09190a35050565b6001600160a01b0381163b6101165760405162461bcd60e51b815260206004820152603360248201527f5570677261646561626c65426561636f6e3a20696d706c656d656e746174696f60448201527f6e206973206e6f74206120636f6e747261637400000000000000000000000000606482015260840160405180910390fd5b600180546001600160a01b0319166001600160a01b0392909216919091179055565b5f60208284031215610148575f5ffd5b81516001600160a01b038116811461015e575f5ffd5b9392505050565b61046a806101725f395ff3fe608060405234801561000f575f5ffd5b5060043610610064575f3560e01c8063715018a61161004d578063715018a6146100c05780638da5cb5b146100c8578063f2fde38b146100e5575f5ffd5b80633659cfe6146100685780635c60da1b1461007d575b5f5ffd5b61007b6100763660046103fa565b6100f8565b005b60015473ffffffffffffffffffffffffffffffffffffffff165b60405173ffffffffffffffffffffffffffffffffffffffff909116815260200160405180910390f35b61007b61014c565b5f5473ffffffffffffffffffffffffffffffffffffffff16610097565b61007b6100f33660046103fa565b61015f565b61010061021b565b6101098161029b565b60405173ffffffffffffffffffffffffffffffffffffffff8216907fbc7cd75a20ee27fd9adebab32041f755214dbc6bffa90cc0225b39da2e5c2d3b905f90a250565b61015461021b565b61015d5f610386565b565b61016761021b565b73ffffffffffffffffffffffffffffffffffffffff811661020f576040517f08c379a000000000000000000000000000000000000000000000000000000000815260206004820152602660248201527f4f776e61626c653a206e6577206f776e657220697320746865207a65726f206160448201527f646472657373000000000000000000000000000000000000000000000000000060648201526084015b60405180910390fd5b61021881610386565b50565b5f5473ffffffffffffffffffffffffffffffffffffffff16331461015d576040517f08c379a000000000000000000000000000000000000000000000000000000000815260206004820181905260248201527f4f776e61626c653a2063616c6c6572206973206e6f7420746865206f776e65726044820152606401610206565b73ffffffffffffffffffffffffffffffffffffffff81163b61033f576040517f08c379a000000000000000000000000000000000000000000000000000000000815260206004820152603360248201527f5570677261646561626c65426561636f6e3a20696d706c656d656e746174696f60448201527f6e206973206e6f74206120636f6e7472616374000000000000000000000000006064820152608401610206565b600180547fffffffffffffffffffffffff00000000000000000000000000000000000000001673ffffffffffffffffffffffffffffffffffffffff92909216919091179055565b5f805473ffffffffffffffffffffffffffffffffffffffff8381167fffffffffffffffffffffffff0000000000000000000000000000000000000000831681178455604051919092169283917f8be0079c531659141344cd1fd0a4f28419497f9722a3daafe3b4186f6b6457e09190a35050565b5f6020828403121561040a575f5ffd5b813573ffffffffffffffffffffffffffffffffffffffff8116811461042d575f5ffd5b939250505056fea264697066735822122072376a0e4a4a35237cfe02f9abd670b00bb3744440bec36d663c5252b937c69864736f6c634300081c0033","linkReferences":{}},"methodIdentifiers":{"ASSET_ROUTER()":"c6a70bbb","BASE_TOKEN_ASSET_ID()":"cb944dec","L1_CHAIN_ID()":"2f90b184","L2_LEGACY_SHARED_BRIDGE()":"c438a9f2","L2_TOKEN_PROXY_BYTECODE_HASH()":"2149ed74","WETH_TOKEN()":"37d277d4","acceptOwnership()":"79ba5097","assetId(address)":"fd3f60df","bridgeBurn(uint256,uint256,bytes32,address,bytes)":"699b0fb9","bridgeMint(uint256,bytes32,bytes)":"36ba0355","bridgedTokenBeacon()":"f2d44246","calculateCreate2TokenAddress(uint256,address)":"c487412c","ensureTokenIsRegistered(address)":"19a2a285","getERC20Getters(address,uint256)":"a7236d16","l2TokenAddress(address)":"f5f15168","originChainId(bytes32)":"5f3455b5","owner()":"8da5cb5b","pause()":"8456cb59","paused()":"5c975abb","pendingOwner()":"e30c3978","registerToken(address)":"09824a80","renounceOwnership()":"715018a6","setLegacyTokenAssetId(address)":"4cd40a02","tokenAddress(bytes32)":"97bb3ce9","tokenDataOriginChainId(bytes)":"07a6d4bc","transferOwnership(address)":"f2fde38b","tryRegisterTokenFromBurnData(bytes,bytes32)":"49b40853","unpause()":"3f4ba83a"},"id":33}